:020000040800F2
:1000000000050020450100084B180008CB1200082D
:10001000491800085D0800080D19000800000000DC
:100020000000000000000000000000006F18000841
:100030005F080008000000006D1800087118000833
:100040005F0100085F0100085F0100085F01000810
:100050005F0100085F0100085F0100085F01000800
:100060005F0100085F010008710800085F010008D7
:100070005F0100085F0100085F0100085F010008E0
:100080005F0100085F0100085F0100085F010008D0
:100090005F0100085F0100085F0100085F010008C0
:1000A0005F0100085F0100085F0100085F010008B0
:1000B0005F0100085F0100085F0100085F010008A0
:1000C0005F0100085F0100085F0100085F01000890
:1000D0005F0100085F0100085F0100085F01000880
:1000E0005F0100085F0100085F0100085F01000870
:1000F0005F0100085F0100085F0100085F01000860
:100100005F0100085F0100085F0100085F0100084F
:100110005F0100085F0100085F0100085F0100083F
:100120005F0100085F0100085F0100085F0100082F
:10013000DFF80CD000F080FB00480047952700084E
:10014000000500200648804706480047FEE7FEE716
:10015000FEE7FEE7FEE7FEE7FEE7FEE7FEE7FEE777
:10016000C518000831010008202A04DB203A21FAD2
:1001700002F00021704721FA02F3D040C2F12002C0
:100180009140084319467047D2B201E000F8012BB4
:10019000491EFBD270470022F6E710B513460A4607
:1001A00004461946FFF7F0FF204610BDF0B480EA80
:1001B0000102D40F4200B2EB410F02D202460846C0
:1001C00011464A0042D0C30DDDB2C1F3C752AD1A89
:1001D000202D35DAC1F3160141F4000204B1524278
:1001E000C5F1200602FA06F12A411044B3EBD05FB4
:1001F00023D0C4B1012DA0EBC35009DCF0BC4FF0FB
:10020000004202EAC352DBB200F5000000F058BA27
:10021000400000F1807000EBC350A0F1807040EA14
:10022000D170490009E0490841EAC071A0EBC35010
:1002300000F50000400800EBC350F0BC00F037BAF6
:100240006142012202EB4101001BF6E7F0BC70475E
:1002500081F00041AAE780F00040A7E72DE9FE4FBA
:10026000804681EA0300C00F0C46009021F0004157
:1002700023F00045B8EB0200A94105D240462146D3
:1002800090461C460B46024623F00040104347D0E0
:10029000270DC7F30A00C3F30A510290401A0190D8
:1002A00040286BDAC3F3130040F4801B0098924699
:1002B00020B10023D2EB030A63EB0B0B01985946E4
:1002C000C0F14002504600F0D1F906460D465046B6
:1002D0005946019A00F0D9F910EB08006141002459
:1002E00087EA115284EAE7731A4340D0009A62B356
:1002F000019A012A4FEA075215DC001B61EB02014B
:100300004FF0004202EA0752CDE90042001C41F5DD
:10031000801132462B4600F010FA03B0BDE8F08F92
:1003200040462146F9E7001B61EB0201001C41F544
:10033000801300185B412018A2F5001747EB03015A
:1003400040EAD570B6196D4111E06D084FEA3606E6
:1003500045EAC0754FEA0752001B61EB0201001C21
:1003600041F5801149084FEA3000001951413246E9
:100370002B4603B0BDE8F04F00F0D0B90098012241
:1003800040000023D0EB020263EBE07300982146AB
:100390004FEAE074B8EB000061EB0401E9E783F099
:1003A00000435BE781F0004158E72DE9FE4F81EA09
:1003B000030404F0004421F0004100944FF0000BCE
:1003C00023F0004350EA01045ED052EA03045BD0FC
:1003D000C3F30A54C1F30A552C44A4F2F334019434
:1003E000A0FB0254C1F3130141F48011C3F31303C2
:1003F00043F4801301FB024400FB034E840A970A76
:1004000044EA815447EA8357A4FB076802958D0AA2
:1004100005FB07854FEA932C04FB0C542705029D2E
:100420004FEA065847EA1637B5EB08056EEB070C9E
:10043000870E920E47EA811742EA8312A7FB020158
:10044000B6EB0B0164EB00042B0D43EA0C335E1892
:1004500044EB1C50DA465146E7FB0201C5F3130496
:100460004FEA0B3343EA14534FEA0432019C43EA48
:100470000603A4F10C040294009CCDE900B400F042
:100480005CF903B0BDE8F08F00200146F9E72DE9E3
:10049000F04D81EA030404F0004B21F000451446BE
:1004A0004FF0000A23F0004150EA050220D054EA40
:1004B00001021DD0C5F30A570246C5F31303C1F369
:1004C0001300C1F30A5640F4801543F48013A7EBE0
:1004D0000608101BD64608F2FD3873EB050002D360
:1004E00008F1010801E092185B41B8F1000F03DA4E
:1004F00000200146BDE8F08D00204FF48011064633
:1005000084460EE0171B73EB050705D3121B63EB44
:10051000050306434CEA010C49084FEA30009218E3
:100520005B4150EA0107EDD152EA030012D082EAA2
:10053000040083EA0501084305D0101BAB4106D235
:100540000122002306E000224FF0004302E06FF09A
:10055000010253101AEB06004CEB085110EB0A0095
:1005600041EB0B01BDE8F04D00F0D8B80EB540F2FC
:10057000334102910021CDE900110A460B4600F0FB
:10058000DCF803B000BDC1F30A5210B5C1F313018A
:1005900040F2FF3341F480119A4201DA002010BD8D
:1005A00040F233439A42A2F2334203DC5242FFF755
:1005B000DBFD10BD904010BD00F0004230F0004067
:1005C0000AD0C10D01F56071C0F3160042EA015175
:1005D000C20840071143704700200146704730B5FC
:1005E0000B46014600202022012409E021FA02F5F1
:1005F0009D4205D303FA02F5491B04FA02F528448B
:10060000151EA2F10102F1DC30BD2DE9F05F0546B7
:10061000002092469B4688460646814640241BE0C1
:100620002846414647462246FFF79EFD53465A4616
:10063000C01A914110D311461846224600F016F810
:100640002D1A67EB01084F4622460120002100F0D9
:100650000DF817EB00094E41201EA4F10104DFDC68
:10066000484631462A464346BDE8F09F202A04DB2F
:10067000203A00FA02F1002070479140C2F12003B5
:1006800020FA03F3194390407047202A06DBCB176A
:10069000203A41FA02F043EAE07306E041FA02F33D
:1006A000D040C2F12002914008431946704700290A
:1006B000A8BF7047401C490008BF20F001007047E8
:1006C00010B4B0FA80FC00FA0CF050EA010404BF48
:1006D00010BC704749B1CCF1200421FA04F411FA9E
:1006E0000CF118BF012121430843A3EB0C01CB1DE2
:1006F0004FEA00614FEA102042BF002010BC704753
:1007000000EBC35010440029A4BF10BC7047401C2C
:10071000490008BF20F0010010BC704710B5141E3E
:1007200073F1000408DA401C41F1000192185B41AA
:100730001A4301D120F0010010BD2DE9F04D924681
:100740009B4611B1B1FA81F202E0B0FA80F2203298
:100750009046FFF78BFF04460F4640EA0A0041EA45
:100760000B0153465A46084313D0114653EA010081
:1007700019D0C8F140025046FFF7F6FC05460E4678
:10078000504659464246FFF771FF084305D0012005
:1007900004E020463946BDE8F08D0020054346EAD6
:1007A000E0762C4337430A986305E40AA0EB08007F
:1007B0000022FD0A44EA47540A3002D500200146CF
:1007C000E9E7010510196941DDE9084500196941AA
:1007D000BDE8F04DA2E7C1F30A52C1F3130140F2A4
:1007E000FF3341F480119A4202DA0020014670473B
:1007F00040F233439A42A2F2334202DC5242FFF704
:10080000B3BCFFF733BF000030B5041E71F1000424
:1008100004DB4FF00044404264EB0101141E73F10D
:10082000000405DB1C464FF00043524263EB040317
:10083000994208BF904230BD064C074D06E0E06883
:1008400040F0010394E8070098471034AC42F6D317
:10085000FFF772FC0432000824320008FEE77047FC
:1008600001B5009801E0401E00900028FBD108BDB2
:10087000102000F0D5B8000030B5B3F5804F05D09A
:100880006FF0704140F82210002030BD8C690B6879
:100890008D6823434C688989240144EA0524234355
:1008A00043EA014150F82230014C23401943E9E763
:1008B0000000F0CF30B50A6850F8223023F0010371
:1008C00040F822308C68204B4A68082C1ED0224306
:1008D000D1E903452C4322434C6922438C692243CE
:1008E000CC6922430C6A22434C6A22438C6A22431D
:1008F000CC6A22430C6B0968224350F821401C400B
:1009000052EA040240F82120002030BDD1E903451D
:1009100042F008022C4322434C6922438C69224353
:10092000CC6922430C6A22434C6A22438C6A2243DC
:10093000CC6A22430C6B0968224350F821401C40CA
:10094000224342F04002DDE78100F7FF30B5D1E9F4
:10095000003443EA04138C688D89240244EA054478
:1009600023430C8A094D00EB820005EB045423431A
:100970000C7D6D0105EB0464896923430B434168D9
:1009800001F040410B434360002030BD0000F0FF08
:1009900070B5044600F04EF90546601C02D00448CC
:1009A0000078044400F046F9401BA042FAD370BD21
:1009B000A800002030B585B0002000900190029082
:1009C00003901248016800291ED1012101601048DE
:1009D000416941F4807141614069022400F48070F2
:1009E00004904FF68070CDE9000403256946039515
:1009F000084800F021F84CF6B370CDE900046946D0
:100A00000395054800F018F805B030BD68000020D7
:100A1000001002400018014000140140704700001F
:100A2000044910B50A68024202D00860FFF7F6FFD9
:100A300010BD0000140401402DE9F84FDFF8B8A103
:100A400000220AF1040B144601274FF00F090BF1A5
:100A5000040E00BF0B6807FA04F52B40AB4274D1BB
:100A6000DFF898C14E68A6EB0C0866452BD00DDC6C
:100A7000032E34D005DC36B3012E19D0022E2FD12F
:100A80001BE0112E16D0122E2AD119E0B8F5881FBE
:100A900019D006DCB8F5803F15D0B8F5801F1FD1FE
:100AA00011E0B8F5001F0ED0B8F5041F18D10AE008
:100AB000CA6815E0CA68121D12E0CA6808320FE061
:100AC000CA680C320CE08A682AB1012A4FF0080289
:100AD00003D0456104E0042202E0056100E0002249
:100AE000FF2B01D8064601E000F104064FEA840519
:100AF00001D9A5F12005D6F800C009FA05F82CEABD
:100B0000080C02FA05F54CEA050CC6F800C04D6861
:100B1000ED006AD53A4DAE6946F00106AE61AD69A9
:100B200024F0030605F001050095364D06EB050C93
:100B3000DCF80850A6074FEA167809FA08F6B5431C
:100B4000314EB04202D100261AE04EE02F4EB042A4
:100B500001D1012614E02E4EB04201D102260FE051
:100B60002C4EB04201D103260AE02B4EB04201D1F7
:100B7000042605E0294EB04201D1052600E00626F4
:100B800006FA08F62E43CCF808604D68DAF80060E3
:100B9000ED03554601D51E4300E09E432E604D688F
:100BA000AD0305D5DBF800601E43CBF8006004E020
:100BB000DBF800509D43CBF800504D68DEF8006034
:100BC000ED02754601D51E4300E09E432E604D6840
:100BD000AD0205D5084D0C352E681E432E6004E08D
:100BE000054E0C3635689D433560641C102CFFF4AF
:100BF00031AFBDE8F88F0000000401400000111083
:100C0000001002400000014000080140000C0140BB
:100C1000001001400014014000180140001C014078
:100C20008068084000D0012070470AB10161704718
:100C30000904FBE70148806870470000A800002015
:100C4000024881680278114481607047A800002042
:100C5000074810B5016841F010010160032000F061
:100C600073F8002000F006F800F024F8002010BD12
:100C70000020024070B50D4D04464FF47A7128787B
:100C8000B1FBF0F00A490968B1FBF0F000F009FB94
:100C900048B9102C07D200222146501E00F034F82B
:100CA00000206C6070BD012070BD0000A800002015
:100CB000B40000200C4808B5816941F00101816150
:100CC000816901F001010091C16941F08051C16168
:100CD000C06900F0805000900448416821F0E06154
:100CE00041F00071416008BD001002400000014069
:100CF00000F01F02012191404009800000F1E02036
:100D0000C0F8001170470000F0B40E4B1B680C4691
:100D1000C3F30223C3F10705042D00D90425191DCF
:100D2000072901D2002300E0DB1E012606FA05F1A7
:100D3000491E214099409E40761E16403143F0BC2A
:100D400000F084BD0CED00E0064900F007020868E1
:100D50004FF6FF03184040EA0220034A10430860A0
:100D6000704700000CED00E00000FA052DE9F047A7
:100D7000DFF8548105460E46D8F8000000F0070061
:100D8000B0420CD2D8F8001021F007013143C8F866
:100D90000010D8F8000000F00700B0426FD12868BA
:100DA0004A4C810712D5400703D5606840F4E060E3
:100DB00060602878000703D5606840F46050606088
:100DC0006068A96820F0F000084360602878C007D8
:100DD00044D06868012816D02168022816D08907F7
:100DE00000294CDA616821F0030101436160FFF7DB
:100DF00021FF6968074641F2883001290ED0022997
:100E0000814618D026E021688903E9E78901E7E7F0
:100E1000FFF710FFC11B494501D918E08146606802
:100E2000C0F381000128F3D118E000BFFFF702FFF3
:100E3000C11B49450BD86068C0F381000228F5D179
:100E40000CE000BFFFF7F6FEC11B494502D90320A5
:100E5000BDE8F087606810F00C0FF3D1D8F80010EF
:100E6000404601F00701B1420BD9016821F00701AA
:100E700031430160006800F00700B04201D001205A
:100E8000E6E72878400705D56068E96820F4E06067
:100E9000084360602878000706D56068296920F457
:100EA000605040EAC100606000F016F86168084ACE
:100EB000C1F30311515CC840064908600020FFF7E8
:100EC000D9FE0020C4E700000020024000100240CC
:100ED000A0310008B400002012A185B00FC98DE830
:100EE0000F0014A0144A006804905168134801F0E0
:100EF0000C03042B10D0082B0ED1C1F38343C9037C
:100F00001DF803000AD5516804AAC1F34041515CA1
:100F10000A4A5043B0FBF1F005B070470849484316
:100F2000FAE7000002030405060708090A0B0C0D86
:100F30000E0F1010010200000010024000127A0093
:100F400000093D002DE9F84F04460078B94DC0076F
:100F500048D06868C0F38100012807D06868C0F3F2
:100F60008100022809D16868C00306D5286880037B
:100F700038D5606800286FD034E06068B0F5803FF5
:100F80000BD010B1B0F5A02F11D0286820F480301C
:100F90002860286820F4802002E0286840F480302F
:100FA0002860606888B1FFF745FE064609E02868BA
:100FB00040F480202860F0E7FFF73CFE801B6428A7
:100FC00075D828688003F7D50CE0FFF733FE064696
:100FD00005E000BFFFF72EFE801B6428F0D82868CC
:100FE0008003F7D42078944E80074FF001094FF02A
:100FF00000083BD5686810F00C0F07D06868C0F394
:101000008100022809D16868C00306D428688007D7
:1010100014D5206901281FD110E02069B0B1C6F8AD
:101020000090FFF707FE074605E000BFFFF702FE4E
:10103000C01B0228C4D828688007F7D528686169D2
:1010400020F0F80040EAC10028600FE0C6F80080F8
:10105000FFF7F0FD074606E0E9E000BFFFF7EAFD15
:10106000C01B022823D828688007F7D420780007FF
:101070002CD57248A169D9B1C0F80090FFF7DAFD0C
:10108000074604E0FFF7D6FDC01B02280FD8686AA8
:101090008007F7D56A484FF4FA510068B0FBF1F0C9
:1010A000009000BF0098411E0091FAD20EE080E04F
:1010B000C0F80080FFF7BEFD074604E0FFF7BAFD69
:1010C000C01B022875D8686A8007F7D420784007CB
:1010D00060D5E8690027C00008D4E86940F0805076
:1010E000E861E869012700F08050009055480168E8
:1010F000C90513D40168834641F480710160FFF78C
:1011000099FD824606E000BFFFF794FDA0EB0A00C0
:1011100064284ED8DBF80000C005F5D5E06801284A
:101120000AD008B1052813D0286A20F001002862EF
:10113000286A20F0040002E0286A40F001002862DA
:10114000E06841F2883B98B1FFF774FD82460BE0FE
:10115000286A40F004002862EEE700BFFFF76AFD4E
:10116000A0EB0A0159455AD8286A8007F6D50CE049
:10117000FFF760FD824605E0FFF75CFDA0EB0A018A
:1011800059454CD8286A8007F6D41FB1E86920F089
:101190008050E861E06988B36968C1F38101022980
:1011A00045D00228C6F8608004D0FFF743FD04460E
:1011B00038E034E0FFF73EFD074604E0FFF73AFD74
:1011C000C01B02282BD828688001F7D4206AB0F50C
:1011D000803F05D16868A16820F40030084368604A
:1011E000D4E908010843696821F474110843686070
:1011F000C6F86090FFF71EFD044606E015E000BF4C
:10120000FFF718FD001B022809D828688001F7D5D0
:101210000BE000BFFFF70EFD001B022802D90320E0
:10122000BDE8F88F28688001F4D40020F8E7012099
:10123000F6E70000001002400000424280044242F3
:10124000B40000200070004070B515460E46040042
:1012500003D094F83D0010B107E0012070BD0020DC
:1012600084F83C00204600F01AF804F108012068D8
:10127000FFF720FB3146A2682068FFF767FBD4E93F
:1012800001022946236BFFF7F7FAA168206850F89E
:10129000212042F0010240F82120002070BDFFF71C
:1012A00089BB10B5401EB0F1807F01D3012010BD75
:1012B0004FF0E02460610F21601700F0C7FA0020B2
:1012C000A06107202061002010BDFEE7044B4FF411
:1012D000805108B1002200E001221846FFF7A5BCAA
:1012E0000014014070B51D461446049E00F00EF92E
:1012F00004FB05F03146BDE8704000F0E5B80000A1
:1013000070B5203AD4B21023082200F0FFF82C2048
:10131000C10608800C490D4B01EB041500204FF667
:10132000FF742A5C0021D60702D01F261E8000E031
:101330001C80491C5208C9B20829F4D3401CC0B211
:101340001028EED370BD0000B02B00080000026032
:1013500010B51446F02806D2B1F5A07F03D20123C0
:101360001A4600F0D3F82146BDE81040012000F0F5
:10137000ABB800002DE9FE4F161ACDE900104FF072
:1013800000085D1A47464FF0FF30002E02DD4FF097
:10139000010102E003D14FF000018B4602E08346D9
:1013A000C6F10006002D02DD4FF0010002E003D17E
:1013B0004FF00000824602E08246C5F10005AE42D1
:1013C00001DD344600E02C46601C4FF0000902901D
:1013D0001AE000BFDDE900100C9AFFF7B9FFB04436
:1013E0002F44A04505DD0198A8EB0408584480B2BD
:1013F0000190A74204DD00983F1B504480B200904A
:1014000009F101001FFA80F902998945E2DDBDE882
:10141000FE8F2DE9F847994687180D4604464FF090
:1014200000088BB2DDF824A0BAB289B280B2CDF840
:101430000080FFF79FFF05EB0906B3B2A2B2A9B285
:10144000A0B2CDF80080FFF795FFB3B2BAB2A9B24F
:10145000B8B2CDF80080FFF78DFFB3B2BAB2B1B227
:10146000A0B2CDF80080FFF785FFA9F10A0000EBDC
:10147000D07005EB600081B20A34A0B25246BDE8DC
:10148000F84700F001B80000F0B516460D460446D6
:101490004FF4A07714E000BF04F10800F02802D94F
:1014A00000241035ADB205F11000B84201D9002476
:1014B000254629462046FFF723FF0834A4B2761CB0
:1014C0003278002AE8D1F0BD10B500222C23DC06CA
:1014D0002380034B01E01980521C8242FBD310BDD4
:1014E0000000026008B50120FFF7F0FE00F0EAF806
:1014F00000F02CF84FF6FF70002100904FF4A0731D
:10150000F0220846FFF7EEFE08BD000070B54FF070
:10151000C0452A242C800C4C060A2680C6B22680A0
:101520001044401E020A2280C0B220802B20288056
:10153000080A2080C8B22080C818401E010A2180F5
:10154000C0B2208070BD00000000026000B54FF006
:10155000C041CF20088059480022028081220280A9
:1015600030220280ED220A8064220280032202805F
:101570001222028081220280E8220A8085220280D3
:101580001022028078220280CB220A803922028037
:101590002C22028000220280342202800222028059
:1015A000F7220A8020220280EA220A80002202809A
:1015B0000280B1220A80002202801B220280B62211
:1015C0000A800A220280A2220280C0220A803522DA
:1015D0000280C1220A8011220280C5220A8045228F
:1015E00002800280C7220A80A2220280F2220A80A0
:1015F0000022028026220A8001220280E0220A8044
:101600000F22028026220280242202800B220280E6
:101610000E2202800922028054220280A822028027
:10162000462202800C2202801722028009220280B8
:101630000F2202800722028000220280E1220A801B
:1016400000220280192202801B22028004220280D2
:1016500010220280072202802A2202804722028072
:101660003922028003220280062202800280302278
:101670000280382202800F22028036220A80C8228D
:1016800002802A220A800022028002800280EF2249
:1016900002802B220A800022028002800122028026
:1016A0003F2202803A220A805522028011200880BF
:1016B0000348FFF7D5F82920088000BD000002602C
:1016C000FCBF020070B50A4C002202212046FFF741
:1016D000ACFA084D2846FFF7C3F801220221204644
:1016E000FFF7A3FA2846BDE87040FFF7B9B800003D
:1016F00000180140FCBF020000B587B01C216846FD
:10170000FEF749FD15484FF02041102201601449B1
:10171000416000218160C160C0E904128161C16142
:1017200013020162C0E90913C1620163416381636D
:101730000F20FF230090CDE90103CDE90302112022
:10174000CDE90501002269460448FFF77DFD054803
:10175000C16941F48061C16107B000BDB8000020DB
:10176000040100A0000001402DE9F04385B00024F1
:1017700031480094019402940394816941F040013E
:101780008161816901F040010491816941F010019A
:101790008161816901F010010491816941F02001AA
:1017A0008161816901F020010491816941F00401A6
:1017B00081618069DFF8848000F0040004900022D9
:1017C00007214046FFF731FADFF874904FF4405795
:1017D000002239464846FFF728FA0720012503264C
:1017E000CDE90005CDE9024669464046FFF724F9F8
:1017F00008208DE8310069464046FFF71DF91020AA
:1018000000901048CDE9010569464046FFF714F9FC
:1018100000970396CDE9015469464846FFF70CF955
:10182000002211460A20FFF76FFA0A20FFF760FA3C
:1018300005B0BDE8F0830000001002400018014030
:101840000014014000001110FEE770470907090E5F
:10185000002806DA00F00F0000F1E02080F8141DE7
:10186000704700F1E02080F800147047704770471F
:10187000FFF7E6B930B58FB028216846FEF78BFC3C
:1018800014210AA8FEF787FC01210804CDE9001005
:101890000024029402250491CDE907504FF4E01092
:1018A00009906846FFF74EFB0F20CDE90A05680254
:1018B000CDE90C4002210AA80E94FFF757FA0FB0A9
:1018C00030BD00000D48016841F001010160416830
:1018D0000B4A1140416001680A4A114001600168E9
:1018E00021F480210160416821F4FE0141604FF440
:1018F0001F0181600449C003086070470010024066
:101900000000FFF8FFFFF6FE08ED00E0FEE701B57E
:10191000002004E00B21491EC9B2FCD2401C0099F2
:101920008842F7D308BD2DE9F84380460C460127CD
:10193000684600F06FF8E0B3BDF80200FEF716FE4F
:10194000D4E90223FEF731FD05460E46BDF800003E
:10195000FEF70CFED4E90023FEF727FD2A463346A6
:10196000FEF77CFCD4E90423FEF778FCFEF70BFEBF
:10197000A8F80000BDF80200FEF7F8FDD4E908233E
:10198000FEF713FD05460E46BDF80000FEF7EEFD1E
:10199000D4E90623FEF709FD2A463346FEF75EFC2E
:1019A000D4E90A23FEF75AFCFEF7EDFDA8F8020081
:1019B00001E0FFE700273846BDE8F88370B500F086
:1019C000C7F8134E00252A4604213046FFF72DF9AB
:1019D000012211463046FFF728F900240022012198
:1019E0003046FFF722F908213046FFF719F9C4F114
:1019F0000B018840284385B2012211463046FFF78B
:101A000014F9641CE4B20C2CE8D3284670BD000025
:101A1000001801402DE9F0418AB005460026282132
:101A20006846FEF7B8FBDFF820816C469020FFF790
:101A3000C5FF07460120FFF76AFFD020FFF7BEFF72
:101A400024F8167004EB4601761C8882F6B2102149
:101A50004046FFF7E5F808B90A2EE7D310214046C3
:101A6000FFF7DEF810B13949002008700A2E03D0C4
:101A700000200AB0BDE8F081BDF90010BDF91400E6
:101A80008C4662460346012634F916708F4201DA0D
:101A9000394602E0974200DD3A46761CF6B20A2E3D
:101AA000F2D3012604EB4607B7F914709F4201DA1E
:101AB0003B4602E0874200DD3846761CF6B20A2E2D
:101AC000F0D3BDF90240BDF90460BDF9067064446D
:101AD0003E443444BDF908603444BDF90A603444DE
:101AE000BDF90C603444BDF90E603444BDF910609A
:101AF0003444BDF912603444611A891AC908298036
:101B0000BDF91410BDF91620BDF91A401144BDF9F4
:101B1000182022441144BDF91C201144BDF91E2097
:101B20001144BDF920201144BDF922201144BDF912
:101B300024201144BDF926201144C91A081AC008EE
:101B40006880012095E70000001801407000002027
:101B500070B5174D0646002204212846FFF765F8A8
:101B6000002201212846FFF760F80024C4F1070095
:101B700026FA00F0C00701D0012200E00022042173
:101B80002846FFF752F80520FFF7C1FE0122114653
:101B90002846FFF74AF80520FFF7B9FE0022012189
:101BA0002846FFF742F8641CE4B2082CDED370BD6F
:101BB000001801400FB4084B10B504A902AA0398FD
:101BC00000F0DEF8044602A9002000F070FC204678
:101BD00010BC5DF814FB0000AF24000802E008C848
:101BE000121F08C1002AFAD170477047002001E097
:101BF00001C1121F002AFBD1704700002DE9FF5FD1
:101C000082B00021DDE90430020DDDF840B003436D
:101C100018D044F61050A2F2FF3242431514119826
:101C200001281FD0A5EB0B00401C5FEA000A4FF013
:101C300000064E4FDFF83891B046504615D5CAF130
:101C4000000413E0119801244AA3012801D16FEA8E
:101C50000B010298119AC0E90031C0E9024206B0B6
:101C6000BDE8F09FCBF10000DFE704460021404AC9
:101C7000491842EB0450CDE9001012E0E00707D00C
:101C800032463B4640464946FEF78FFB8046894632
:101C900032463B4610461946FEF787FB06460F467E
:101CA0006410002CEAD1DDE90401DDE90023BAF17A
:101CB000000F06DAFEF779FB42464B46FEF775FB4E
:101CC00005E0FEF7E4FB42464B46FEF7E0FB044628
:101CD0000E460022284BFEF797FD03D84FF0FF3049
:101CE000014607E00022254B20463146FEF7B6FAB2
:101CF000FEF771FD102409E0002C0ADB0A22002304
:101D0000FEF783FC039B30321A55641E50EA010231
:101D1000F2D1641C039AC4F111031444119A012AEC
:101D200003D0012208430DD10AE0084304D000206B
:101D30004FF0110B119072E7A3EB0B056D1E0DE038
:101D40005B4504DD4FF0000205F1010504E003DA14
:101D50004FF00002A5F10105002AECD0029811997C
:101D6000C0E90231C0E9004579E7000000001440F5
:101D70000000F03F300000000000F0430000E03FB2
:101D80002DE9FF4F95B09B468946064600250FE298
:101D9000252877D100242746F84A0121059400E040
:101DA000044316F8013F203B01FA03F01042F7D13B
:101DB00030782A2811D06FF02F033078A0F130024C
:101DC000092A16D8059A44F0020402EB820203EBBA
:101DD00042021044761C0590EFE759F8042B059257
:101DE000002A03DA504244F40054059044F00204FF
:101DF000761C30782E2816D116F8010F44F0040412
:101E00002A280DD06FF02F023078A0F13003092B73
:101E100009D807EB870302EB4303C718761CF3E7E7
:101E200059F8047B761C30786C280FD006DC4C28DF
:101E300017D068280DD06A2814D104E0742810D077
:101E40007A280FD10DE044F400140AE044F4801421
:101E500001E044F440147278824202D104F5801407
:101E6000761C761C307866280BD013DC582877D087
:101E700009DC002875D04528F6D04628F4D047283C
:101E80001AD19DE118E0632835D0642879D06528FF
:101E900012D195E1702873D008DC6728F1D0692849
:101EA0006FD06E280DD06F2806D1B5E073282CD0E6
:101EB000752875D0782874D05A46179990476D1CAC
:101EC00075E1C4F30250022809D003280DD0D9F8D7
:101ED000001004280DD00D6009F1040967E1D9F85C
:101EE0000010EA17C1E90052F6E7D9F800100D809A
:101EF000F2E70D70F0E719F8041B8DF800100020D0
:101F00008DF80100EA46012003E059F804AB4FF0D8
:101F1000FF3061074FF0000102D40DE008F101012C
:101F20008846B9420FDA8045F8DB1AF80810002914
:101F3000F4D108E008F1010188468142FADB1AF881
:101F400008100029F6D105985B46A0EB080721464A
:101F50003846179A00F094FA284400EB080507E089
:101F60004DE029E10DE01AF8010B5A461799904708
:101F7000B8F10108F7D25B4621463846179A13E1BB
:101F800042E00A220092C4F302524FF0000A022AF1
:101F900008D059F804CB032A4FEAEC710AD00DE0BF
:101FA00029E02AE009F1070121F00702F2E802C165
:101FB000914609E00FFA8CFC4FEAEC71042A03D138
:101FC0004FFA8CFC4FEAEC71002907DA0A4600212F
:101FD000DCF1000C61EB02012D2202E0220504D5A8
:101FE0002B228DF80420012203E0E20701D02022F9
:101FF000F7E7904659E00A2102E010220DE0102197
:102000004FF0000A00910BE010224FF0000A44F05C
:1020100004040827009203E008224FF0000A00920F
:10202000C4F30252022A05D059F804CB0021032A36
:1020300008D009E009F1070121F00702F2E802C126
:10204000914605E01FFA8CFC042A01D10CF0FF0C2C
:102050004FF00008220728D5702806D0009B83F097
:10206000100353EA0A0305D00EE040228DF8042045
:10207000012208E05CEA010206D030228DF804203B
:102080008DF8050002229046009B83F0080353EA76
:102090000A030AD15CEA010201D1620705D53022A8
:1020A0008DF804204FF001087F1E582804D034A07A
:1020B00003900EA802900DE036A0F9E75346604663
:1020C000009AFEF7A2FA84460398825C0298401EAA
:1020D000029002705CEA0100F0D1029806A9081A89
:1020E00000F1200A600702D524F4803400E00127C3
:1020F000574502DDA7EB0A0000E0002000EB0A01D3
:10210000009005984144401A0590E00306D45B46D0
:102110002146179A059800F0B3F90544002706E018
:1021200001A85A46C05D179990476D1C7F1C474512
:10213000F6DBE0030CD55B462146179A059800F0C4
:102140009FF9054404E030205A46179990476D1CCA
:102150000099481E00900029F5DC08E002980299D9
:102160005A460078491C0291179990476D1CBAF1A4
:102170000001AAF1010AF1DC65E100000928010073
:1021800030313233343536373839616263646566ED
:1021900000000000303132333435363738394142AF
:1021A000434445460000000000F058F90544761C01
:1021B000307800287FF4ECAD19B02846BDE8F08FE8
:1021C000620700D4062709F1070222F0070CFCE899
:1021D0000223E14603F000485FEA080C02D00FF248
:1021E000702C0DE05FEA045C02D50FF2682C07E06A
:1021F0005FEAC47C02D00FF2602C01E0AFF2700CF9
:102200004FF0FF3823F00043CDF850C065280CD0C4
:1022100006DC452809D046281DD047283DD13DE0A1
:10222000662818D067287ED138E00021112F01DB05
:10223000112000E0781CCDE9000106A90EA8FFF7E7
:10224000DDFCDDE90F010E9A03910021009207F1F8
:10225000010A04914DE04FF000400097CDE90110D4
:1022600006A90EA8FFF7CAFCDDE90F0203920E9B38
:1022700011990022DDF80CA00093049211B9791C89
:1022800000EB010AB7EB0A0004D4C0F1FF3007F1FC
:10229000010A0490AAEB0700019044E0012F00DA44
:1022A00001270021112F01DD112000E03846CDE982
:1022B000000106A90EA8FFF7A1FCDDE90F010E9AA7
:1022C0000391002104910092BA4621070CD403998E
:1022D000514500DA8A46BAF1010F05DD009AAAF1EC
:1022E0000101515C302908D0B84202DA10F1040F24
:1022F00006DA0121CDE9011015E0AAF10101E9E7B3
:10230000002805DC049901440491AAEB000102E0D5
:10231000411C514500DD8A460499401A401C019039
:102320004FF000400290200704D40198504501DB93
:10233000CDF8048000208DF84F0002980DF14F0772
:10234000B0F1004F25D02B200E9002984FF00208DC
:1023500000280CDA404202902D200E9007E00A215E
:102360000298FEF73CF93031029007F8011DB8F1F0
:102370000001A8F10108F2DC02980028EFD1791ED3
:102380000E980870307800F0200040F0450007F803
:10239000020D12A8C01B00F107081498007800B1C4
:1023A000012000EB0A01019801EBE071059841441E
:1023B000401A401E0590E00306D45B462146179A5A
:1023C000059800F05DF805441498007818B15A4655
:1023D000179990476D1CE00324D55B462146179A58
:1023E000059800F04DF805441CE00498002807DB30
:1023F000DDE90301884203DD0098405C179901E0A4
:10240000179930205A469047049805F10105401C61
:1024100004900198401E019004D12E205A4617992D
:1024200090476D1CBAF10001AAF1010ADDDC05E05C
:1024300017F8010B5A46179990476D1CB8F1000127
:10244000A8F10108F4DC5B462146179A0598ABE633
:102450002D0000002B000000200000002DE9F041BD
:10246000044600251E461746880404D405E0394674
:102470002020B0476D1C641EF9D52846BDE8F081C8
:102480002DE9F041044600251E469046C80301D5BB
:10249000302700E02027880404D505E0414638466F
:1024A000B0476D1C641EF9D52846BDE8F0810A6866
:1024B000531C0B601070704770B53F4C90B0206893
:1024C000FEF77AF802460B463CA101A8FFF772FB23
:1024D00032213DA20846FEF7D7FF40A000902823F6
:1024E000642296213220FEF794FF3FA0009028231B
:1024F0006422C8213220FEF78CFF3EA24FF4967171
:10250000AA20FEF7C1FF642101AA0846FEF7BCFF1E
:102510004FF07C564FF6FF7500F028F90028FBD0ED
:1025200025490EA81031FFF7FEF9BDF83A00A0F1D9
:102530003202642A1ED8BDF83810822906D3AA298F
:1025400004D831462068FDF783FE09E0642A11D8DB
:1025500050290FD378290DD831462068FDF726FE83
:102560002060FEF729F802460B4624A101A8FFF7D8
:1025700021FB0FE0B438462803D8BDF838003228D4
:1025800018D921A264211420FEF77EFF4FF47A703F
:10259000FEF7FEF93223F02264210A200095FEF7AF
:1025A000A1FE642101AA0846FEF76EFF6420FEF733
:1025B000EFF9B1E710B070BD0000002025302E31DA
:1025C0006620686F75720000496E707574207769B7
:1025D0006E64696E6720686F757200002D20312F60
:1025E0003220686F757200002B20312F3220686F07
:1025F000757200004E657874203E3E0025302E3105
:102600006609686F75720000506C656173652073B0
:10261000656C6563742076616C696420696E7075A1
:10262000742E000030B5384C8FB038A101A8626814
:10263000FFF7C0FA322136A20846FEF725FF3AA07E
:1026400096220090282311463220FEF7E2FE3AA09F
:10265000009028239622C8213220FEF7DAFE3AA203
:102660004FF49671AA20FEF70FFF642101AA0846D5
:10267000FEF70AFF4FF6FF7500F078F80028FBD050
:1026800021490EA81031FFF74EF9BDF83A00A0F12C
:102690003202962A16D8BDF83810822904D3AA2906
:1026A00002D86268643A07E0962A0BD8502909D309
:1026B000782907D86268643214A101A86260FFF724
:1026C00079FA0FE0B438462803D8BDF8380032282C
:1026D00018D91FA264211420FEF7D6FE4FF47A7099
:1026E000FEF756F93223F02264210A200095FEF706
:1026F000F9FD642101AA0846FEF7C6FE6420FEF734
:1027000047F9B9E70FB030BD000000202564000094
:10271000496E70757420726F746174696F6E206E8B
:10272000756D6265720000002D2031303020726FAF
:10273000746174696F6E00002B2031303020726F2D
:10274000746174696F6E00004E657874203E3E00BF
:10275000506C656173652073656C65637420766188
:102760006C696420696E7075742E000070B5084D38
:1027700010212846FEF754FA38B100240122102116
:102780002846FEF752FA204670BD0124F6E7000005
:10279000001801401CB5FEF75BFAFFF76BF8FEF777
:1027A000E3FFFEF7A9FF00224FF400513B48FEF77C
:1027B0003CFAFEF797FE3AA232211E20FEF764FE95
:1027C0003DA000903223462296211E20FEF721FED6
:1027D0003AA000903223462296218220FEF719FE6D
:1027E0004FF6FF744FF4A075FFF7C0FF0028FBD031
:1027F000334901A8FFF797F8BDF80600A0F11E01C4
:1028000046290CD8BDF80410AA2908D8782906D37F
:102810002B481038C0E90266C0E900672AE0823818
:102820004628E1D8BDF80400AA28DDD87828DBD3F3
:10283000FFF79CFF0028D7D000212B46F022084646
:102840000094FEF74FFD00F03DF8E0B10128CBD138
:1028500000212B46F02208460094FEF743FDFFF7C7
:10286000E1FE00212B46F02208460094FEF73AFDD7
:10287000FFF722FE00212B46F02208460094FEF7C7
:1028800031FD00F025F900212B46F0220846009486
:10289000FEF728FD00F092F8ECE70000001401407C
:1028A000436F6E74696E75652070726576696F75B9
:1028B00073207461736B3F00596573004E6F0000A5
:1028C0001000002000B532218FB027A20846FEF785
:1028D000DBFD2AA096220090282311463220FEF725
:1028E00098FD2BA0009028239622C8213220FEF7C5
:1028F00090FD4FF4967034E0FFF738FF0028FBD0CE
:10290000274901A8FFF70FF8BDF806100B4632392A
:10291000962910D8BDF80400822804D3AA2802D82A
:1029200000200FB000BD962905D8502803D3782881
:1029300001D80120F5E7BDF804201AA102A8FFF78D
:1029400039F94FF6FF7032220090C8231146104625
:10295000FEF7C8FC02AA64213220FEF795FD4FF471
:10296000FA70FEF715F8C7E753656C656374206964
:102970006E70757420747970650000005072656423
:102980006566696E6564206D6F64656C00000000AB
:102990004D616E75616C20696E7075740000000089
:1029A00010000020496E76616C696420783A202519
:1029B000642C20793A202564000000002DE9F041C4
:1029C000DFF8B08090B02CA101A8D8F80420FFF760
:1029D000F1F8322129A20846FEF756FD6425282683
:1029E000002408F1400700BF57F8240004FB0651FB
:1029F00000903346AA221E20FEF70BFD641C052C16
:102A0000F2DB00BFFFF7B2FE0028FBD019490EA889
:102A10001031FEF788FFBDF83A001E38AA28F1D819
:102A2000BDF838002821C0F5A070401B90FBF1F4E0
:102A30004FF6FF7000904FF48773C82232210A20AE
:102A4000FEF750FC322112A20846FEF71DFD57F892
:102A5000242064211E20FEF717FD0648543050F84C
:102A600024104FF47A70C8F80410FDF791FF10B0ED
:102A7000BDE8F081000000202564000053656C650E
:102A80006374207761746368206D6F64656C000007
:102A90004D6F64656C2073656C65637465640000DC
:102AA00008B54FF6FF70C823322100901A46084639
:102AB000FEF718FC3221BDE8084002A20846FEF7E6
:102AC000E3BC0000526F746174696E672E2E2E0095
:102AD0009CB0244C24A101A86268FFF76BF8206821
:102AE000FDF76AFD02460B4625A10EA8FFF762F826
:102AF00001AA32210A20FEF7C7FC0EAA64210A208F
:102B0000FEF7C2FC26A000903223642296214620C4
:102B1000FEF77FFC24A24FF496711420FEF7B4FC5C
:102B20004FF6FF744FF4A075FFF720FE0028FBD08E
:102B30000C491BA81031FEF7F6FEBDF86E003238C6
:102B40009628F1D8BDF86C008228EDD3AA28EBD8DE
:102B500000212B46F02208460094FEF7C3FBFFF746
:102B60009FFFE1E7000000204E756D626572206FE7
:102B70006620726F746174696F6E3A20256400007C
:102B800057696E64696E67206475726174696F6EEF
:102B90003A2025302E316620686F757200000000E3
:102BA00053746172740000003C3C204261636B000E
:102BB0000000000000000000000000000000000015
:102BC000000000183C3C3C181800181800000000D9
:102BD00000000066666600000000000000000000C3
:102BE0000000006C6CFE6C6C6CFE6C6C00000000F5
:102BF0000018183C66060C183060663C1818000077
:102C000000000E1B5B6E30180C76DAD870000000E6
:102C10000000001C36361C06F66666DC000000006C
:102C2000000000181818000000000000000000005C
:102C30000000003018180C0C0C0C0C181830000098
:102C40000000000C1818303030303018180C00001C
:102C500000000000006C38FE386C0000000000002E
:102C6000000000000018187E181800000000000086
:102C7000000000000000000000003838301800009C
:102C8000000000000000007E0000000000000000C6
:102C900000000000000000000000383800000000C4
:102CA0000000006060303018180C0C0606000000B0
:102CB00000000078CCECECCCDCDCCC780000000030
:102CC00000000030383E303030303030000000003E
:102CD0000000003C66666030180C067E00000000B4
:102CE0000000003C666660386066663C00000000DC
:102CF0000000000C0C6C6C6C66FE60600000000054
:102D00000000007E0606063E6060301E00000000E7
:102D100000000038180C3E666666663C0000000045
:102D20000000007E60303018180C0C0C0000000011
:102D30000000003C66666E3C7666663C0000000063
:102D40000000003C666666667C30181C00000000CF
:102D50000000000000383800000038380000000093
:102D6000000000000038380000003838301800003B
:102D70000000006030180C060C18306000000000E5
:102D80000000000000007E007E0000000000000047
:102D9000000000060C18306030180C06000000001F
:102DA0000000003C6666301818001818000000008B
:102DB0000000007EC3C3F3DBDBF303FE0000000072
:102DC000000000183C6666667E66666600000000CD
:102DD0000000003E6666663E6666663E00000000D5
:102DE0000000003C666606060666663C00000000C1
:102DF0000000001E366666666666361E000000002D
:102E00000000007E0606063E0606067E0000000064
:102E10000000007E0606063E0606060600000000CC
:102E20000000003C666606067666667C00000000D0
:102E3000000000666666667E6666666600000000E4
:102E40000000003C181818181818183C0000000062
:102E500000000060606060606066663C000000002A
:102E6000000000666636361E3636666600000000D4
:102E700000000006060606060606067E00000000A4
:102E8000000000C6C6EED6D6D6C6C6C600000000F4
:102E9000000000C6C6CEDEF6E6C6C6C600000000CC
:102EA0000000003C666666666666663C00000000E0
:102EB0000000003E6666663E06060606000000004C
:102EC0000000003C666666666666663C3060000030
:102ED0000000003E6666663E3666666600000000DC
:102EE0000000003C66060C183060663C00000000E4
:102EF0000000007E18181818181818180000000094
:102F000000000066666666666666663C0000000055
:102F1000000000666666666666663C180000000093
:102F2000000000C6C6C6D6D6D66C6C6C0000000089
:102F300000000066662C1818346666660000000003
:102F4000000000666666663C18181818000000004D
:102F50000000007E606030180C06067E0000000055
:102F60000000003C0C0C0C0C0C0C0C0C0C0C3C0071
:102F700000000006060C0C181830306060000000DD
:102F80000000003C303030303030303030303C00E9
:102F900000183C6600000000000000000000000077
:102FA0000000000000000000000000000000FF0022
:102FB000001C1830000000000000000000000000AD
:102FC00000000000003C60607C66667C0000000041
:102FD00000000006063E66666666663E000000006B
:102FE00000000000003C66060606663C000000008B
:102FF00000000060607C66666666667C000000001B
:1030000000000000003C66667E06063C00000000F2
:10301000000000780C0C0C7E0C0C0C0C0000000066
:1030200000000000007C66666666667C60603E00AC
:1030300000000006063E66666666666600000000E2
:1030400000001818001E18181818187E000000003C
:1030500000003030003C30303030303030301E0036
:1030600000000006066666361E3666660000000032
:103070000000001E181818181818187E000000000C
:1030800000000000007ED6D6D6D6D6C600000000CE
:1030900000000000003E666666666666000000008E
:1030A00000000000003C66666666663C00000000AA
:1030B00000000000003E66666666663E0606060084
:1030C00000000000007C66666666667C60606000EA
:1030D000000000000066760E0606060600000000EE
:1030E00000000000007C06063C60603E000000001E
:1030F0000000000C0C7E0C0C0C0C0C780000000086
:1031000000000000006666666666667C00000000DF
:10311000000000000066666666663C18000000005D
:103120000000000000C6D6D6D6D66C6C00000000A9
:10313000000000000066663C183C66660000000067
:1031400000000000006666666666663C30180F0088
:1031500000000000007E6030180C067E00000000B9
:10316000000000301818180C060C18181830000051
:10317000000000181818181818181818181818002F
:103180000000000C1818183060301818180C0000D7
:103190000000008EDB710000000000000000000055
:1031A00000000000000000000102030406070809F7
:1031B0004855424C4F5420313931350043484F5027
:1031C000415244204C554320313933370000000030
:1031D000524F4C45582043656C6C696E6900000085
:1031E00050494147455420416C7469706C616E6F61
:1031F00000000000434152544945522053616E740F
:103200006F7300002432000800000020B8000000A6
:10321000DC1B0008DC320008B80000204804000075
:10322000EC1B00080000000000000000000000008F
:1032300000000000925ED4EE5701B63F2BA226FAA2
:103240007C9451BF3CF54883DBEA13C079E9263111
:1032500008AC5CBF08E8BE9CD9AEB03F1C5C3AE647
:103260003CA32AC0F4310008BC310008B03100088A
:10327000E0310008D0310008BC020000200300004B
:103280008A0200003C0500008A02000000000000E5
:10329000000000000000000000000000925ED4EE7C
:1032A0005701B63F2BA226FA7C9451BF3CF54883C8
:1032B000DBEA13C079E9263108AC5CBF08E8BE9CA4
:1032C000D9AEB03F1C5C3AE63CA32AC00100000026
:0C32D000100000000000000000A24A04F2
:0400000508000131BD
:00000001FF
