:020000040800F2
:10000000B8040020450100081F260008251B000831
:100010001D26000811080008E52600080000000061
:100020000000000000000000000000004926000859
:100030001308000800000000212600084B260008D5
:100040005F0100085F0100085F0100085F01000810
:100050005F0100085F010008250800085F01000833
:100060005F0100085F0100085F0100085F010008F0
:100070005F0100085F0100085F0100085F010008E0
:100080005F0100085F0100085F0100085F010008D0
:100090005F0100085F0100085F0100085F010008C0
:1000A0005F0100085F0100085F0100085F010008B0
:1000B0005F0100085F0100085F0100085F010008A0
:1000C0005F0100085F0100085F0100085F01000890
:1000D0005F0100085F0100085F0100085F01000880
:1000E0005F0100085F0100085F0100085F01000870
:1000F0005F0100085F0100085F0100085F01000860
:100100005F0100085F0100085F0100085F0100084F
:100110005F0100085F0100085F0100085F0100083F
:100120005F0100085F0100085F0100085F0100082F
:10013000DFF80CD000F0DCFA004800472933000853
:10014000B80400200648804706480047FEE7FEE75F
:10015000FEE7FEE7FEE7FEE7FEE7FEE7FEE7FEE777
:100160009D26000831010008202A04DB203A21FAEC
:1001700002F00021704721FA02F3D040C2F12002C0
:100180009140084319467047D2B201E000F8012BB4
:10019000491EFBD270470022F6E710B513460A4607
:1001A00004461946FFF7F0FF204610BDF0B480EA80
:1001B0000102D40F4200B2EB410F02D202460846C0
:1001C00011464A0042D0C30DDDB2C1F3C752AD1A89
:1001D000202D35DAC1F3160141F4000204B1524278
:1001E000C5F1200602FA06F12A411044B3EBD05FB4
:1001F00023D0C4B1012DA0EBC35009DCF0BC4FF0FB
:10020000004202EAC352DBB200F5000000F089B8F8
:10021000400000F1807000EBC350A0F1807040EA14
:10022000D170490009E0490841EAC071A0EBC35010
:1002300000F50000400800EBC350F0BC00F068B8C7
:100240006142012202EB4101001BF6E7F0BC70475E
:1002500081F00041AAE780F00040A7E700F00042EB
:1002600030F000400AD0C10D01F56071C0F31600F6
:1002700042EA0151C208400711437047002001467D
:10028000704730B50B46014600202022012409E0CA
:1002900021FA02F59D4205D303FA02F5491B04FA3F
:1002A00002F52844151EA2F10102F1DC30BD2DE952
:1002B000F05F0546002092469B46884606468146EA
:1002C00040241BE02846414647462246FFF74CFFA4
:1002D00053465A46C01A914110D311461846224639
:1002E00000F018FA2D1A67EB01084F46224601204C
:1002F000002100F00FFA17EB00094E41201EA4F177
:100300000104DFDC484631462A464346BDE8F09FFB
:100310000029A8BF7047401C490008BF20F0010019
:10032000704710B4B0FA80FC00FA0CF050EA0104F7
:1003300004BF10BC704749B1CCF1200421FA04F489
:1003400011FA0CF118BF012121430843A3EB0C0162
:10035000CB1D4FEA00614FEA102042BF002010BCC5
:10036000704700EBC35010440029A4BF10BC704775
:10037000401C490008BF20F0010010BC70472DE967
:10038000FE4F804681EA0300C00F0C46009021F02A
:10039000004123F00045B8EB0200A94105D24046D8
:1003A000214690461C460B46024623F0004010436F
:1003B00047D0270DC7F30A00C3F30A510290401A31
:1003C000019040286BDAC3F3130040F4801B0098BF
:1003D000924620B10023D2EB030A63EB0B0B01988A
:1003E0005946C0F14002504600F094F906460D46C9
:1003F00050465946019A00F09CF910EB0800614103
:10040000002487EA115284EAE7731A4340D0009A25
:1004100062B3019A012A4FEA075215DC001B61EB17
:1004200002014FF0004202EA0752CDE90042001CEF
:1004300041F5801132462B4600F09CF903B0BDE82F
:10044000F08F40462146F9E7001B61EB0201001CDA
:1004500041F5801300185B412018A2F5001747EB07
:10046000030140EAD570B6196D4111E06D084FEAFD
:10047000360645EAC0754FEA0752001B61EB0201E0
:10048000001C41F5801149084FEA30000019514124
:1004900032462B4603B0BDE8F04F00F05CB900983F
:1004A000012240000023D0EB020263EBE0730098CE
:1004B00021464FEAE074B8EB000061EB0401E9E784
:1004C00083F000435BE781F0004158E72DE9FE4FE0
:1004D00081EA030404F0004421F0004100944FF04D
:1004E000000B23F0004350EA01045ED052EA0304FB
:1004F0005BD0C3F30A54C1F30A552C44A4F2F3347D
:100500000194A0FB0254C1F3130141F48011C3F321
:10051000130343F4801301FB024400FB034E840ADF
:10052000970A44EA815447EA8357A4FB0768029577
:100530008D0A05FB07854FEA932C04FB0C54270515
:10054000029D4FEA065847EA1637B5EB08056EEBF1
:10055000070C870E920E47EA811742EA8312A7FB27
:100560000201B6EB0B0164EB00042B0D43EA0C33E4
:100570005E1844EB1C50DA465146E7FB0201C5F316
:1005800013044FEA0B3343EA14534FEA0432019C3D
:1005900043EA0603A4F10C040294009CCDE900B4E4
:1005A00000F0E8F803B0BDE8F08F00200146F9E75D
:1005B0002DE9F04D81EA030404F0004B21F00045E1
:1005C00014464FF0000A23F0004150EA050220D003
:1005D00054EA01021DD0C5F30A570246C5F31303BE
:1005E000C1F31300C1F30A5640F4801543F480139D
:1005F000A7EB0608101BD64608F2FD3873EB050082
:1006000002D308F1010801E092185B41B8F1000F34
:1006100003DA00200146BDE8F08D00204FF4801180
:10062000064684460EE0171B73EB050705D3121B25
:1006300063EB050306434CEA010C49084FEA30001E
:1006400092185B4150EA0107EDD152EA030012D043
:1006500082EA040083EA0501084305D0101BAB4180
:1006600006D20122002306E000224FF0004302E000
:100670006FF0010253101AEB06004CEB085110EB1F
:100680000A0041EB0B01BDE8F04D00F064B8C1F386
:100690000A52C1F3130140F2FF3341F480119A4230
:1006A00002DA00200146704740F233439A42A2F238
:1006B000334202DC5242FFF757BD00F02BB8000076
:1006C00030B5041E71F1000404DB4FF000444042D9
:1006D00064EB0101141E73F1000405DB1C464FF0AE
:1006E0000043524263EB0403994208BF904230BD7D
:1006F000064C074D06E0E06840F0010394E807006F
:1007000098471034AC42F6D3FFF716FDAC3D000815
:10071000CC3D0008202A04DB203A00FA02F1002038
:1007200070479140C2F1200320FA03F3194390402F
:100730007047202A06DBCB17203A41FA02F043EA41
:10074000E07306E041FA02F3D040C2F1200291408A
:1007500008431946704710B5141E73F1000408DAF7
:10076000401C41F1000192185B411A4301D120F075
:10077000010010BD2DE9F04D92469B4611B1B1FA32
:1007800081F202E0B0FA80F220329046FFF7C2FF19
:1007900004460F4640EA0A0041EA0B0153465A4616
:1007A000084313D0114653EA010019D0C8F14002A2
:1007B0005046FFF7D9FC05460E465046594642467C
:1007C000FFF7A8FF084305D0012004E02046394682
:1007D000BDE8F08D0020054346EAE0762C43374320
:1007E0000A986305E40AA0EB08000022FD0A44EA27
:1007F00047540A3002D500200146E9E701051019E7
:100800006941DDE9084500196941BDE8F04DA2E7FD
:10081000FEE7704701B5009801E0401E00900028F7
:10082000FBD108BD012000F015B9000010B4B3F5EC
:10083000804F06D06FF0704140F8221010BC0020AD
:100840007047D1F818C00B688C6843EA0C03D1F8E4
:1008500004C089894FEA0C1C4CEA042C43EA0C03BF
:1008600043EA014150F82230DFF80CC003EA0C03E0
:10087000194340F82210E1E70000F0CF10B40A68F5
:1008800050F8223023F0010340F822308A68374BB9
:10089000082A35D0D1F804C00C694CEA0202D1F81C
:1008A0000CC04CEA040C42EA0C02D1F814C042EA33
:1008B0000C02D1F818C042EA0C02D1F81CC042EA7E
:1008C0000C02D1F820C042EA0C02D1F824C042EA5E
:1008D0000C02D1F828C042EA0C02D1F82CC042EA3E
:1008E0000C02D1F830C0096842EA0C0250F821C06D
:1008F0000CEA03031A4340F8212010BC0020704783
:100900004A68D1F80CC00C6942F008024CEA040CA9
:1009100042EA0C02D1F814C042EA0C02D1F818C025
:1009200042EA0C02D1F81CC042EA0C02D1F820C005
:1009300042EA0C02D1F824C042EA0C02D1F828C0E5
:1009400042EA0C02D1F82CC042EA0C02D1F830C0C5
:10095000096842EA0C0250F821C00CEA03031A436A
:1009600042F0400240F82120C7E700008100F7FF75
:1009700010B4D1F804C00B688C8943EA0C13D1F889
:1009800008C04FEA0C2C4CEA044C43EA0C03B1F8C3
:1009900010C0ACF1010C43EA0C5391F814C0896902
:1009A000ACF1020C43EA0C630B43511C50F82120BC
:1009B00002F040421A4340F82120002010BC70474A
:1009C00070B5044600F066F90546B4F1FF3F02D069
:1009D00004480078044400F05DF9401BA042FAD3BB
:1009E00070BD00001400002030B585B000200090DC
:1009F0000190029003901248016800291ED1012144
:100A000001601048416941F48071416140690224EC
:100A100000F4807004904FF68070CDE90004032547
:100A200069460395084800F021F84CF6B370CDE90B
:100A3000000469460395054800F018F805B030BD7C
:100A4000080000200010024000180140001401407E
:100A50007047000010B504490A68024202D00860DD
:100A6000FFF7F6FF10BD0000140401402DE9F84F18
:100A700000239C46DFF8F4810F2708F1040909F1EF
:100A8000040A0AF1040B012202FA0CF60A68324049
:100A9000B2427CD1DFF8D8E14C68A4EB0E05744576
:100AA0002BD00DDC032C34D005DC34B3012C19D051
:100AB000022C2FD11BE0112C16D0122C2AD119E0B8
:100AC000B5F5881F19D006DCB5F5803F15D0B5F512
:100AD000801F1FD111E0B5F5001F0ED0B5F5041F22
:100AE00018D10AE0CB6815E0CB681B1D12E0CB687B
:100AF00008330FE0CB680C330CE08B6823B1012B7B
:100B000004D00823466105E0042303E008230661BE
:100B100000E00023B2F5807F01D2054601E000F13C
:100B2000040502D24FEA8C0403E0ACF108044FEA5A
:100B300084042E6807FA04FE26EA0E0603FA04F47B
:100B400046EA04042C604C6814F0805F1FD0494CC6
:100B5000A56945F00105A561A46904F001040094AC
:100B60002CF0030404F1804404F58034A6684FEAB5
:100B70008C754FEA157507FA05FE26EA0E0EA0F1F0
:100B80008046B6F584362AD0A0F1804600E065E0C4
:100B9000B6F5863625D0A0F18046B6F5883622D047
:100BA000A0F18046B6F58A361FD0A0F18046B6F592
:100BB0008C361CD0A0F18046B6F58E3619D00626AC
:100BC00006FA05F545EA0E05A5604C6814F4803F69
:100BD00011D0D8F800401443C8F8004010E00026B7
:100BE000EEE70126ECE70226EAE70326E8E704261B
:100BF000E6E70526E4E7D8F800409443C8F800404B
:100C00004C6814F4003F05D0D9F800401443C9F8EB
:100C1000004004E0D9F800409443C9F800404C6813
:100C200014F4801F05D0DAF800401443CAF80040DD
:100C300004E0DAF800409443CAF800404C6814F429
:100C4000001F05D0DBF800402243CBF8002005E070
:100C5000DBF8004024EA0202CBF800200CF1010C82
:100C6000BCF1100FFFF40FAFBDE8F88F0004014096
:100C700000001110001002408068084201D00120DD
:100C8000704700207047002A01D0016170470904B5
:100C9000016170470148806870470000140000201F
:100CA00070B50446002C04D094F83D00002510B126
:100CB00006E0012070BD84F83C50204600F0E4FAC4
:100CC000242084F83D002068016821F001010160C2
:100CD00000F09AFC434A6168914203D84249884235
:100CE00003D304E04149884201D2012070BD40494C
:100CF000B0FBF1F1236859606368934201D8491C45
:100D000007E04FF4967359434FF47A73B1FBF3F154
:100D1000491C236819626168914210D84900401E3D
:100D2000B0FBF1F2521CC2F30B02042A01D20420E0
:100D300024E0B0FBF1F0401CC0F30B001EE0A26801
:100D4000DAB301EBC10303EB0113A0F1010CBCFB0F
:100D5000F3F35B1C43F480431B051B0D37D06AB3D0
:100D600001EBC10202EB0111401EB0FBF1F0401C8F
:100D7000C0F30B0040F4804040F400402168C8619B
:100D8000216AE069084321680860E1682069084336
:100D900021688860A169606908432168C86020688B
:100DA000016841F0010101602564202084F83D00C4
:100DB000256384F83E50002070BD00E009E001EB9F
:100DC0004103A0F1010CBCFBF3F35B1CC4E7012061
:100DD000D4E701EB4101401EB0FBF1F0401CC0F331
:100DE0000B00C9E7A086010080841E0000093D00B9
:100DF00040420F002DE9FF4F83B004468A469346D8
:100E0000DDF84490DDF84080129FFFF743FF054670
:100E100094F83D00202803D007B00220BDE8F08FF1
:100E200019230122B1492046009500F0D7FF18B1DF
:100E300007B00220BDE8F08F94F83C00012808D0EC
:100E4000012084F83C002068016811F0010F04D0F3
:100E500007E007B00220BDE8F08F016841F0010112
:100E600001602068016821F400610160222084F89B
:100E70003D00402084F83E0000262664C4F824800B
:100E8000A4F82A909A48E062608D20850195009729
:100E90005A4651462046069B00F05AFE70B1206C1F
:100EA000042805D084F83C6007B00320BDE8F08F2B
:100EB00084F83C6007B00120BDE8F08F208D38B386
:100EC00001282ED002283CD02068016841F48061BE
:100ED00001602068416980690290208D002800F03F
:100EE000F980DFF81082208D032800F2C2800128EB
:100EF00037D0022853D03B46002241462046009579
:100F000000F06CFF002877D007B00320BDE8F08F19
:100F10002068416981690291016841F400710160B2
:100F2000DBE72068016821F48061016072B6206807
:100F3000416981690291016841F40071016062B602
:100F4000CBE72068016841F40061016072B6206857
:100F5000416981690291016821F48061016062B692
:100F6000BBE72A463946204600F0EFFF50B1206C1F
:100F7000202803D007B00120BDE8F08F07B0032080
:100F8000BDE8F08F20680169606A421C62620170EE
:100F9000208D401E2085608D401E608596E03B467A
:100FA000002241462046009500F018FF18B107B016
:100FB0000320BDE8F08F72B62068016841F400712B
:100FC000016020680169606A421C62620170208DC4
:100FD000401E2085608D401E608562B620680169D4
:100FE000606A421C62620170208D401E2085608D07
:100FF000401E60856AE0FFE72068016821F4806197
:10100000016072B620680169606A421C6262017008
:10101000208D401E2085608D401E60853B4600224D
:1010200041462046009500F0D9FE18B107B00320D4
:10103000BDE8F08F2068016841F40071016020680C
:101040000169606A421C62620170208D401E208529
:10105000608D401E608562B620680169606A421C2E
:1010600062620170208D401E2085608D401E60856B
:101070002CE02A463946204600F067FF50B1206C2C
:10108000202803D007B00120BDE8F08F07B003206F
:10109000BDE8F08F20680169606A421C62620170DD
:1010A000208D401E2085608D401E6085206841692E
:1010B00011F0040F0AD00169606A421C626201707B
:1010C000208D401E2085608D401E6085208D00286B
:1010D0007FF409AF202084F83D0084F83E6084F856
:1010E0003C6007B00020BDE8F08F00000200100057
:1010F0000000FFFF040001002DE9FF4F83B004460C
:101100008A469346DDF84490DDF84080129FFFF751
:10111000C1FD064694F83D00202803D007B0022008
:10112000BDE8F08F1923012255492046009600F0B2
:1011300055FE18B107B00220BDE8F08F94F83C00CE
:10114000012808D0012084F83C002068016811F0D3
:10115000010F04D007E007B00220BDE8F08F01685E
:1011600041F0010101602068016821F40061016023
:10117000212084F83D00402084F83E0000252564AD
:10118000C4F82480A4F82A903E48E062608D20854F
:10119000019600975A4651462046069B00F086FD70
:1011A00070B1206C042805D084F83C5007B00320AF
:1011B000BDE8F08F84F83C5007B00120BDE8F08F07
:1011C000208DB0B332463946204600F0F6FE78B1A5
:1011D000206C042803D007B00320BDE8F08F2068FE
:1011E000016841F40071016007B00120BDE8F08F93
:1011F000606A411C6162216800780861208D401E90
:1012000083B22385608D401E60852068416911F09E
:10121000040F0BD053B1636A591C616219780161E4
:10122000208D401E2085608D401E6085208D002809
:10123000C8D132463946204600F0A4FD78B1206C72
:10124000042803D007B00320BDE8F08F20680168B0
:1012500041F40071016007B00120BDE8F08F206803
:10126000016841F400710160202084F83D0084F899
:101270003E5084F83C5007B00020BDE8F08F0000DD
:10128000020010000000FFFF00B585B000210091B2
:101290000191029103910068104988421BD11048C6
:1012A000C16941F48001C161C16901F48001049107
:1012B000816941F0080181618069694600F0080098
:1012C00004904FF44060009012200190032003909E
:1012D0000448FFF7CBFB05B000BD000000580040FC
:1012E00000100240000C014002488168027811445D
:1012F000816070471400002010B50748016841F074
:1013000010010160032000F089F8002000F006F8C9
:1013100000F026F8002010BD0020024070B5044601
:101320000D4D4FF47A712878B1FBF0F00B49096844
:10133000B1FBF0F000F0E2FB08B1012070BD102C11
:1013400007D200222146501E00F034F86C600020C5
:1013500070BD012070BD00001400002010000020AE
:101360000C4808B5816941F001018161816901F092
:1013700001010091C16941F08051C161C06900F073
:10138000805000900448416821F0E06141F0007114
:10139000416008BD001002400000014000F01F0144
:1013A000012202FA01F14009800000F1E020C0F8BA
:1013B0000011704710B4184B1B68C3F30223C3F12C
:1013C000070CBCF1040F01D94FF0040C1C1D072CB5
:1013D00001D2002300E0DB1E012404FA0CFCACF176
:1013E000010C0CEA0101994004FA03F35B1E1A4058
:1013F0001143002808DA00F00F0000F1E020090195
:1014000080F8141D10BC704700F1E020090180F83D
:10141000001410BC704700000CED00E000F0070065
:10142000064A11684FF6FF03194041EA002040F0D8
:10143000FD7040F080601060704700000CED00E02F
:101440002DE9F04704460D46DFF8A081D8F80000EA
:1014500000F00700A8420FD2D8F8000020F00700E3
:101460002843C8F80000D8F8000000F00700A842A0
:1014700002D00120BDE8F08720685D4F10F0020F18
:1014800014D010F0040F03D0786840F4E060786066
:10149000207810F0080F03D0786840F4605078602E
:1014A0007868A16820F0F00008437860207810F098
:1014B000010F5FD06068012806D002280BD0396880
:1014C00011F0020F29D00AE0396811F4003F06D16B
:1014D0000120BDE8F087396811F0007F1AD07968E3
:1014E00021F0030108437860FFF7D4FB06466068EB
:1014F00041F28839012813D0022824D0786810F0EE
:101500000C0F37D0FFF7C6FB801B48452ED90320B0
:10151000BDE8F0870120BDE8F0870120BDE8F08735
:10152000786800F00C00042824D0FFF7B3FB801B80
:10153000484502D90320BDE8F087786800F00C0028
:101540000428F2D116E0786800F00C00082811D0C9
:10155000FFF7A0FB801B484502D90320BDE8F087B8
:10156000786800F00C000828F2D103E0786810F0E9
:101570000C0FC7D1D8F8000000F00700A8420FD91F
:10158000D8F8000020F007002843C8F80000D8F879
:10159000000000F00700A84202D00120BDE8F0875B
:1015A000207810F0040F05D07868E16820F4E0603E
:1015B00008437860207810F0080F06D07868216919
:1015C00020F4605040EAC100786000F02DF879689E
:1015D000084AC1F30311515CC84007490860002064
:1015E000FFF79CFE0020BDE8F087000000200240CD
:1015F00000100240943D00081000002001480068DF
:10160000704700001000002000B5FFF7F7FF044905
:101610004968044AC1F30221515CC84000BD000082
:1016200000100240A43D000885B015A08368426800
:101630000168C068039302920191049014A00068AD
:101640000090144B5968144801F00C02042A11D080
:10165000082A0FD101A8C1F38342805C11F4803FB6
:101660000AD05968C1F340411DF801100A4A50439D
:10167000B0FBF1F005B07047084905B0484370472A
:1016800002030405060708090A0B0C0D0E0F1010C3
:10169000010200000010024000127A0000093D0023
:1016A0002DE9F84F0446FA4D207810F0010F68D06C
:1016B000686800F00C00042808D0686800F00C008E
:1016C00008280DD1686810F4803F09D0286810F40C
:1016D000003F56D06068002853D10120BDE8F88F44
:1016E0006068B0F5803F15D0C8B1B0F5A02F1FD00D
:1016F000286820F480302860286820F48020286042
:10170000606858B3FFF7C6FA0646286810F4003F31
:1017100017D036E0286840F480302860F0E7286869
:1017200020F480302860286820F480202860E7E7D3
:10173000286840F480202860286840F480302860C1
:10174000DEE7FFF7A7FA801B642802D90320BDE873
:10175000F88F286810F4003FF3D012E0FFF79AFAF0
:101760000646286810F4003F0BD0FFF793FA801B61
:10177000642802D90320BDE8F88F286810F4003FE0
:10178000F3D12078C34F10F0020F4FF0010B4FF050
:10179000000854D0686810F00C0F14D0686800F08E
:1017A0000C00082803D1686810F4803F0BD0206932
:1017B00078B3C7F800B0FFF76DFA0646286810F056
:1017C000020F12D01DE0286810F0020F05D020692A
:1017D000012802D00120BDE8F88F2868616920F057
:1017E000F80040EAC100286029E0FFF753FA801BA7
:1017F000022802D90320BDE8F88F286810F0020FF4
:10180000F3D02868616920F0F80040EAC100286040
:1018100015E0FFE7C7F80080FFF73CFA06462868A6
:1018200010F0020F0BD0FFF735FA801B022802D907
:101830000320BDE8F88F286810F0020FF3D120785C
:1018400010F0080F30D09448A169C1B1C0F800B0C1
:10185000FFF720FA0646686A10F0020F0BD1FFF777
:1018600019FA801B022802D90320BDE8F88F686AA4
:1018700010F0020FF3D0012000F0D4FE14E0C0F805
:101880000080FFF707FA0646686A10F0020F0BD0D7
:10189000FFF700FA801B022802D90320BDE8F88F69
:1018A000686A10F0020FF3D1207810F0040F6FD0A7
:1018B0000026E86910F0805F08D1E86940F08050A8
:1018C000E861E86900F0805000900126DFF8CCA1C3
:1018D000DAF8000010F4807F1BD1DAF8000040F441
:1018E0008070CAF80000FFF7D5F98146DAF80000E9
:1018F00010F4807F0DD1FFF7CDF9A0EB090064282B
:1019000002D90320BDE8F88FDAF8000010F4807FD8
:10191000F1D0E068012816D0D0B1052821D0286A7E
:1019200020F001002862286A20F004002862E068A4
:1019300041F2883A68B3FFF7ADF98146286A10F0A2
:10194000020F17D03AE0286A40F001002862EEE763
:10195000286A20F001002862286A20F0040028622A
:10196000E5E7286A40F004002862286A40F0010098
:101970002862DCE7FFF78EF9A0EB0900504502D999
:101980000320BDE8F88F286A10F0020FF2D015E0AE
:101990001AE0FFE7FFF77EF98146286A10F0020F90
:1019A0000CD0FFF777F9A0EB0900504502D90320CE
:1019B000BDE8F88F286A10F0020FF2D1012E03D192
:1019C000E86920F08050E861E069E8B3696801F0F7
:1019D0000C01082958D0022810D0C7F86080FFF702
:1019E00059F90446286810F0007F4AD0FFF752F9F1
:1019F000001B022841D90320BDE8F88FC7F860809A
:101A0000FFF748F90646286810F0007F0BD0FFF773
:101A100041F9801B022802D90320BDE8F88F28680D
:101A200010F0007FF3D1206AB0F5803F05D16868DF
:101A3000A16820F4003008436860616A206A0843A6
:101A4000696821F4741100E01BE008436860C7F87E
:101A500060B0FFF71FF90446286810F0007F10D12E
:101A6000FFF718F9001B022802D90320BDE8F88F00
:101A7000286810F0007FF3D003E0286810F0007FA2
:101A8000B4D10020BDE8F88F0120BDE8F88F000038
:101A900000100240000042428004424200700040B8
:101AA00070B504460E461546002C03D094F83D0050
:101AB00010B107E0012070BD002084F83C002046F2
:101AC00000F01AF804F108012068FEF7D7FE31464D
:101AD000A2682068FEF74CFF2946236BA268606865
:101AE000FEF7A4FEA168206850F8212042F0010210
:101AF00040F82120002070BDFEF776BF401EB0F1F7
:101B0000807F01D3012070474FF0E0214861044AF3
:101B1000F0201070002088610720086100207047C5
:101B200023ED00E0FEE701684A6912F4806F0DD0F2
:101B30006FF480624A610421016400210163202264
:101B400080F83D2080F83C1001207047002070474D
:101B50002DE9F84F0446DDF828A00B9D0F4690466E
:101B600099462068016841F480610160206801683D
:101B700041F480710160534600224FF0011120466C
:101B8000009500F02BF910B10320BDE8F88F216813
:101B900007F0FE000861DFF810B12B4652465946A7
:101BA000204600F075F940B1206C042802D00320D3
:101BB000BDE8F88F0120BDE8F88F20684169806991
:101BC00000902A465146204600F0F7F968B1206C93
:101BD000042802D00320BDE8F88F2068016841F492
:101BE000007101600120BDE8F88F08F0FF06B9F12F
:101BF000010F0FD021684FEA182008612A4651468C
:101C0000204600F0DAF980B1206C042805D00320CA
:101C1000BDE8F88F2068066109E02068016841F49A
:101C2000007101600120BDE8F88F206806612A4636
:101C30005146204600F0C1F968B1206C042802D05A
:101C40000320BDE8F88F2068016841F4007101604D
:101C50000120BDE8F88F2068016841F480710160BF
:101C6000534600224FF001112046009500F0B6F8CF
:101C700010B10320BDE8F88F2168F8B240F00100F0
:101C800008612B4652465946204600F001F940B102
:101C9000206C042802D00320BDE8F88F0120BDE8A5
:101CA000F88F0020BDE8F88F020001002DE9F8430D
:101CB0000446DDF82090099F0D4616469846206898
:101CC000016841F4807101604B4600224FF0011120
:101CD0002046009700F082F810B10320BDE8F88399
:101CE000216805F0FE0008613B464A46244920462B
:101CF00000F0CEF840B1206C042802D00320BDE8EB
:101D0000F8830120BDE8F88320684169806900906C
:101D10003A464946204600F050F968B1206C042844
:101D200002D00320BDE8F8832068016841F4007107
:101D300001600120BDE8F883F5B2B8F1010F0ED0C3
:101D40002168300A08613A464946204600F035F9D4
:101D500080B1206C042805D00320BDE8F8832068FA
:101D6000056109E02068016841F40071016001200B
:101D7000BDE8F883206805610020BDE8F883000015
:101D80000200010070B504460D4616462068406901
:101D900010F0040F20D12046FFF7C5FE08B1012046
:101DA00070BDB5F1FF3F12D025B1FEF773FF801B68
:101DB000A8420CD9206C40F0200020640020206351
:101DC000202184F83D1084F83C00032070BD206879
:101DD000406910F0040FDED0002070BD2DE9F047FF
:101DE0000446DDF820900D4617461E46C5F3074809
:101DF0002068B8F1010F1ED0806925EA00000004B8
:101E0000000C22D00020B8422FD1B6F1FF3F1ED0E7
:101E10002EB1FEF73FFFA0EB0900B04217D900201A
:101E20002063202184F83D1084F83E0084F83C00B3
:101E30000320BDE8F087406925EA00000004000C9B
:101E400001D00020DFE70120DDE70120DBE7B8F16A
:101E5000010F0DD02068806925EA00000004000C05
:101E600013D04FF0000CBC45CFD00020BDE8F08768
:101E70002068406925EA00000004000C02D04FF001
:101E8000000CF0E74FF0010CEDE74FF0010CEAE732
:101E90002DE9F04704460D4616461F46C5F3074890
:101EA0002068B8F1010F22D0806925EA0000000403
:101EB000000C3FD04FF000094FF0200A2068406925
:101EC00010F4806F1AD02068016841F4007101603D
:101ED00021686FF48060486104202064C4F8309069
:101EE00084F83DA084F83C900120BDE8F08740696B
:101EF00025EA00000004000C1CD0DBE7B6F1FF3F30
:101F00000ED026B1FEF7C6FEC01BB04208D9C4F8F9
:101F1000309084F83DA084F83C900320BDE8F08721
:101F2000B8F1010F09D02068806925EA000000049B
:101F3000000CC3D10020BDE8F0872068406925EA85
:101F400000000004000CB9D1F4E72DE9F04104468B
:101F50000D4616462068406910F0400F2AD1002730
:101F60004FF020082068406910F0100F0CD0216855
:101F70006FF0100048612764276384F83D8084F87F
:101F80003C700120BDE8F08125B1FEF783FE801B87
:101F9000A8420AD9206C40F02000206484F83D80DB
:101FA00084F83C700320BDE8F0812068406910F09F
:101FB000400FD7D00020BDE8F08170B504460D4633
:101FC00016462068406910F0800F20D12046FFF7A8
:101FD000AAFD08B1012070BDB5F1FF3F12D025B1B7
:101FE000FEF758FE801BA8420CD9206C40F0200060
:101FF000206400202063202184F83D1084F83C00F8
:10200000032070BD2068406910F0800FDED00020F2
:1020100070BD0000044B4FF4805108B1002200E075
:1020200001221846FEF72FBE0014014070B51D4670
:102030001446049E00F018F904FB05F03146BDE893
:10204000704000F0EFB8000070B5203AD4B2102311
:10205000082200F009F92C20C10608800C490D4B1C
:1020600001EB041500204FF6FF742A5C0021D6070F
:1020700002D01F261E8000E01C80491C5208C9B2F5
:102080000829F4D3401CC0B21028EED370BD000064
:10209000203700080000026070B40B4600244FF0A7
:1020A000C0462A21318009490C8008800C800880B4
:1020B0002B2030800C800B800C800B802C203080FB
:1020C00070BC1146012000F0ADB8000000000260B5
:1020D0002DE9FE4F161ACDE900104FF000085D1AE9
:1020E00047464FF0FF30002E02DD4FF0010102E0C5
:1020F00003D14FF000018B4602E08346C6F1000693
:10210000002D02DD4FF0010002E003D14FF000008E
:10211000824602E08246C5F10005AE4201DD34464A
:1021200000E02C46601C4FF0000902901AE000BF4E
:10213000DDE900100C9AFFF7AFFFB0442F44A04533
:1021400005DD0198A8EB0408584480B20190A7422D
:1021500004DD00983F1B504480B2009009F101005B
:102160001FFA80F902998945E2DDBDE8FE8F2DE96D
:10217000F847994687180D4604464FF000088BB281
:10218000DDF824A0BAB289B280B2CDF80080FFF7A2
:102190009FFF05EB0906B3B2A2B2A9B2A0B2CDF877
:1021A0000080FFF795FFB3B2BAB2A9B2B8B2CDF8CA
:1021B0000080FFF78DFFB3B2BAB2B1B2A0B2CDF8D2
:1021C0000080FFF785FFA9F10A0000EBD07005EB56
:1021D000600081B20A34A0B25246BDE8F84700F070
:1021E00001B80000F0B516460D4604464FF4A0773E
:1021F00014E000BF04F10800F02802D900241035D3
:10220000ADB205F11000B84201D900242546294697
:102210002046FFF719FF0834A4B2761C3278002A52
:10222000E8D1F0BD10B500222C23DC062380034B3F
:1022300001E01980521C8242FBD310BD00000260F5
:1022400008B50120FFF7E6FE00F0EAF800F02CF8F0
:102250004FF6FF70002100904FF4A073F022084663
:10226000FFF7E4FE08BD000070B54FF0C0452A241A
:102270002C800C4C060A2680C6B226801044401ED4
:10228000020A2280C0B220802B202880080A2080E9
:10229000C8B22080C818401E010A2180C0B2208028
:1022A00070BD00000000026000B54FF0C041CF20BB
:1022B0000880594800220280812202803022028058
:1022C000ED220A8064220280032202801222028010
:1022D00081220280E8220A80852202801022028068
:1022E00078220280CB220A80392202802C220280AE
:1022F000002202803422028002220280F7220A8019
:1023000020220280EA220A80002202800280B1227A
:102310000A80002202801B220280B6220A800A2242
:102320000280A2220280C0220A8035220280C122BD
:102330000A8011220280C5220A8045220280028082
:10234000C7220A80A2220280F2220A800022028092
:1023500026220A8001220280E0220A800F220280C7
:1023600026220280242202800B2202800E2202807A
:102370000922028054220280A82202804622028082
:102380000C22028017220280092202800F22028082
:102390000722028000220280E1220A8000220280BD
:1023A000192202801B220280042202801022028055
:1023B000072202802A2202804722028039220280DC
:1023C000032202800622028002803022028038220C
:1023D00002800F22028036220A80C82202802A222E
:1023E0000A800022028002800280EF2202802B22DB
:1023F0000A80002202800280012202803F220280A5
:102400003A220A8055220280112008800348FEF7F4
:1024100001FA2920088000BD00000260FCBF020014
:1024200070B50A4C002202212046FEF72CFC084D14
:102430002846FEF7EFF9012202212046FEF723FC91
:102440002846BDE87040FEF7E5B9000000180140DD
:10245000FCBF020000B587B01C216846FDF79BFE5B
:1024600015484FF0204110220160144941600021BD
:102470008160C160C0E904128161C161130201621F
:10248000C0E90913C1620163416381630F20FF2327
:102490000090CDE90103CDE903021120CDE905014A
:1024A000002269460448FFF7FBFA0548C16941F478
:1024B0008061C16107B000BD74000020040100A06C
:1024C000000001402DE9F04F85B000244D480094F4
:1024D000019402940394816941F040018161816912
:1024E00001F040010491816941F01001816181692D
:1024F00001F010010491816941F004018161816959
:1025000001F004010491816941F008018161816950
:1025100001F008010491816941F020018161806925
:10252000DFF8E4B000F02000049000224221584679
:10253000FEF7A9FBDFF8D4800022A0214046FEF779
:10254000A2FBDFF8CC90002210214846FEF79BFB4F
:10255000DFF8C0A04FF48057002239465046FEF7FE
:1025600092FB1D20CDE90004694658460294FEF70F
:102570007DFA402001250326CDE90005CDE902467C
:1025800069465846FEF772FA23480095CDE90104E2
:1025900069464046FEF76AFAA020CDE90005CDE97C
:1025A000024669464046FEF761FA1020CDE9000573
:1025B000CDE9024669464846FEF758FA02260097DA
:1025C0000396CDE9015469465046FEF74FFA680379
:1025D000CDE90004694650460294FEF747FACDE97A
:1025E0000065CDE9024669465846FEF73FFA0022EB
:1025F00011460620FEF7DEFE0620FEF7CFFE05B0F0
:10260000BDE8F08F001002400018014000080140B2
:10261000001001400014014000001110FEE7704757
:102620007047000081B007494FF4FA520968B1FBC6
:10263000F2F14843009000BF0098411E0091FAD289
:1026400001B07047100000207047FEF74DBE30B556
:102650008FB028216846FDF79EFD14210AA8FDF7DA
:102660009AFD01210804CDE90010002402940225FE
:102670000491CDE907504FF4E01009906846FFF748
:102680000FF80F20CDE90A056802CDE90C400221C0
:102690000AA80E94FEF7D4FE0FB030BD0D480168B5
:1026A00041F00101016041680B4A1140416001683D
:1026B0000A4A11400160016821F4802101604168EB
:1026C00021F4FE0141604FF41F0181600449C00301
:1026D00008607047001002400000FFF8FFFFF6FEA0
:1026E00008ED00E0FEE700000FB4084B10B504A9A8
:1026F00002AA039800F0DEF8044602A9002000F0C8
:1027000070FC204610BC5DF814FB0000E32F0008AD
:1027100002E008C8121F08C1002AFAD170477047AA
:10272000002001E001C1121F002AFBD17047000008
:102730002DE9FF5F82B00021DDE90430020DDDF8F4
:1027400040B0034318D044F61050A2F2FF32424387
:102750001514119801281FD0A5EB0B00401C5FEA4F
:10276000000A4FF000064E4FDFF83891B046504651
:1027700015D5CAF1000413E0119801244AA30128D9
:1027800001D16FEA0B010298119AC0E90031C0E94A
:10279000024206B0BDE8F09FCBF10000DFE704463F
:1027A0000021404A491842EB0450CDE9001012E0E4
:1027B000E00707D032463B4640464946FDF786FED5
:1027C0008046894632463B4610461946FDF77EFE56
:1027D00006460F466410002CEAD1DDE90401DDE96C
:1027E0000023BAF1000F06DAFDF770FE42464B46B1
:1027F000FDF76CFE05E0FDF7DBFE42464B46FDF7BC
:10280000D7FE04460E460022284BFDF759FF03D899
:102810004FF0FF30014607E00022254B20463146AD
:10282000FDF7ADFDFDF733FF102409E0002C0ADBB6
:102830000A220023FDF73BFD039B30321A55641E2C
:1028400050EA0102F2D1641C039AC4F1110314444A
:10285000119A012A03D0012208430DD10AE008434E
:1028600004D000204FF0110B119072E7A3EB0B0581
:102870006D1E0DE05B4504DD4FF0000205F1010522
:1028800004E003DA4FF00002A5F10105002AECD0C4
:1028900002981199C0E90231C0E9004579E70000CA
:1028A000000014400000F03F300000000000F04342
:1028B0000000E03F2DE9FF4F95B09B468946064654
:1028C00000250FE2252877D100242746F84A012168
:1028D000059400E0044316F8013F203B01FA03F0A1
:1028E0001042F7D130782A2811D06FF02F033078BA
:1028F000A0F13002092A16D8059A44F0020402EB2E
:10290000820203EB42021044761C0590EFE759F86F
:10291000042B0592002A03DA504244F40054059037
:1029200044F00204761C30782E2816D116F8010FD8
:1029300044F004042A280DD06FF02F023078A0F163
:102940003003092B09D807EB870302EB4303C718B1
:10295000761CF3E759F8047B761C30786C280FD08E
:1029600006DC4C2817D068280DD06A2814D104E062
:10297000742810D07A280FD10DE044F400140AE036
:1029800044F4801401E044F440147278824202D18D
:1029900004F58014761C761C307866280BD013DC86
:1029A000582877D009DC002875D04528F6D046286D
:1029B000F4D047281AD19DE118E0632835D0642867
:1029C00079D0652812D195E1702873D008DC67288A
:1029D000F1D069286FD06E280DD06F2806D1B5E0F0
:1029E00073282CD0752875D0782874D05A4617993A
:1029F00090476D1C75E1C4F30250022809D00328EA
:102A00000DD0D9F8001004280DD00D6009F104098B
:102A100067E1D9F80010EA17C1E90052F6E7D9F8E2
:102A200000100D80F2E70D70F0E719F8041B8DF827
:102A3000001000208DF80100EA46012003E059F85B
:102A400004AB4FF0FF3061074FF0000102D40DE0FE
:102A500008F101018846B9420FDA8045F8DB1AF81F
:102A600008100029F4D108E008F1010188468142EC
:102A7000FADB1AF808100029F6D105985B46A0EB9E
:102A8000080721463846179A00F094FA284400EBCC
:102A9000080507E04DE029E10DE01AF8010B5A4660
:102AA00017999047B8F10108F7D25B46214638469E
:102AB000179A13E142E00A220092C4F302524FF047
:102AC000000A022A08D059F804CB032A4FEAEC7115
:102AD0000AD00DE029E02AE009F1070121F0070200
:102AE000F2E802C1914609E00FFA8CFC4FEAEC7162
:102AF000042A03D14FFA8CFC4FEAEC71002907DA63
:102B00000A460021DCF1000C61EB02012D2202E0FB
:102B1000220504D52B228DF80420012203E0E207D0
:102B200001D02022F7E7904659E00A2102E0102266
:102B30000DE010214FF0000A00910BE010224FF041
:102B4000000A44F004040827009203E008224FF032
:102B5000000A0092C4F30252022A05D059F804CBAD
:102B60000021032A08D009E009F1070121F007023A
:102B7000F2E802C1914605E01FFA8CFC042A01D15B
:102B80000CF0FF0C4FF00008220728D5702806D063
:102B9000009B83F0100353EA0A0305D00EE04022A5
:102BA0008DF80420012208E05CEA010206D0302200
:102BB0008DF804208DF8050002229046009B83F0DA
:102BC000080353EA0A030AD15CEA010201D1620751
:102BD00005D530228DF804204FF001087F1E5828BB
:102BE00004D034A003900EA802900DE036A0F9E7BF
:102BF00053466046009AFDF75AFB84460398825C70
:102C00000298401E029002705CEA0100F0D1029826
:102C100006A9081A00F1200A600702D524F48034BE
:102C200000E00127574502DDA7EB0A0000E0002085
:102C300000EB0A01009005984144401A0590E0031A
:102C400006D45B462146179A059800F0B3F905446F
:102C5000002706E001A85A46C05D179990476D1CF1
:102C60007F1C4745F6DBE0030CD55B462146179AEF
:102C7000059800F09FF9054404E030205A46179962
:102C800090476D1C0099481E00900029F5DC08E073
:102C9000029802995A460078491C02911799904768
:102CA0006D1CBAF10001AAF1010AF1DC65E1000036
:102CB0000928010030313233343536373839616212
:102CC00063646566000000003031323334353637D6
:102CD00038394142434445460000000000F058F9AD
:102CE0000544761C307800287FF4ECAD19B02846F6
:102CF000BDE8F08F620700D4062709F1070222F031
:102D0000070CFCE80223E14603F000485FEA080CE8
:102D100002D00FF2702C0DE05FEA045C02D50FF2D6
:102D2000682C07E05FEAC47C02D00FF2602C01E05F
:102D3000AFF2700C4FF0FF3823F00043CDF850C0D5
:102D400065280CD006DC452809D046281DD0472828
:102D50003DD13DE0662818D067287ED138E00021BB
:102D6000112F01DB112000E0781CCDE9000106A93C
:102D70000EA8FFF7DDFCDDE90F010E9A039100219B
:102D8000009207F1010A04914DE04FF000400097D6
:102D9000CDE9011006A90EA8FFF7CAFCDDE90F0274
:102DA00003920E9B11990022DDF80CA0009304926F
:102DB00011B9791C00EB010AB7EB0A0004D4C0F189
:102DC000FF3007F1010A0490AAEB0700019044E0EC
:102DD000012F00DA01270021112F01DD112000E071
:102DE0003846CDE9000106A90EA8FFF7A1FCDDE9F0
:102DF0000F010E9A0391002104910092BA46210717
:102E00000CD40399514500DA8A46BAF1010F05DD69
:102E1000009AAAF10101515C302908D0B84202DAC7
:102E200010F1040F06DA0121CDE9011015E0AAF135
:102E30000101E9E7002805DC049901440491AAEBAB
:102E4000000102E0411C514500DD8A460499401A08
:102E5000401C01904FF000400290200704D40198DC
:102E6000504501DBCDF8048000208DF84F0002981A
:102E70000DF14F07B0F1004F25D02B200E90029896
:102E80004FF0020800280CDA404202902D200E90EC
:102E900007E00A210298FDF7F4F93031029007F8B3
:102EA000011DB8F10001A8F10108F2DC0298002828
:102EB000EFD1791E0E980870307800F0200040F0B5
:102EC000450007F8020D12A8C01B00F1070814986E
:102ED000007800B1012000EB0A01019801EBE071DC
:102EE00005984144401A401E0590E00306D45B4615
:102EF0002146179A059800F05DF80544149800786B
:102F000018B15A46179990476D1CE00324D55B46CB
:102F10002146179A059800F04DF805441CE00498E6
:102F2000002807DBDDE90301884203DD0098405CEF
:102F3000179901E0179930205A469047049805F1F7
:102F40000105401C04900198401E019004D12E20E0
:102F50005A46179990476D1CBAF10001AAF1010A6F
:102F6000DDDC05E017F8010B5A46179990476D1CF8
:102F7000B8F10001A8F10108F4DC5B462146179A7C
:102F80000598ABE62D0000002B000000200000009B
:102F90002DE9F041044600251E461746880404D456
:102FA00005E039462020B0476D1C641EF9D528463F
:102FB000BDE8F0812DE9F041044600251E4690460B
:102FC000C80301D5302700E02027880404D505E098
:102FD00041463846B0476D1C641EF9D52846BDE809
:102FE000F0810A68531C0B6010707047D0B5444CD8
:102FF0008EB02068FDF732F902460B4641A101A8C8
:10300000FFF772FB322142A20846FFF7EBF845A01A
:1030100000902823642296213220FFF7A8F844A0CC
:10302000009028236422C8213220FFF7A0F843A291
:103030004FF49671AA20FFF7D5F8642101AA08463B
:10304000FFF7D0F84FF07C574FF6FF7600F058F9B5
:103050000028FBD03B482844B0F54E0F2DD83A4904
:103060008D420CDB39498D4209DC39462068FDF779
:10307000EFF82060FDF7F2F80B4602460EE0344907
:103080008D421ADB33498D4217DC39462068FDF743
:103090008DF82060FDF7E2F802460B462EA101A84C
:1030A000FFF722FB3223F02264210A200096FEF76C
:1030B000BDFF642101AA96201DE02A496818B0F5D9
:1030C0008C0F05D849428D4202DB27498D4215DD20
:1030D00026A264211420FFF785F84FF47A70FDF7DB
:1030E0006FFC3223F02264210A200096FEF79EFF37
:1030F00001AA64213220FFF775F8A7E70EB0D0BD12
:103100000000002025302E316620686F75720000A7
:10311000496E7075742077696E64696E6720686F98
:10312000757200002D20312F3220686F75720000FB
:103130002B20312F3220686F757200004E65787435
:10314000203E3E000000B8BD0000164300003E4394
:10315000000048430000704325302E316609686F37
:10316000757200000000CCBC0000AF43506C65617C
:1031700073652073656C6563742076616C69642087
:10318000696E7075742E0000F0B53D4E8FB03DA194
:1031900001A87268FFF7A8FA32213BA20846FFF7A0
:1031A00021F83FA096220090282311463220FEF7F6
:1031B000DEFF3FA0009028239622C8213220FEF790
:1031C000D6FF3FA24FF49671AA20FFF70BF86421B7
:1031D00001AA0846FFF706F83B4D4FF6FF7700BF00
:1031E00000F08EF80028FBD038496018B0F54E0F7B
:1031F00021D837498C4205DB36498C4202DC7268A3
:10320000643A06E0AC4216DB33498C4213DC726848
:1032100064321CA101A87260FFF766FA3223F02223
:1032200064210A200097FEF701FF01AA642196207D
:10323000FEF7D8FFD4E729496018B0F58C0F05D800
:103240004842844202DB2648844216DD25A26421DE
:103250001420FEF7C7FF4FF47A70FDF7B1FB32235D
:10326000F02264210A200097FEF7E0FE01AA642103
:103270003220FEF7B7FF2C46B2E70FB0F0BD0000DA
:103280000000002025640000496E70757420726F84
:10329000746174696F6E206E756D626572000000F6
:1032A0002D2031303020726F746174696F6E0000B0
:1032B0002B2031303020726F746174696F6E0000A2
:1032C0004E657874203E3E00000048430000B8BDC3
:1032D0000000164300003E43000070430000CCBCD9
:1032E0000000AF43506C656173652073656C656366
:1032F000742076616C696420696E7075742E0000AC
:1033000070B5084D10212846FDF7B6FC38B10024F1
:10331000012210212846FDF7B6FC204670BD01248D
:10332000F6E700000018014008B5FDF7E5FFFFF7DC
:103330008EF9FFF7C7F8FFF78DF821481F494FF4C2
:10334000804201601F49416000218160C0E9031291
:1033500041618161C1610162FDF7A2FCFEF770FF6E
:1033600000F0C8F94FF6FF744FF4A075FFF7C8FFDF
:103370000028FBD000F066F910B101281AD107E04F
:1033800000212B46F02208460094FEF74FFE11E084
:1033900000212B46F02208460094FEF747FEFFF777
:1033A000F3FE00212B46F02208460094FEF73EFE75
:1033B000FFF71CFE00F09EF9D8E70000005800401F
:1033C00020000020A08601000EB501234FF6FF72F9
:1033D000CDE9001302920246A1210248FDF70AFD41
:1033E0000EBD0000200000202DE9F04F8BB0002121
:1033F000844C8DF81810814F814D61154FF0020BF0
:10340000002865D0012860D10026884600222021AE
:103410003846FDF738FC002280213846FDF733FCA2
:10342000002240212846FDF72EFC012210212046D3
:10343000FDF729FC5846FDF7C3FA00222021384643
:10344000FDF721FC002280213846FDF71CFC0122FB
:1034500040212846FDF717FC002210212046FDF7E9
:1034600012FC5846FDF7ACFA002220213846FDF741
:103470000AFC012280213846FDF705FC002240218C
:103480002846FDF700FC002210212046FDF7FBFB3B
:103490005846FDF795FA012220213846FDF7F3FB47
:1034A000002280213846FDF7EEFB0022402128460D
:1034B000FDF7E9FB002210212046FDF7E4FB58460A
:1034C000FDF77EFA761C4645A0DB0BB0BDE8F08F19
:1034D00000264FF0A508B9468A46012220214F4612
:1034E0004846FDF7D0FB002280213846FDF7CBFB94
:1034F000002240212846FDF7C6FB0022102120466D
:10350000FDF7C1FB5846FDF75BFA00222021384643
:10351000FDF7B9FB012280213846FDF7B4FB0022FC
:1035200040212846FDF7AFFB002210212046FDF781
:10353000AAFB5846FDF744FA002220213846FDF741
:10354000A2FB002280213846FDF79DFB012240218D
:103550002846FDF798FB002210212046FDF793FB3B
:103560005846FDF72DFA002220213846FDF78BFB47
:10357000002280213846FDF786FB002240212846A4
:10358000FDF781FB012210212046FDF77CFB584608
:10359000FDF716FA8DF81C8042461BA16846FFF71E
:1035A000A3F807A90A2000F03DF847B23220FDF742
:1035B00007FA6A460A211420FEF714FEE7B113A1A8
:1035C00008A8FFF791F808AA0A211E20FEF70AFEB4
:1035D00006A90A20FFF7F8FE9DF818200AA103A803
:1035E000FFF782F8142103AA0846FEF7FBFD761CBC
:1035F0005645FFF672AF68E707A1E1E70008014012
:1036000000180140001001402578000057726974CD
:1036100065206767000000005772697465206F6B52
:10362000000000000EB501234FF6FF72CDE9001334
:1036300002920246A0210248FDF75EFD0EBD000089
:103640002000002008B5322117A20846FEF7CAFD67
:103650001AA096220090282311463220FEF787FDFB
:103660001BA0009028239622C8213220FEF77FFD60
:103670004FF49670FDF7A4F9FFF742FE0028FBD047
:1036800017482844B0F1807F0BD81648844204DBE9
:103690001548844201DC002008BD1448844200DB48
:1036A0001348012008BD000053656C6563742069F0
:1036B0006E707574207479706500000050726564D6
:1036C0006566696E6564206D6F64656C000000005E
:1036D0004D616E75616C20696E707574000000003C
:1036E0000000B8BD0000164300003E430000484300
:1036F000000070432DE9F04100254FF47A762C4606
:1037000077102846FFF770FE3046FDF759F92DB1C6
:103710000025641CBC42F4DBBDE8F0810125F8E71C
:103720000000000000000000000000000000000099
:10373000000000183C3C3C1818001818000000005D
:103740000000006666660000000000000000000047
:103750000000006C6CFE6C6C6CFE6C6C0000000079
:103760000018183C66060C183060663C18180000FB
:1037700000000E1B5B6E30180C76DAD8700000006B
:103780000000001C36361C06F66666DC00000000F1
:1037900000000018181800000000000000000000E1
:1037A0000000003018180C0C0C0C0C18183000001D
:1037B0000000000C1818303030303018180C0000A1
:1037C00000000000006C38FE386C000000000000B3
:1037D000000000000018187E18180000000000000B
:1037E0000000000000000000000038383018000021
:1037F000000000000000007E00000000000000004B
:103800000000000000000000000038380000000048
:103810000000006060303018180C0C060600000034
:1038200000000078CCECECCCDCDCCC7800000000B4
:1038300000000030383E30303030303000000000C2
:103840000000003C66666030180C067E0000000038
:103850000000003C666660386066663C0000000060
:103860000000000C0C6C6C6C66FE606000000000D8
:103870000000007E0606063E6060301E000000006C
:1038800000000038180C3E666666663C00000000CA
:103890000000007E60303018180C0C0C0000000096
:1038A0000000003C66666E3C7666663C00000000E8
:1038B0000000003C666666667C30181C0000000054
:1038C0000000000000383800000038380000000018
:1038D00000000000003838000000383830180000C0
:1038E0000000006030180C060C183060000000006A
:1038F0000000000000007E007E00000000000000CC
:10390000000000060C18306030180C0600000000A3
:103910000000003C6666301818001818000000000F
:103920000000007EC3C3F3DBDBF303FE00000000F6
:10393000000000183C6666667E6666660000000051
:103940000000003E6666663E6666663E0000000059
:103950000000003C666606060666663C0000000045
:103960000000001E366666666666361E00000000B1
:103970000000007E0606063E0606067E00000000E9
:103980000000007E0606063E060606060000000051
:103990000000003C666606067666667C0000000055
:1039A000000000666666667E666666660000000069
:1039B0000000003C181818181818183C00000000E7
:1039C00000000060606060606066663C00000000AF
:1039D000000000666636361E363666660000000059
:1039E00000000006060606060606067E0000000029
:1039F000000000C6C6EED6D6D6C6C6C60000000079
:103A0000000000C6C6CEDEF6E6C6C6C60000000050
:103A10000000003C666666666666663C0000000064
:103A20000000003E6666663E0606060600000000D0
:103A30000000003C666666666666663C30600000B4
:103A40000000003E6666663E366666660000000060
:103A50000000003C66060C183060663C0000000068
:103A60000000007E18181818181818180000000018
:103A700000000066666666666666663C00000000DA
:103A8000000000666666666666663C180000000018
:103A9000000000C6C6C6D6D6D66C6C6C000000000E
:103AA00000000066662C1818346666660000000088
:103AB000000000666666663C1818181800000000D2
:103AC0000000007E606030180C06067E00000000DA
:103AD0000000003C0C0C0C0C0C0C0C0C0C0C3C00F6
:103AE00000000006060C0C18183030606000000062
:103AF0000000003C303030303030303030303C006E
:103B000000183C66000000000000000000000000FB
:103B10000000000000000000000000000000FF00A6
:103B2000001C183000000000000000000000000031
:103B300000000000003C60607C66667C00000000C5
:103B400000000006063E66666666663E00000000EF
:103B500000000000003C66060606663C000000000F
:103B600000000060607C66666666667C000000009F
:103B700000000000003C66667E06063C0000000077
:103B8000000000780C0C0C7E0C0C0C0C00000000EB
:103B900000000000007C66666666667C60603E0031
:103BA00000000006063E6666666666660000000067
:103BB00000001818001E18181818187E00000000C1
:103BC00000003030003C30303030303030301E00BB
:103BD00000000006066666361E36666600000000B7
:103BE0000000001E181818181818187E0000000091
:103BF00000000000007ED6D6D6D6D6C60000000053
:103C000000000000003E6666666666660000000012
:103C100000000000003C66666666663C000000002E
:103C200000000000003E66666666663E0606060008
:103C300000000000007C66666666667C606060006E
:103C4000000000000066760E060606060000000072
:103C500000000000007C06063C60603E00000000A2
:103C60000000000C0C7E0C0C0C0C0C78000000000A
:103C700000000000006666666666667C0000000064
:103C8000000000000066666666663C1800000000E2
:103C90000000000000C6D6D6D6D66C6C000000002E
:103CA000000000000066663C183C666600000000EC
:103CB00000000000006666666666663C30180F000D
:103CC00000000000007E6030180C067E000000003E
:103CD000000000301818180C060C181818300000D6
:103CE00000000018181818181818181818181800B4
:103CF0000000000C1818183060301818180C00005C
:103D00000000008EDB7100000000000000000000D9
:103D100000000000F6FFFFFF00000000710000003F
:103D200077000000650000007200000074000000D1
:103D30007900000075000000690000006F000000BD
:103D4000700000002000000061000000730000000F
:103D500064000000660000006700000068000000CA
:103D60006A0000006B0000006C00000020000000F2
:103D70007A00000078000000630000007600000078
:103D8000620000006E0000006D00000020000000D6
:103D900020000000000000000000000001020304F9
:103DA000060708090000000001020304CC3D0008DA
:103DB000000000202000000010270008EC3D000853
:103DC00020000020980400002027000800000000C8
:103DD00000000000000000000000000000A24A04F3
:0C3DE000010000001000000000000000C6
:0400000508000131BD
:00000001FF
