:020000040800F2
:100000006804002045010008231800087F1200083A
:100010002118000811080008E51800080000000079
:100020000000000000000000000000004718000869
:1000300013080008000000004518000849180008CF
:100040005F0100085F0100085F0100085F01000810
:100050005F0100085F010008250800085F01000833
:100060005F0100085F0100085F0100085F010008F0
:100070005F0100085F0100085F0100085F010008E0
:100080005F0100085F0100085F0100085F010008D0
:100090005F0100085F0100085F0100085F010008C0
:1000A0005F0100085F0100085F0100085F010008B0
:1000B0005F0100085F0100085F0100085F010008A0
:1000C0005F0100085F0100085F0100085F01000890
:1000D0005F0100085F0100085F0100085F01000880
:1000E0005F0100085F0100085F0100085F01000870
:1000F0005F0100085F0100085F0100085F01000860
:100100005F0100085F0100085F0100085F0100084F
:100110005F0100085F0100085F0100085F0100083F
:100120005F0100085F0100085F0100085F0100082F
:10013000DFF80CD000F0DCFA004800472925000861
:10014000680400200648804706480047FEE7FEE7AF
:10015000FEE7FEE7FEE7FEE7FEE7FEE7FEE7FEE777
:100160009D18000831010008202A04DB203A21FAFA
:1001700002F00021704721FA02F3D040C2F12002C0
:100180009140084319467047D2B201E000F8012BB4
:10019000491EFBD270470022F6E710B513460A4607
:1001A00004461946FFF7F0FF204610BDF0B480EA80
:1001B0000102D40F4200B2EB410F02D202460846C0
:1001C00011464A0042D0C30DDDB2C1F3C752AD1A89
:1001D000202D35DAC1F3160141F4000204B1524278
:1001E000C5F1200602FA06F12A411044B3EBD05FB4
:1001F00023D0C4B1012DA0EBC35009DCF0BC4FF0FB
:10020000004202EAC352DBB200F5000000F089B8F8
:10021000400000F1807000EBC350A0F1807040EA14
:10022000D170490009E0490841EAC071A0EBC35010
:1002300000F50000400800EBC350F0BC00F068B8C7
:100240006142012202EB4101001BF6E7F0BC70475E
:1002500081F00041AAE780F00040A7E700F00042EB
:1002600030F000400AD0C10D01F56071C0F31600F6
:1002700042EA0151C208400711437047002001467D
:10028000704730B50B46014600202022012409E0CA
:1002900021FA02F59D4205D303FA02F5491B04FA3F
:1002A00002F52844151EA2F10102F1DC30BD2DE952
:1002B000F05F0546002092469B46884606468146EA
:1002C00040241BE02846414647462246FFF74CFFA4
:1002D00053465A46C01A914110D311461846224639
:1002E00000F018FA2D1A67EB01084F46224601204C
:1002F000002100F00FFA17EB00094E41201EA4F177
:100300000104DFDC484631462A464346BDE8F09FFB
:100310000029A8BF7047401C490008BF20F0010019
:10032000704710B4B0FA80FC00FA0CF050EA0104F7
:1003300004BF10BC704749B1CCF1200421FA04F489
:1003400011FA0CF118BF012121430843A3EB0C0162
:10035000CB1D4FEA00614FEA102042BF002010BCC5
:10036000704700EBC35010440029A4BF10BC704775
:10037000401C490008BF20F0010010BC70472DE967
:10038000FE4F804681EA0300C00F0C46009021F02A
:10039000004123F00045B8EB0200A94105D24046D8
:1003A000214690461C460B46024623F0004010436F
:1003B00047D0270DC7F30A00C3F30A510290401A31
:1003C000019040286BDAC3F3130040F4801B0098BF
:1003D000924620B10023D2EB030A63EB0B0B01988A
:1003E0005946C0F14002504600F094F906460D46C9
:1003F00050465946019A00F09CF910EB0800614103
:10040000002487EA115284EAE7731A4340D0009A25
:1004100062B3019A012A4FEA075215DC001B61EB17
:1004200002014FF0004202EA0752CDE90042001CEF
:1004300041F5801132462B4600F09CF903B0BDE82F
:10044000F08F40462146F9E7001B61EB0201001CDA
:1004500041F5801300185B412018A2F5001747EB07
:10046000030140EAD570B6196D4111E06D084FEAFD
:10047000360645EAC0754FEA0752001B61EB0201E0
:10048000001C41F5801149084FEA30000019514124
:1004900032462B4603B0BDE8F04F00F05CB900983F
:1004A000012240000023D0EB020263EBE0730098CE
:1004B00021464FEAE074B8EB000061EB0401E9E784
:1004C00083F000435BE781F0004158E72DE9FE4FE0
:1004D00081EA030404F0004421F0004100944FF04D
:1004E000000B23F0004350EA01045ED052EA0304FB
:1004F0005BD0C3F30A54C1F30A552C44A4F2F3347D
:100500000194A0FB0254C1F3130141F48011C3F321
:10051000130343F4801301FB024400FB034E840ADF
:10052000970A44EA815447EA8357A4FB0768029577
:100530008D0A05FB07854FEA932C04FB0C54270515
:10054000029D4FEA065847EA1637B5EB08056EEBF1
:10055000070C870E920E47EA811742EA8312A7FB27
:100560000201B6EB0B0164EB00042B0D43EA0C33E4
:100570005E1844EB1C50DA465146E7FB0201C5F316
:1005800013044FEA0B3343EA14534FEA0432019C3D
:1005900043EA0603A4F10C040294009CCDE900B4E4
:1005A00000F0E8F803B0BDE8F08F00200146F9E75D
:1005B0002DE9F04D81EA030404F0004B21F00045E1
:1005C00014464FF0000A23F0004150EA050220D003
:1005D00054EA01021DD0C5F30A570246C5F31303BE
:1005E000C1F31300C1F30A5640F4801543F480139D
:1005F000A7EB0608101BD64608F2FD3873EB050082
:1006000002D308F1010801E092185B41B8F1000F34
:1006100003DA00200146BDE8F08D00204FF4801180
:10062000064684460EE0171B73EB050705D3121B25
:1006300063EB050306434CEA010C49084FEA30001E
:1006400092185B4150EA0107EDD152EA030012D043
:1006500082EA040083EA0501084305D0101BAB4180
:1006600006D20122002306E000224FF0004302E000
:100670006FF0010253101AEB06004CEB085110EB1F
:100680000A0041EB0B01BDE8F04D00F064B8C1F386
:100690000A52C1F3130140F2FF3341F480119A4230
:1006A00002DA00200146704740F233439A42A2F238
:1006B000334202DC5242FFF757BD00F02BB8000076
:1006C00030B5041E71F1000404DB4FF000444042D9
:1006D00064EB0101141E73F1000405DB1C464FF0AE
:1006E0000043524263EB0403994208BF904230BD7D
:1006F000064C074D06E0E06840F0010394E807006F
:1007000098471034AC42F6D3FFF716FDF02C0008E2
:10071000102D0008202A04DB203A00FA02F1002004
:1007200070479140C2F1200320FA03F3194390402F
:100730007047202A06DBCB17203A41FA02F043EA41
:10074000E07306E041FA02F3D040C2F1200291408A
:1007500008431946704710B5141E73F1000408DAF7
:10076000401C41F1000192185B411A4301D120F075
:10077000010010BD2DE9F04D92469B4611B1B1FA32
:1007800081F202E0B0FA80F220329046FFF7C2FF19
:1007900004460F4640EA0A0041EA0B0153465A4616
:1007A000084313D0114653EA010019D0C8F14002A2
:1007B0005046FFF7D9FC05460E465046594642467C
:1007C000FFF7A8FF084305D0012004E02046394682
:1007D000BDE8F08D0020054346EAE0762C43374320
:1007E0000A986305E40AA0EB08000022FD0A44EA27
:1007F00047540A3002D500200146E9E701051019E7
:100800006941DDE9084500196941BDE8F04DA2E7FD
:10081000FEE7704701B5009801E0401E00900028F7
:10082000FBD108BD10B5064C2068C00707D001F009
:10083000AFFE01202060BDE8104000F0D5B810BD2B
:100840001404014030B5B3F5804F05D06FF070410E
:1008500040F82210002030BD8C690B688D6823435E
:100860004C688989240144EA0524234343EA014171
:1008700050F82230014C23401943E9E70000F0CF43
:1008800030B50A6850F8223023F0010340F82230D6
:100890008C68204B4A68082C1ED02243D1E90345BE
:1008A0002C4322434C6922438C692243CC69224366
:1008B0000C6A22434C6A22438C6A2243CC6A22434C
:1008C0000C6B0968224350F821401C4052EA040294
:1008D00040F82120002030BDD1E9034542F0080254
:1008E0002C4322434C6922438C692243CC69224326
:1008F0000C6A22434C6A22438C6A2243CC6A22430C
:100900000C6B0968224350F821401C40224342F0FE
:100910004002DDE78100F7FF30B5D1E9003443EA5A
:1009200004138C688D89240244EA054423430C8A0D
:10093000094D00EB820005EB045423430C7D6D014F
:1009400005EB0464896923430B43416801F040418E
:100950000B434360002030BD0000F0FF70B504463B
:1009600000F042F90546601C02D0044800780444B7
:1009700000F03AF9401BA042FAD370BD10000020ED
:1009800030B585B00020009001900290039012488D
:10099000016800291ED1012101601048416941F41C
:1009A000807141614069022400F4807004904FF628
:1009B0008070CDE90004032569460395084800F0DE
:1009C00015F84CF6B370CDE9000469460395054867
:1009D00000F00CF805B030BD080000200010024007
:1009E0000018014000140140704700002DE9F84F45
:1009F000DFF8B8A100220AF1040B144601274FF0DA
:100A00000F090BF1040E00BF0B6807FA04F52B4029
:100A1000AB4274D1DFF898C14E68A6EB0C0866456E
:100A20002BD00DDC032E34D005DC36B3012E19D0CB
:100A3000022E2FD11BE0112E16D0122E2AD119E032
:100A4000B8F5881F19D006DCB8F5803F15D0B8F589
:100A5000801F1FD111E0B8F5001F0ED0B8F5041F9C
:100A600018D10AE0CA6815E0CA68121D12E0CA6807
:100A700008320FE0CA680C320CE08A682AB1012AF9
:100A80004FF0080203D0456104E0042202E0056152
:100A900000E00022FF2B01D8064601E000F1040629
:100AA0004FEA840501D9A5F12005D6F800C009FA5E
:100AB00005F82CEA080C02FA05F54CEA050CC6F814
:100AC00000C04D68ED006AD53A4DAE6946F00106AA
:100AD000AE61AD6924F0030605F001050095364DC1
:100AE00006EB050CDCF80850A6074FEA167809FA61
:100AF00008F6B543314EB04202D100261AE04EE06E
:100B00002F4EB04201D1012614E02E4EB04201D149
:100B100002260FE02C4EB04201D103260AE02B4EF4
:100B2000B04201D1042605E0294EB04201D105268C
:100B300000E0062606FA08F62E43CCF808604D6859
:100B4000DAF80060ED03554601D51E4300E09E43F0
:100B50002E604D68AD0305D5DBF800601E43CBF871
:100B6000006004E0DBF800509D43CBF800504D6876
:100B7000DEF80060ED02754601D51E4300E09E439D
:100B80002E604D68AD0205D5084D0C352E681E430C
:100B90002E6004E0054E0C3635689D433560641CBC
:100BA000102CFFF431AFBDE8F88F000000040140C5
:100BB0000000111000100240000001400008014038
:100BC000000C0140001001400014014000180140D9
:100BD000001C01408068084000D0012070470AB125
:100BE000016170470904FBE7014880687047000015
:100BF000100000200248816802781144816070472B
:100C000010000020074810B5016841F01001016094
:100C1000032000F073F8002000F006F800F024F83C
:100C2000002010BD0020024070B50D4D04464FF469
:100C30007A712878B1FBF0F00A490968B1FBF0F04D
:100C400000F009FB48B9102C07D200222146501EA3
:100C500000F034F800206C6070BD012070BD000011
:100C6000100000201C0000200C4808B5816941F0EC
:100C700001018161816901F001010091C16941F0C7
:100C80008051C161C06900F0805000900448416803
:100C900021F0E06141F00071416008BD00100240A8
:100CA0000000014000F01F02012191404009800036
:100CB00000F1E020C0F8001170470000F0B40E4BC6
:100CC0001B680C46C3F30223C3F10705042D00D9AA
:100CD0000425191D072901D2002300E0DB1E01268F
:100CE00006FA05F1491E214099409E40761E1640A5
:100CF0003143F0BC00F096BD0CED00E0064900F079
:100D0000070208684FF6FF03184040EA0220034A32
:100D100010430860704700000CED00E00000FA0589
:100D20002DE9F047DFF8548105460E46D8F800005B
:100D300000F00700B0420CD2D8F8001021F00701F3
:100D40003143C8F80010D8F8000000F00700B042A6
:100D50006FD128684A4C810712D5400703D56068D7
:100D600040F4E06060602878000703D5606840F4D4
:100D7000605060606068A96820F0F000084360601F
:100D80002878C00744D06868012816D02168022856
:100D900016D0890700294CDA616821F0030101436C
:100DA0006160FFF721FF6968074641F28830012939
:100DB0000ED00229814618D026E021688903E9E790
:100DC0008901E7E7FFF710FFC11B494501D918E08A
:100DD00081466068C0F381000128F3D118E000BFAC
:100DE000FFF702FFC11B49450BD86068C0F38100C3
:100DF0000228F5D10CE000BFFFF7F6FEC11B494504
:100E000002D90320BDE8F087606810F00C0FF3D121
:100E1000D8F80010404601F00701B1420BD9016833
:100E200021F0070131430160006800F00700B04283
:100E300001D00120E6E72878400705D56068E96819
:100E400020F4E060084360602878000706D56068F9
:100E5000296920F4605040EAC100606000F016F893
:100E60006168084AC1F30311515CC8400649086033
:100E70000020FFF7D9FE0020C4E700000020024058
:100E800000100240E02C00081C00002012A185B0D8
:100E90000FC98DE80F0014A0144A0068049051682F
:100EA000134801F00C03042B10D0082B0ED1C1F312
:100EB0008343C9031DF803000AD5516804AAC1F38E
:100EC0004041515C0A4A5043B0FBF1F005B0704715
:100ED00008494843FAE70000020304050607080929
:100EE0000A0B0C0D0E0F1010010200000010024042
:100EF00000127A0000093D002DE9F84F0446007801
:100F0000B94DC00748D06868C0F38100012807D0F8
:100F10006868C0F38100022809D16868C00306D55B
:100F20002868800338D5606800286FD034E0606896
:100F3000B0F5803F0BD010B1B0F5A02F11D02868CC
:100F400020F480302860286820F4802002E028689F
:100F500040F480302860606888B1FFF745FE06469F
:100F600009E0286840F480202860F0E7FFF73CFEA5
:100F7000801B642875D828688003F7D50CE0FFF73C
:100F800033FE064605E000BFFFF72EFE801B6428F7
:100F9000F0D828688003F7D42078944E80074FF06B
:100FA00001094FF000083BD5686810F00C0F07D01E
:100FB0006868C0F38100022809D16868C00306D4BC
:100FC0002868800714D5206901281FD110E0206906
:100FD000B0B1C6F80090FFF707FE074605E000BF76
:100FE000FFF702FEC01B0228C4D828688007F7D587
:100FF0002868616920F0F80040EAC10028600FE02D
:10100000C6F80080FFF7F0FD074606E0E9E000BF04
:10101000FFF7EAFDC01B022823D828688007F7D411
:10102000207800072CD57248A169D9B1C0F800908A
:10103000FFF7DAFD074604E0FFF7D6FDC01B0228E4
:101040000FD8686A8007F7D56A484FF4FA510068EC
:10105000B0FBF1F0009000BF0098411E0091FAD261
:101060000EE080E0C0F80080FFF7BEFD074604E018
:10107000FFF7BAFDC01B022875D8686A8007F7D44D
:101080002078400760D5E8690027C00008D4E869E7
:1010900040F08050E861E869012700F0805000903E
:1010A00055480168C90513D40168834641F480712D
:1010B0000160FFF799FD824606E000BFFFF794FD4F
:1010C000A0EB0A0064284ED8DBF80000C005F5D577
:1010D000E06801280AD008B1052813D0286A20F05A
:1010E00001002862286A20F0040002E0286A40F02B
:1010F00001002862E06841F2883B98B1FFF774FD77
:1011000082460BE0286A40F004002862EEE700BF48
:10111000FFF76AFDA0EB0A0159455AD8286A8007F3
:10112000F6D50CE0FFF760FD824605E0FFF75CFDB9
:10113000A0EB0A0159454CD8286A8007F6D41FB1A4
:10114000E86920F08050E861E06988B36968C1F31C
:101150008101022945D00228C6F8608004D0FFF73B
:1011600043FD044638E034E0FFF73EFD074604E067
:10117000FFF73AFDC01B02282BD828688001F7D45E
:10118000206AB0F5803F05D16868A16820F400307E
:1011900008436860D4E908010843696821F47411C0
:1011A00008436860C6F86090FFF71EFD044606E03D
:1011B00015E000BFFFF718FD001B022809D82868BA
:1011C0008001F7D50BE000BFFFF70EFD001B0228E2
:1011D00002D90320BDE8F88F28688001F4D40020EC
:1011E000F8E70120F6E7000000100240000042424C
:1011F000800442421C0000200070004070B515467B
:101200000E46040003D094F83D0010B107E0012021
:1012100070BD002084F83C00204600F01AF804F16C
:1012200008012068FFF72CFB3146A2682068FFF711
:1012300073FBD4E901022946236BFFF703FBA16886
:10124000206850F8212042F0010240F821200020BF
:1012500070BDFFF795BB10B5401EB0F1807F01D384
:10126000012010BD4FF0E02460610F21601700F0F5
:10127000D9FA0020A06107202061002010BDFEE700
:10128000044B4FF4805108B1002200E001221846BF
:10129000FFF7A5BC0014014070B51D461446049E1E
:1012A00000F018F904FB05F03146BDE8704000F08D
:1012B000EFB8000070B5203AD4B21023082200F035
:1012C00009F92C20C10608800C490D4B01EB0415CF
:1012D00000204FF6FF742A5C0021D60702D01F269B
:1012E0001E8000E01C80491C5208C9B20829F4D3B2
:1012F000401CC0B21028EED370BD00006C26000860
:101300000000026070B40B4600244FF0C0462A2152
:10131000318009490C8008800C8008802B203080A7
:101320000C800B800C800B802C20308070BC114610
:10133000012000F0ADB80000000002602DE9FE4F72
:10134000161ACDE900104FF000085D1A47464FF01D
:10135000FF30002E02DD4FF0010102E003D14FF01B
:1013600000018B4602E08346C6F10006002D02DD37
:101370004FF0010002E003D14FF00000824602E08E
:101380008246C5F10005AE4201DD344600E02C4640
:10139000601C4FF0000902901AE000BFDDE9001068
:1013A0000C9AFFF7AFFFB0442F44A04505DD01982C
:1013B000A8EB0408584480B20190A74204DD0098CD
:1013C0003F1B504480B2009009F101001FFA80F9E0
:1013D00002998945E2DDBDE8FE8F2DE9F84799467F
:1013E00087180D4604464FF000088BB2DDF824A0A4
:1013F000BAB289B280B2CDF80080FFF79FFF05EB4B
:101400000906B3B2A2B2A9B2A0B2CDF80080FFF72C
:1014100095FFB3B2BAB2A9B2B8B2CDF80080FFF767
:101420008DFFB3B2BAB2B1B2A0B2CDF80080FFF76F
:1014300085FFA9F10A0000EBD07005EB600081B2D6
:101440000A34A0B25246BDE8F84700F001B80000E7
:10145000F0B516460D4604464FF4A07714E000BFE1
:1014600004F10800F02802D900241035ADB205F1CE
:101470001000B84201D90024254629462046FFF72E
:1014800019FF0834A4B2761C3278002AE8D1F0BDE6
:1014900010B500222C23DC062380034B01E01980C9
:1014A000521C8242FBD310BD0000026008B501202F
:1014B000FFF7E6FE00F0EAF800F02CF84FF6FF70B8
:1014C000002100904FF4A073F0220846FFF7E4FEDD
:1014D00008BD000070B54FF0C0452A242C800C4C8C
:1014E000060A2680C6B226801044401E020A2280C8
:1014F000C0B220802B202880080A2080C8B220801B
:10150000C818401E010A2180C0B2208070BD0000B2
:101510000000026000B54FF0C041CF20088059485C
:10152000002202808122028030220280ED220A8085
:101530006422028003220280122202808122028021
:10154000E8220A808522028010220280782202800E
:10155000CB220A80392202802C22028000220280C3
:101560003422028002220280F7220A802022028096
:10157000EA220A80002202800280B1220A80002230
:1015800002801B220280B6220A800A220280A22246
:101590000280C0220A8035220280C1220A801122E4
:1015A0000280C5220A80452202800280C7220A806A
:1015B000A2220280F2220A800022028026220A80D1
:1015C00001220280E0220A800F220280262202806D
:1015D000242202800B2202800E2202800922028035
:1015E00054220280A8220280462202800C2202801D
:1015F00017220280092202800F2202800722028025
:1016000000220280E1220A80002202801922028048
:101610001B22028004220280102202800722028004
:101620002A2202804722028039220280032202807D
:1016300006220280028030220280382202800F229D
:10164000028036220A80C82202802A220A800022D2
:10165000028002800280EF2202802B220A80002278
:1016600002800280012202803F2202803A220A8008
:1016700055220280112008800348FFF7CBF829206B
:10168000088000BD00000260FCBF020070B50A4C7B
:10169000002202212046FFF7A2FA084D2846FFF754
:1016A000B9F8012202212046FFF799FA2846BDE841
:1016B0007040FFF7AFB8000000180140FCBF020007
:1016C00000B587B01C216846FEF765FD15484FF050
:1016D0002041102201601449416000218160C160F5
:1016E000C0E904128161C16113020162C0E90913FA
:1016F000C1620163416381630F20FF230090CDE944
:101700000103CDE903021120CDE90501002269465C
:101710000448FFF773FD0548C16941F48061C16168
:1017200007B000BD20000020040100A0000001401F
:101730002DE9F04186B000243448009401940294CD
:101740000394816941F040018161816901F04001A8
:101750000491816941F010018161816901F01001FA
:101760000491816941F004018161816901F0040102
:101770000491816941F0200181618069244F00F06A
:1017800020004FF480560490002231463846FFF77F
:1017900026FADFF88080002202214046FFF71FFA78
:1017A0001D20CDE90004694640460294FFF71EF96A
:1017B000012519480095CDE9010469461748FFF74E
:1017C00015F9CDE900650226CDE90246694638469D
:1017D000FFF70CF96803CDE9000469463846029426
:1017E000FFF704F9CDE90065CDE9024669464046B8
:1017F000FFF7FCF8002211460620FFF75FFA0620EB
:10180000FFF750FA06B0BDE8F0810000001002407A
:1018100000140140001801400000111000080140B0
:10182000FEE770470907090E002806DA00F00F00EE
:1018300000F1E02080F8141D704700F1E02080F8EE
:101840000014704770477047FFF7D4B930B58FB0B8
:1018500028216846FEF79FFC14210AA8FEF79BFC8E
:1018600001210804CDE9001000240294022504910E
:10187000CDE907504FF4E01009906846FFF73CFBB4
:101880000F20CDE90A056802CDE90C4002210AA823
:101890000E94FFF745FA0FB030BD00000D48016807
:1018A00041F00101016041680B4A1140416001684B
:1018B0000A4A11400160016821F4802101604168F9
:1018C00021F4FE0141604FF41F0181600449C0030F
:1018D00008607047001002400000FFF8FFFFF6FEAE
:1018E00008ED00E0FEE700000FB4084B10B504A9B6
:1018F00002AA039800F0DEF8044602A9002000F0D6
:1019000070FC204610BC5DF814FB0000E3210008C9
:1019100002E008C8121F08C1002AFAD170477047B8
:10192000002001E001C1121F002AFBD17047000016
:101930002DE9FF5F82B00021DDE90430020DDDF802
:1019400040B0034318D044F61050A2F2FF32424395
:101950001514119801281FD0A5EB0B00401C5FEA5D
:10196000000A4FF000064E4FDFF83891B04650465F
:1019700015D5CAF1000413E0119801244AA30128E7
:1019800001D16FEA0B010298119AC0E90031C0E958
:10199000024206B0BDE8F09FCBF10000DFE704464D
:1019A0000021404A491842EB0450CDE9001012E0F2
:1019B000E00707D032463B4640464946FEF786FDE3
:1019C0008046894632463B4610461946FEF77EFD64
:1019D00006460F466410002CEAD1DDE90401DDE97A
:1019E0000023BAF1000F06DAFEF770FD42464B46BF
:1019F000FEF76CFD05E0FEF7DBFD42464B46FEF7C9
:101A0000D7FD04460E460022284BFEF759FE03D8A8
:101A10004FF0FF30014607E00022254B20463146BB
:101A2000FEF7ADFCFEF733FE102409E0002C0ADBC4
:101A30000A220023FEF73BFC039B30321A55641E3A
:101A400050EA0102F2D1641C039AC4F11103144458
:101A5000119A012A03D0012208430DD10AE008435C
:101A600004D000204FF0110B119072E7A3EB0B058F
:101A70006D1E0DE05B4504DD4FF0000205F1010530
:101A800004E003DA4FF00002A5F10105002AECD0D2
:101A900002981199C0E90231C0E9004579E70000D8
:101AA000000014400000F03F300000000000F04350
:101AB0000000E03F2DE9FF4F95B09B468946064662
:101AC00000250FE2252877D100242746F84A012176
:101AD000059400E0044316F8013F203B01FA03F0AF
:101AE0001042F7D130782A2811D06FF02F033078C8
:101AF000A0F13002092A16D8059A44F0020402EB3C
:101B0000820203EB42021044761C0590EFE759F87D
:101B1000042B0592002A03DA504244F40054059045
:101B200044F00204761C30782E2816D116F8010FE6
:101B300044F004042A280DD06FF02F023078A0F171
:101B40003003092B09D807EB870302EB4303C718BF
:101B5000761CF3E759F8047B761C30786C280FD09C
:101B600006DC4C2817D068280DD06A2814D104E070
:101B7000742810D07A280FD10DE044F400140AE044
:101B800044F4801401E044F440147278824202D19B
:101B900004F58014761C761C307866280BD013DC94
:101BA000582877D009DC002875D04528F6D046287B
:101BB000F4D047281AD19DE118E0632835D0642875
:101BC00079D0652812D195E1702873D008DC672898
:101BD000F1D069286FD06E280DD06F2806D1B5E0FE
:101BE00073282CD0752875D0782874D05A46179948
:101BF00090476D1C75E1C4F30250022809D00328F8
:101C00000DD0D9F8001004280DD00D6009F1040999
:101C100067E1D9F80010EA17C1E90052F6E7D9F8F0
:101C200000100D80F2E70D70F0E719F8041B8DF835
:101C3000001000208DF80100EA46012003E059F869
:101C400004AB4FF0FF3061074FF0000102D40DE00C
:101C500008F101018846B9420FDA8045F8DB1AF82D
:101C600008100029F4D108E008F1010188468142FA
:101C7000FADB1AF808100029F6D105985B46A0EBAC
:101C8000080721463846179A00F094FA284400EBDA
:101C9000080507E04DE029E10DE01AF8010B5A466E
:101CA00017999047B8F10108F7D25B4621463846AC
:101CB000179A13E142E00A220092C4F302524FF055
:101CC000000A022A08D059F804CB032A4FEAEC7123
:101CD0000AD00DE029E02AE009F1070121F007020E
:101CE000F2E802C1914609E00FFA8CFC4FEAEC7170
:101CF000042A03D14FFA8CFC4FEAEC71002907DA71
:101D00000A460021DCF1000C61EB02012D2202E009
:101D1000220504D52B228DF80420012203E0E207DE
:101D200001D02022F7E7904659E00A2102E0102274
:101D30000DE010214FF0000A00910BE010224FF04F
:101D4000000A44F004040827009203E008224FF040
:101D5000000A0092C4F30252022A05D059F804CBBB
:101D60000021032A08D009E009F1070121F0070248
:101D7000F2E802C1914605E01FFA8CFC042A01D169
:101D80000CF0FF0C4FF00008220728D5702806D071
:101D9000009B83F0100353EA0A0305D00EE04022B3
:101DA0008DF80420012208E05CEA010206D030220E
:101DB0008DF804208DF8050002229046009B83F0E8
:101DC000080353EA0A030AD15CEA010201D162075F
:101DD00005D530228DF804204FF001087F1E5828C9
:101DE00004D034A003900EA802900DE036A0F9E7CD
:101DF00053466046009AFEF75AFA84460398825C7E
:101E00000298401E029002705CEA0100F0D1029834
:101E100006A9081A00F1200A600702D524F48034CC
:101E200000E00127574502DDA7EB0A0000E0002093
:101E300000EB0A01009005984144401A0590E00328
:101E400006D45B462146179A059800F0B3F905447D
:101E5000002706E001A85A46C05D179990476D1CFF
:101E60007F1C4745F6DBE0030CD55B462146179AFD
:101E7000059800F09FF9054404E030205A46179970
:101E800090476D1C0099481E00900029F5DC08E081
:101E9000029802995A460078491C02911799904776
:101EA0006D1CBAF10001AAF1010AF1DC65E1000044
:101EB0000928010030313233343536373839616220
:101EC00063646566000000003031323334353637E4
:101ED00038394142434445460000000000F058F9BB
:101EE0000544761C307800287FF4ECAD19B0284604
:101EF000BDE8F08F620700D4062709F1070222F03F
:101F0000070CFCE80223E14603F000485FEA080CF6
:101F100002D00FF2702C0DE05FEA045C02D50FF2E4
:101F2000682C07E05FEAC47C02D00FF2602C01E06D
:101F3000AFF2700C4FF0FF3823F00043CDF850C0E3
:101F400065280CD006DC452809D046281DD0472836
:101F50003DD13DE0662818D067287ED138E00021C9
:101F6000112F01DB112000E0781CCDE9000106A94A
:101F70000EA8FFF7DDFCDDE90F010E9A03910021A9
:101F8000009207F1010A04914DE04FF000400097E4
:101F9000CDE9011006A90EA8FFF7CAFCDDE90F0282
:101FA00003920E9B11990022DDF80CA0009304927D
:101FB00011B9791C00EB010AB7EB0A0004D4C0F197
:101FC000FF3007F1010A0490AAEB0700019044E0FA
:101FD000012F00DA01270021112F01DD112000E07F
:101FE0003846CDE9000106A90EA8FFF7A1FCDDE9FE
:101FF0000F010E9A0391002104910092BA46210725
:102000000CD40399514500DA8A46BAF1010F05DD77
:10201000009AAAF10101515C302908D0B84202DAD5
:1020200010F1040F06DA0121CDE9011015E0AAF143
:102030000101E9E7002805DC049901440491AAEBB9
:10204000000102E0411C514500DD8A460499401A16
:10205000401C01904FF000400290200704D40198EA
:10206000504501DBCDF8048000208DF84F00029828
:102070000DF14F07B0F1004F25D02B200E900298A4
:102080004FF0020800280CDA404202902D200E90FA
:1020900007E00A210298FEF7F4F83031029007F8C1
:1020A000011DB8F10001A8F10108F2DC0298002836
:1020B000EFD1791E0E980870307800F0200040F0C3
:1020C000450007F8020D12A8C01B00F1070814987C
:1020D000007800B1012000EB0A01019801EBE071EA
:1020E00005984144401A401E0590E00306D45B4623
:1020F0002146179A059800F05DF805441498007879
:1021000018B15A46179990476D1CE00324D55B46D9
:102110002146179A059800F04DF805441CE00498F4
:10212000002807DBDDE90301884203DD0098405CFD
:10213000179901E0179930205A469047049805F105
:102140000105401C04900198401E019004D12E20EE
:102150005A46179990476D1CBAF10001AAF1010A7D
:10216000DDDC05E017F8010B5A46179990476D1C06
:10217000B8F10001A8F10108F4DC5B462146179A8A
:102180000598ABE62D0000002B00000020000000A9
:102190002DE9F041044600251E461746880404D464
:1021A00005E039462020B0476D1C641EF9D528464D
:1021B000BDE8F0812DE9F041044600251E46904619
:1021C000C80301D5302700E02027880404D505E0A6
:1021D00041463846B0476D1C641EF9D52846BDE817
:1021E000F0810A68531C0B6010707047D0B5444CE6
:1021F0008EB02068FEF732F802460B4641A101A8D6
:10220000FFF772FB322142A20846FFF721F945A0F1
:1022100000902823642296213220FFF7DEF844A0A4
:10222000009028236422C8213220FFF7D6F843A269
:102230004FF49671AA20FFF70BF9642101AA084612
:10224000FFF706F94FF07C574FF6FF7600F058F98C
:102250000028FBD03B482844B0F54E0F2DD83A4912
:102260008D420CDB39498D4209DC39462068FDF787
:10227000EFFF2060FDF7F2FF0B4602460EE0344907
:102280008D421ADB33498D4217DC39462068FDF751
:102290008DFF2060FDF7E2FF02460B462EA101A84C
:1022A000FFF722FB3223F02264210A200096FEF77A
:1022B000F3FF642101AA96201DE02A496818B0F5B1
:1022C0008C0F05D849428D4202DB27498D4215DD2E
:1022D00026A264211420FFF7BBF84FF47A70FEF7B2
:1022E0003DFB3223F02264210A200096FEF7D4FF42
:1022F00001AA64213220FFF7ABF8A7E70EB0D0BDEA
:102300000000002025302E316620686F75720000B5
:10231000496E7075742077696E64696E6720686FA6
:10232000757200002D20312F3220686F7572000009
:102330002B20312F3220686F757200004E65787443
:10234000203E3E000000B8BD0000164300003E43A2
:10235000000048430000704325302E316609686F45
:10236000757200000000CCBC0000AF43506C65618A
:1023700073652073656C6563742076616C69642095
:10238000696E7075742E0000F0B53D4E8FB03DA1A2
:1023900001A87268FFF7A8FA32213BA20846FFF7AE
:1023A00057F83FA096220090282311463220FFF7CD
:1023B00014F83FA0009028239622C8213220FFF76E
:1023C0000CF83FA24FF49671AA20FFF741F8642160
:1023D00001AA0846FFF73CF83B4D4FF6FF7700BFD8
:1023E00000F08EF80028FBD038496018B0F54E0F89
:1023F00021D837498C4205DB36498C4202DC7268B1
:10240000643A06E0AC4216DB33498C4213DC726856
:1024100064321CA101A87260FFF766FA3223F02231
:1024200064210A200097FEF737FF01AA6421962055
:10243000FFF70EF8D4E729496018B0F58C0F05D8DE
:102440004842844202DB2648844216DD25A26421EC
:102450001420FEF7FDFF4FF47A70FEF77FFA322367
:10246000F02264210A200097FEF716FF01AA6421DA
:102470003220FEF7EDFF2C46B2E70FB0F0BD0000B2
:102480000000002025640000496E70757420726F92
:10249000746174696F6E206E756D62657200000004
:1024A0002D2031303020726F746174696F6E0000BE
:1024B0002B2031303020726F746174696F6E0000B0
:1024C0004E657874203E3E00000048430000B8BDD1
:1024D0000000164300003E43000070430000CCBCE7
:1024E0000000AF43506C656173652073656C656374
:1024F000742076616C696420696E7075742E0000BA
:1025000070B5084D10212846FEF764FB38B1002451
:10251000012210212846FEF762FB204670BD0124EF
:10252000F6E700000018014008B5FEF76BFBFFF767
:102530008DF9FFF7FDF8FFF7C3F8FEF7B7FF4FF689
:10254000FF744FF4A07500BFFFF7DAFF0028FBD03F
:1025500000F034F8A0B10128F6D100212B46F0227A
:1025600008460094FEF798FEFFF70EFF00212B4669
:10257000F02208460094FEF78FFEFFF737FEE3E7F0
:1025800000212B46F02208460094FEF785FEDBE78B
:10259000322102A20846FEF75BBF0000506C616367
:1025A0006520776174636820746F2073746172743E
:1025B0002077696E64696E672E00000008B53221CD
:1025C00017A20846FEF744FF1AA09622009028237F
:1025D00011463220FEF701FF1BA00090282396220F
:1025E000C8213220FEF7F9FE4FF49670FEF7B6F9D7
:1025F000FFF786FF0028FBD017482844B0F1807F02
:102600000BD81648844204DB1548844201DC0020C4
:1026100008BD1448844200DB1348012008BD0000B7
:1026200053656C65637420696E707574207479707D
:1026300065000000507265646566696E6564206DB2
:102640006F64656C000000004D616E75616C2069FF
:102650006E707574000000000000B8BD00001643E5
:1026600000003E43000048430000704300000000AB
:102670000000000000000000000000000000001842
:102680003C3C3C18180018180000000000000066D0
:102690006666000000000000000000000000006C02
:1026A0006CFE6C6C6CFE6C6C000000000018183C3A
:1026B00066060C183060663C1818000000000E1BFF
:1026C0005B6E30180C76DAD8700000000000001C39
:1026D00036361C06F66666DC0000000000000018B6
:1026E000181800000000000000000000000000308A
:1026F00018180C0C0C0C0C18183000000000000C02
:102700001818303030303018180C0000000000006D
:10271000006C38FE386C0000000000000000000073
:102720000018187E181800000000000000000000CB
:1027300000000000000038383018000000000000E1
:102740000000007E0000000000000000000000000B
:1027500000000000000038380000000000000060A9
:1027600060303018180C0C060600000000000078DD
:10277000CCECECCCDCDCCC780000000000000030BD
:10278000383E303030303030000000000000003C77
:1027900066666030180C067E000000000000003CF9
:1027A000666660386066663C000000000000000C51
:1027B0000C6C6C6C66FE6060000000000000007E27
:1027C0000606063E6060301E000000000000003873
:1027D000180C3E666666663C000000000000007E45
:1027E00060303018180C0C0C000000000000003C99
:1027F00066666E3C7666663C000000000000003CA9
:10280000666666667C30181C000000000000000050
:1028100000383800000038380000000000000000D8
:102820000038380000003838301800000000006020
:1028300030180C060C18306000000000000000008A
:1028400000007E007E000000000000000000000686
:102850000C18306030180C06000000000000003C2E
:102860006666301818001818000000000000007E8E
:10287000C3C3F3DBDBF303FE00000000000000181D
:102880003C6666667E666666000000000000003EEC
:102890006666663E6666663E000000000000003C1C
:1028A000666606060666663C000000000000001E24
:1028B000366666666666361E000000000000007E12
:1028C0000606063E0606067E000000000000007EAA
:1028D0000606063E06060606000000000000003C54
:1028E000666606067666667C0000000000000066EC
:1028F0006666667E66666666000000000000003C54
:10290000181818181818183C000000000000006083
:10291000606060606066663C000000000000006669
:102920006636361E36366666000000000000000679
:10293000060606060606067E00000000000000C629
:10294000C6EED6D6D6C6C6C600000000000000C639
:10295000C6CEDEF6E6C6C6C6000000000000003C9B
:10296000666666666666663C000000000000003E23
:102970006666663E06060606000000000000003C93
:10298000666666666666663C306000000000003E73
:102990006666663E36666666000000000000003C23
:1029A00066060C183060663C000000000000007EE7
:1029B00018181818181818180000000000000066F1
:1029C000666666666666663C00000000000000669B
:1029D0006666666666663C1800000000000000C679
:1029E000C6C6D6D6D66C6C6C00000000000000662F
:1029F000662C181834666666000000000000006649
:102A00006666663C18181818000000000000007E7A
:102A1000606030180C06067E000000000000003CDC
:102A20000C0C0C0C0C0C0C0C0C0C3C0000000006EC
:102A3000060C0C1818303060600000000000003CEC
:102A4000303030303030303030303C0000183C66B0
:102A50000000000000000000000000000000000076
:102A600000000000000000000000FF00001C183003
:102A70000000000000000000000000000000000056
:102A8000003C60607C66667C000000000000000680
:102A9000063E66666666663E0000000000000000B6
:102AA000003C66060606663C000000000000006070
:102AB000607C66666666667C0000000000000000C0
:102AC000003C66667E06063C0000000000000078C0
:102AD0000C0C0C7E0C0C0C0C000000000000000024
:102AE000007C66666666667C60603E0000000006EC
:102AF000063E6666666666660000000000001818FE
:102B0000001E18181818187E000000000000303051
:102B1000003C30303030303030301E0000000006D5
:102B2000066666361E366666000000000000001E5F
:102B3000181818181818187E00000000000000006F
:102B4000007ED6D6D6D6D6C6000000000000000013
:102B5000003E6666666666660000000000000000D3
:102B6000003C66666666663C0000000000000000EF
:102B7000003E66666666663E0606060000000000C9
:102B8000007C66666666667C60606000000000002F
:102B90000066760E06060606000000000000000033
:102BA000007C06063C60603E000000000000000C57
:102BB0000C7E0C0C0C0C0C780000000000000000D7
:102BC000006666666666667C000000000000000025
:102BD0000066666666663C180000000000000000A3
:102BE00000C6D6D6D6D66C6C0000000000000000EF
:102BF0000066663C183C66660000000000000000AD
:102C0000006666666666663C30180F0000000000CD
:102C1000007E6030180C067E0000000000000030CE
:102C20001818180C060C18181830000000000018AE
:102C30001818181818181818181818000000000C80
:102C40001818183060301818180C00000000008E9A
:102C5000DB71000000000000000000000000000028
:102C6000F6FFFFFF00000000710000007700000089
:102C70006500000072000000740000007900000090
:102C800075000000690000006F0000007000000087
:102C900020000000610000007300000064000000DC
:102CA0006600000067000000680000006A00000085
:102CB0006B0000006C000000200000007A000000A3
:102CC0007800000063000000760000006200000051
:102CD0006E0000006D0000002000000020000000D9
:102CE00000000000000000000102030406070809BC
:102CF000102D00080000002020000000101900081E
:102D0000302D000820000020480400002019000891
:102D100000000000000000000000000000000000B3
:102D200001000000100000000000000000A24A04A2
:0400000508000131BD
:00000001FF
