:020000040800F2
:1000000008050020450100085B1B00086D1500086D
:10001000591B000861080008211C000800000000AE
:10002000000000000000000000000000851B000828
:1000300063080008000000005D1B0008871B000823
:100040005F0100085F0100085F0100085F01000810
:100050005F0100085F0100085F0100085F01000800
:100060005F0100085F010008750800085F010008D3
:100070005F0100085F0100085F0100085F010008E0
:100080005F0100085F0100085F0100085F010008D0
:100090005F0100085F0100085F0100087D0800089B
:1000A0005F0100085F0100085F0100085F010008B0
:1000B0005F0100085F0100085F0100085F010008A0
:1000C0005F0100085F0100085F0100085F01000890
:1000D0005F0100085F0100085F0100085F01000880
:1000E0005F0100085F0100085F0100085F01000870
:1000F0005F0100085F0100085F0100085F01000860
:100100005F0100085F0100085F0100085F0100084F
:100110005F0100085F0100085F0100085F0100083F
:100120005F0100085F0100085F0100085F0100082F
:10013000DFF80CD000F082FB00480047D12B00080C
:10014000080500200648804706480047FEE7FEE70E
:10015000FEE7FEE7FEE7FEE7FEE7FEE7FEE7FEE777
:10016000D91B000831010008202A04DB203A21FABB
:1001700002F00021704721FA02F3D040C2F12002C0
:100180009140084319467047D2B201E000F8012BB4
:10019000491EFBD270470022F6E710B513460A4607
:1001A00004461946FFF7F0FF204610BD10B50022A7
:1001B00000E0521C835C8C5CA34201D1002BF8D17F
:1001C000D8B2E1B2401A10BD2DE9FE4F804681EA57
:1001D0000300C00F0C46009021F0004123F00045C1
:1001E000B8EB0200A94105D24046214690461C4684
:1001F0000B46024623F00040104347D0270DC7F3BB
:100200000A00C3F30A510290401A019040286BDAA9
:10021000C3F3130040F4801B0098924620B10023E2
:10022000D2EB030A63EB0B0B01985946C0F1400275
:10023000504600F01DFA06460D4650465946019AB2
:1002400000F025FA10EB08006141002487EA115202
:1002500084EAE7731A4340D0009A62B3019A012AF4
:100260004FEA075215DC001B61EB02014FF0004220
:1002700002EA0752CDE90042001C41F580113246E6
:100280002B4600F05CFA03B0BDE8F08F40462146F3
:10029000F9E7001B61EB0201001C41F58013001817
:1002A0005B412018A2F5001747EB030140EAD57027
:1002B000B6196D4111E06D084FEA360645EAC07582
:1002C0004FEA0752001B61EB0201001C41F580114F
:1002D00049084FEA30000019514132462B4603B01D
:1002E000BDE8F04F00F01CBA009801224000002346
:1002F000D0EB020263EBE073009821464FEAE07412
:10030000B8EB000061EB0401E9E783F000435BE731
:1003100081F0004158E72DE9FE4F81EA030404F023
:10032000004421F0004100944FF0000B23F0004303
:1003300050EA01045ED052EA03045BD0C3F30A54CE
:10034000C1F30A552C44A4F2F3340194A0FB0254E7
:10035000C1F3130141F48011C3F3130343F4801379
:1003600001FB024400FB034E840A970A44EA8154CD
:1003700047EA8357A4FB076802958D0A05FB0785AA
:100380004FEA932C04FB0C542705029D4FEA0658B4
:1003900047EA1637B5EB08056EEB070C870E920E91
:1003A00047EA811742EA8312A7FB0201B6EB0B0171
:1003B00064EB00042B0D43EA0C335E1844EB1C5035
:1003C000DA465146E7FB0201C5F313044FEA0B334B
:1003D00043EA14534FEA0432019C43EA0603A4F1B2
:1003E0000C040294009CCDE900B400F0A8F903B01D
:1003F000BDE8F08F00200146F9E72DE9F04D81EAD4
:10040000030404F0004B21F0004514464FF0000AAD
:1004100023F0004150EA050220D054EA01021DD029
:10042000C5F30A570246C5F31303C1F31300C1F322
:100430000A5640F4801543F48013A7EB0608101BFE
:10044000D64608F2FD3873EB050002D308F1010827
:1004500001E092185B41B8F1000F03DA0020014679
:10046000BDE8F08D00204FF48011064684460EE072
:10047000171B73EB050705D3121B63EB050306433C
:100480004CEA010C49084FEA300092185B4150EAEF
:100490000107EDD152EA030012D082EA040083EA98
:1004A0000501084305D0101BAB4106D201220023F1
:1004B00006E000224FF0004302E06FF0010253100B
:1004C0001AEB06004CEB085110EB0A0041EB0B0154
:1004D000BDE8F04D00F024B90EB5C10F80EAE07020
:1004E0000844CA07002140F233438DE80E000A4653
:1004F0000B4600F024F903B000BD0EB540F23341C5
:1005000002910021CDE900110A460B4600F017F9CF
:1005100003B000BD70B5C1F30A5201F000450024DC
:10052000C1F3130140F2FF3341F480119A4201DA22
:10053000002070BD40F233439A42A2F2334203DC02
:100540005242FFF711FE00E090402C43F1D04042B0
:1005500070BDC1F30A5210B5C1F3130140F2FF336D
:1005600041F480119A4201DA002010BD40F2334379
:100570009A42A2F2334203DC5242FFF7F5FD10BD6E
:10058000904010BD00F0004230F000400AD0C10D94
:1005900001F56071C0F3160042EA0151C20840073C
:1005A0001143704700200146704701F0004330B40A
:1005B00021F0004150EA010206D00A0DA2F5607256
:1005C000C1F31301002A02DC30BC00207047440F45
:1005D00044EAC104C100E01830BC00EBC25000F096
:1005E00068B830B50B46014600202022012409E0FE
:1005F00021FA02F59D4205D303FA02F5491B04FADC
:1006000002F52844151EA2F10102F1DC30BD2DE9EE
:10061000F05F0546002092469B4688460646814686
:1006200040241BE02846414647462246FFF79CFDF2
:1006300053465A46C01A914110D3114618462246D5
:1006400000F016F82D1A67EB01084F4622460120EC
:10065000002100F00DF817EB00094E41201EA4F117
:100660000104DFDC484631462A464346BDE8F09F98
:10067000202A04DB203A00FA02F100207047914062
:10068000C2F1200320FA03F3194390407047202A57
:1006900006DBCB17203A41FA02F043EAE07306E0AA
:1006A00041FA02F3D040C2F12002914008431946BA
:1006B00070470029A8BF7047401C490008BF20F0C0
:1006C0000100704710B4B0FA80FC00FA0CF050EA58
:1006D000010404BF10BC704749B1CCF1200421FAD9
:1006E00004F411FA0CF118BF012121430843A3EBD4
:1006F0000C01CB1D4FEA00614FEA102042BF0020E1
:1007000010BC704700EBC35010440029A4BF10BCBC
:100710007047401C490008BF20F0010010BC704722
:1007200010B5141E73F1000408DA401C41F10001F9
:1007300092185B411A4301D120F0010010BD2DE950
:10074000F04D92469B4611B1B1FA81F202E0B0FA47
:1007500080F220329046FFF78BFF04460F4640EAB6
:100760000A0041EA0B0153465A46084313D011468A
:1007700053EA010019D0C8F140025046FFF7F4FCDB
:1007800005460E46504659464246FFF771FF08435C
:1007900005D0012004E020463946BDE8F08D002058
:1007A000054346EAE0762C4337430A986305E40A9A
:1007B000A0EB08000022FD0A44EA47540A3002D5A3
:1007C00000200146E9E7010510196941DDE9084506
:1007D00000196941BDE8F04DA2E7C1F30A52C1F327
:1007E000130140F2FF3341F480119A4202DA0020F3
:1007F0000146704740F233439A42A2F2334202DC90
:100800005242FFF7B1BCFFF733BF000030B5041E02
:1008100071F1000404DB4FF00044404264EB01013D
:10082000141E73F1000405DB1C464FF000435242D6
:1008300063EB0403994208BF904230BD064C074D5C
:1008400006E0E06840F0010394E8070098471034A0
:10085000AC42F6D3FFF770FCF8390008183A0008EC
:10086000FEE7704701B5009801E0401E00900028A7
:10087000FBD108BD102000F04BB900000F4810B5A7
:100880000068C00513D50E49086864280FD10D4AC9
:10089000107890F0010010704FF000020A6001D053
:1008A00009A200E00CA26421322000F03FFFBDE865
:1008B00010404FF4807000F02BB900001404014088
:1008C000080000200000002053746F7070696E678C
:1008D0002077696E64657200526573756D65207767
:1008E000696E64657220200010B4B3F5804F06D0A5
:1008F0006FF0704140F8221010BC00207047D1F812
:1009000018C00B688C6843EA0C03D1F804C08989CD
:100910004FEA0C1C4CEA042C43EA0C0343EA014165
:1009200050F82230DFF80CC003EA0C03194340F8FA
:100930002210E1E70000F0CF10B40A6850F822302E
:1009400023F0010340F822308A68374B082A35D05B
:10095000D1F804C00C694CEA0202D1F80CC04CEA90
:10096000040C42EA0C02D1F814C042EA0C02D1F89D
:1009700018C042EA0C02D1F81CC042EA0C02D1F8BD
:1009800020C042EA0C02D1F824C042EA0C02D1F89D
:1009900028C042EA0C02D1F82CC042EA0C02D1F87D
:1009A00030C0096842EA0C0250F821C00CEA030387
:1009B0001A4340F8212010BC002070474A68D1F843
:1009C0000CC00C6942F008024CEA040C42EA0C022A
:1009D000D1F814C042EA0C02D1F818C042EA0C0265
:1009E000D1F81CC042EA0C02D1F820C042EA0C0245
:1009F000D1F824C042EA0C02D1F828C042EA0C0225
:100A0000D1F82CC042EA0C02D1F830C0096842EAA1
:100A10000C0250F821C00CEA03031A4342F04002D2
:100A200040F82120C7E700008100F7FF10B4D1F89B
:100A300004C00B688C8943EA0C13D1F808C04FEA54
:100A40000C2C4CEA044C43EA0C03B1F810C0ACF196
:100A5000010C43EA0C5391F814C08969ACF1020C03
:100A600043EA0C630B43511C50F8212002F0404232
:100A70001A4340F82120002010BC704770B504468E
:100A800000F066F90546B4F1FF3F02D00448007853
:100A9000044400F05DF9401BA042FAD370BD000091
:100AA000B400002030B585B0002000900190029085
:100AB00003901248016800291ED1012101601048ED
:100AC000416941F4807141614069022400F4807001
:100AD00004904FF68070CDE9000403256946039524
:100AE000084800F021F84CF6B370CDE900046946DF
:100AF0000395054800F018F805B030BD70000020DF
:100B0000001002400018014000140140704700002E
:100B100010B504490A68024202D00860FFF7F6FFE8
:100B200010BD0000140401402DE9F84F00239C463D
:100B3000DFF8F4810F2708F1040909F1040A0AF12A
:100B4000040B012202FA0CF60A683240B2427CD150
:100B5000DFF8D8E14C68A4EB0E0574452BD00DDC12
:100B6000032C34D005DC34B3012C19D0022C2FD146
:100B70001BE0112C16D0122C2AD119E0B5F5881FD4
:100B800019D006DCB5F5803F15D0B5F5801F1FD113
:100B900011E0B5F5001F0ED0B5F5041F18D10AE01D
:100BA000CB6815E0CB681B1D12E0CB6808330FE063
:100BB000CB680C330CE08B6823B1012B04D00823E5
:100BC000466105E0042303E00823066100E00023FA
:100BD000B2F5807F01D2054601E000F1040502D2A2
:100BE0004FEA8C0403E0ACF108044FEA84042E6859
:100BF00007FA04FE26EA0E0603FA04F446EA0404A1
:100C00002C604C6814F0805F1FD0494CA56945F0FA
:100C10000105A561A46904F0010400942CF003040B
:100C200004F1804404F58034A6684FEA8C754FEADD
:100C3000157507FA05FE26EA0E0EA0F18046B6F5F8
:100C400084362AD0A0F1804600E065E0B6F586360D
:100C500025D0A0F18046B6F5883622D0A0F1804696
:100C6000B6F58A361FD0A0F18046B6F58C361CD07A
:100C7000A0F18046B6F58E3619D0062606FA05F59F
:100C800045EA0E05A5604C6814F4803F11D0D8F8F1
:100C900000401443C8F8004010E00026EEE70126AB
:100CA000ECE70226EAE70326E8E70426E6E705265E
:100CB000E4E7D8F800409443C8F800404C6814F4C6
:100CC000003F05D0D9F800401443C9F8004004E0C3
:100CD000D9F800409443C9F800404C6814F4801FD0
:100CE00005D0DAF800401443CAF8004004E0DAF80E
:100CF00000409443CAF800404C6814F4001F05D02B
:100D0000DBF800402243CBF8002005E0DBF8004090
:100D100024EA0202CBF800200CF1010CBCF1100F08
:100D2000FFF40FAFBDE8F88F000401400000111080
:100D3000001002408068084201D001207047002066
:100D40007047002A01D001617047090401617047B2
:100D50000148806870470000B400002002488168A4
:100D60000278114481607047B400002010B5074834
:100D7000016841F010010160032000F089F80020B3
:100D800000F006F800F026F8002010BD0020024018
:100D900070B504460D4D4FF47A712878B1FBF0F030
:100DA0000B490968B1FBF0F000F0CCFB08B1012061
:100DB00070BD102C07D200222146501E00F034F8DE
:100DC0006C60002070BD012070BD0000B4000020E8
:100DD000B00000200C4808B5816941F00101816133
:100DE000816901F001010091C16941F08051C16147
:100DF000C06900F0805000900448416821F0E06133
:100E000041F00071416008BD001002400000014047
:100E100000F01F01012202FA01F14009800000F1F7
:100E2000E020C0F80011704710B4184B1B68C3F3E2
:100E30000223C3F1070CBCF1040F01D94FF0040CDD
:100E40001C1D072C01D2002300E0DB1E012404FA44
:100E50000CFCACF1010C0CEA0101994004FA03F31B
:100E60005B1E1A401143002808DA00F00F0000F161
:100E7000E020090180F8141D10BC704700F1E0204B
:100E8000090180F8001410BC704700000CED00E070
:100E900000F00700064A11684FF6FF03194041EAC7
:100EA000002040F0FD7040F080601060704700004E
:100EB0000CED00E02DE9F04704460D46DFF8A08177
:100EC000D8F8000000F00700A8420FD2D8F80000C0
:100ED00020F007002843C8F80000D8F8000000F010
:100EE0000700A84202D00120BDE8F08720685D4FCE
:100EF00010F0020F14D010F0040F03D0786840F403
:100F0000E0607860207810F0080F03D0786840F433
:100F1000605078607868A16820F0F000084378603D
:100F2000207810F0010F5FD06068012806D00228F9
:100F30000BD0396811F0020F29D00AE0396811F49A
:100F4000003F06D10120BDE8F087396811F0007F2D
:100F50001AD0796821F0030108437860FFF7F8FEA2
:100F60000646606841F28839012813D0022824D04F
:100F7000786810F00C0F37D0FFF7EAFE801B484569
:100F80002ED90320BDE8F0870120BDE8F0870120BD
:100F9000BDE8F087786800F00C00042824D0FFF743
:100FA000D7FE801B484502D90320BDE8F08778684A
:100FB00000F00C000428F2D116E0786800F00C0074
:100FC000082811D0FFF7C4FE801B484502D9032032
:100FD000BDE8F087786800F00C000828F2D103E043
:100FE000786810F00C0FC7D1D8F8000000F00700A7
:100FF000A8420FD9D8F8000020F007002843C8F80D
:101000000000D8F8000000F00700A84202D001203C
:10101000BDE8F087207810F0040F05D07868E1680B
:1010200020F4E06008437860207810F0080F06D0C4
:101030007868216920F4605040EAC100786000F0CF
:1010400017F87968084AC1F30311515CC840074991
:1010500008600020FFF79CFE0020BDE8F08700003C
:10106000002002400010024094390008B000002027
:1010700085B015A0836842680168C0680393029236
:101080000191049014A000680090144B5968144812
:1010900001F00C02042A11D0082A0FD101A8C1F3D3
:1010A0008342805C11F4803F0AD05968C1F340410B
:1010B0001DF801100A4A5043B0FBF1F005B070472B
:1010C000084905B0484370470203040506070809AC
:1010D0000A0B0C0D0E0F1010010200000010024050
:1010E00000127A0000093D002DE9F84F0446FA4D40
:1010F000207810F0010F68D0686800F00C00042818
:1011000008D0686800F00C0008280DD1686810F459
:10111000803F09D0286810F4003F56D0606800284E
:1011200053D10120BDE8F88F6068B0F5803F15D03D
:10113000C8B1B0F5A02F1FD0286820F480302860F7
:10114000286820F480202860606858B3FFF700FE0C
:101150000646286810F4003F17D036E0286840F4AF
:1011600080302860F0E7286820F480302860286804
:1011700020F480202860E7E7286840F48020286079
:10118000286840F480302860DEE7FFF7E1FD801B2F
:10119000642802D90320BDE8F88F286810F4003FC6
:1011A000F3D012E0FFF7D4FD0646286810F4003FA4
:1011B0000BD0FFF7CDFD801B642802D90320BDE8CA
:1011C000F88F286810F4003FF3D12078C34F10F057
:1011D000020F4FF0010B4FF0000854D0686810F078
:1011E0000C0F14D0686800F00C00082803D1686860
:1011F00010F4803F0BD0206978B3C7F800B0FFF738
:10120000A7FD0646286810F0020F12D01DE02868DE
:1012100010F0020F05D02069012802D00120BDE89E
:10122000F88F2868616920F0F80040EAC100286062
:1012300029E0FFF78DFD801B022802D90320BDE8BD
:10124000F88F286810F0020FF3D02868616920F049
:10125000F80040EAC100286015E0FFE7C7F8008009
:10126000FFF776FD0646286810F0020F0BD0FFF757
:101270006FFD801B022802D90320BDE8F88F286883
:1012800010F0020FF3D1207810F0080F30D09448FE
:10129000A169C1B1C0F800B0FFF75AFD0646686AFF
:1012A00010F0020F0BD1FFF753FD801B022802D96B
:1012B0000320BDE8F88F686A10F0020FF3D0012018
:1012C00000F04EFC14E0C0F80080FFF741FD064638
:1012D000686A10F0020F0BD0FFF73AFD801B02285E
:1012E00002D90320BDE8F88F686A10F0020FF3D12D
:1012F000207810F0040F6FD00026E86910F0805FAE
:1013000008D1E86940F08050E861E86900F0805059
:1013100000900126DFF8CCA1DAF8000010F4807FFD
:101320001BD1DAF8000040F48070CAF80000FFF723
:101330000FFD8146DAF8000010F4807F0DD1FFF731
:1013400007FDA0EB0900642802D90320BDE8F88F4F
:10135000DAF8000010F4807FF1D0E068012816D0A0
:10136000D0B1052821D0286A20F001002862286A1F
:1013700020F004002862E06841F2883A68B3FFF781
:10138000E7FC8146286A10F0020F17D03AE0286A7D
:1013900040F001002862EEE7286A20F00100286290
:1013A000286A20F004002862E5E7286A40F004007B
:1013B0002862286A40F001002862DCE7FFF7C8FCD9
:1013C000A0EB0900504502D90320BDE8F88F286A38
:1013D00010F0020FF2D015E01AE0FFE7FFF7B8FCBB
:1013E0008146286A10F0020F0CD0FFF7B1FCA0EB89
:1013F0000900504502D90320BDE8F88F286A10F093
:10140000020FF2D1012E03D1E86920F08050E8618B
:10141000E069E8B3696801F00C01082958D0022896
:1014200010D0C7F86080FFF793FC0446286810F0DE
:10143000007F4AD0FFF78CFC001B022841D9032013
:10144000BDE8F88FC7F86080FFF782FC0646286881
:1014500010F0007F0BD0FFF77BFC801B022802D925
:101460000320BDE8F88F286810F0007FF3D1206AD0
:10147000B0F5803F05D16868A16820F400300843CA
:101480006860616A206A0843696821F4741100E0A9
:101490001BE008436860C7F860B0FFF759FC0446DA
:1014A000286810F0007F10D1FFF752FC001B0228C3
:1014B00002D90320BDE8F88F286810F0007FF3D030
:1014C00003E0286810F0007FB4D10020BDE8F88F59
:1014D0000120BDE8F88F00000010024000004242E9
:1014E000800442420070004070B504460E46154626
:1014F000002C03D094F83D0010B107E0012070BD2E
:10150000002084F83C00204600F01AF804F108019D
:101510002068FFF711FA3146A2682068FFF786FAC3
:101520002946236BA2686068FFF7DEF9A16820688E
:1015300050F8212042F0010240F82120002070BD27
:10154000FFF7B0BA401EB0F1807F01D30120704791
:101550004FF0E0214861044AF020107000208861BB
:10156000072008610020704723ED00E0FEE700003F
:10157000044B4FF4805108B1002200E001221846CC
:10158000FFF7DFBB0014014070B51D461446049EF2
:1015900000F00EF904FB05F03146BDE8704000F0A4
:1015A000E5B8000070B5203AD4B21023082200F04C
:1015B000FFF82C20C10608800C490D4B01EB0415E7
:1015C00000204FF6FF742A5C0021D60702D01F26A8
:1015D0001E8000E01C80491C5208C9B20829F4D3BF
:1015E000401CC0B21028EED370BD0000A433000828
:1015F0000000026010B51446F02806D2B1F5A07FB5
:1016000003D201231A4600F0D3F82146BDE810406A
:10161000012000F0ABB800002DE9FE4F161ACDE90D
:1016200000104FF000085D1A47464FF0FF30002EC3
:1016300002DD4FF0010102E003D14FF000018B46C3
:1016400002E08346C6F10006002D02DD4FF00100E6
:1016500002E003D14FF00000824602E08246C5F16D
:101660000005AE4201DD344600E02C46601C4FF020
:10167000000902901AE000BFDDE900100C9AFFF7A4
:10168000B9FFB0442F44A04505DD0198A8EB04083C
:10169000584480B20190A74204DD00983F1B50449B
:1016A00080B2009009F101001FFA80F90299894582
:1016B000E2DDBDE8FE8F2DE9F847994687180D4613
:1016C00004464FF000088BB2DDF824A0BAB289B20C
:1016D00080B2CDF80080FFF79FFF05EB0906B3B29B
:1016E000A2B2A9B2A0B2CDF80080FFF795FFB3B2C5
:1016F000BAB2A9B2B8B2CDF80080FFF78DFFB3B28D
:10170000BAB2B1B2A0B2CDF80080FFF785FFA9F15F
:101710000A0000EBD07005EB600081B20A34A0B281
:101720005246BDE8F84700F001B80000F0B5164693
:101730000D4604464FF4A07714E000BF04F1080002
:10174000F02802D900241035ADB205F11000B842DE
:1017500001D90024254629462046FFF723FF0834F7
:10176000A4B2761C3278002AE8D1F0BD10B5002270
:101770002C23DC062380034B01E01980521C82429B
:10178000FBD310BD0000026008B50120FFF7F0FE9A
:1017900000F0EAF800F02CF84FF6FF7000210090FE
:1017A0004FF4A073F0220846FFF7EEFE08BD0000DC
:1017B00070B54FF0C0452A242C800C4C060A2680B8
:1017C000C6B226801044401E020A2280C0B2208089
:1017D0002B202880080A2080C8B22080C818401E0C
:1017E000010A2180C0B2208070BD000000000260AC
:1017F00000B54FF0C041CF20088059480022028038
:101800008122028030220280ED220A80642202803E
:10181000032202801222028081220280E8220A80B2
:10182000852202801022028078220280CB220A8048
:10183000392202802C22028000220280342202807F
:1018400002220280F7220A8020220280EA220A80F5
:10185000002202800280B1220A80002202801B2224
:101860000280B6220A800A220280A2220280C022BE
:101870000A8035220280C1220A8011220280C522FC
:101880000A80452202800280C7220A80A2220280AA
:10189000F2220A800022028026220A80012202808F
:1018A000E0220A800F220280262202802422028067
:1018B0000B2202800E220280092202805422028022
:1018C000A8220280462202800C2202801722028077
:1018D000092202800F220280072202800022028059
:1018E000E1220A8000220280192202801B2202804B
:1018F0000422028010220280072202802A22028013
:1019000047220280392202800322028006220280BE
:10191000028030220280382202800F22028036228A
:101920000A80C82202802A220A80002202800280C5
:101930000280EF2202802B220A8000220280028095
:10194000012202803F2202803A220A805522028030
:10195000112008800348FEF785FF2920088000BD7C
:1019600000000260FCBF020070B50A4C0022022198
:101970002046FFF7E6F9084D2846FEF773FF0122DF
:1019800002212046FFF7DDF92846BDE87040FEF74A
:1019900069BF000000180140FCBF020000B587B01D
:1019A0001C216846FEF7F7FB15484FF02041102236
:1019B00001601449416000218160C160C0E90412E6
:1019C0008161C16113020162C0E90913C16201634F
:1019D000416381630F20FF230090CDE90103CDE92E
:1019E00003021120CDE90501002269460448FFF7F2
:1019F0007BFD0548C16941F48061C16107B000BD4C
:101A0000C0000020040100A0000001402DE9F04FBB
:101A100085B000244948009401940294039481699C
:101A200041F040018161816901F0400104918169C7
:101A300041F010018161816901F010010491816917
:101A400041F004018161816901F00401049181691F
:101A500041F020018161816901F0200104918169D7
:101A600041F0080181618069DFF8D4B000F008001E
:101A70000490002247215846FFF763F90022A02175
:101A80003048FFF75EF9002210212F48FFF759F97F
:101A90004FF4405A002251462C48FFF752F90720D4
:101AA00001250327CDE90005CDE9024769465846DF
:101AB000FFF73AF808208DE8310069465846FFF7ED
:101AC00033F84FF01008DFF88890CDF80080CDE9AA
:101AD000019569465846FFF727F840200226CDE9D0
:101AE0000005CDE9024669465846FFF71DF8A020DB
:101AF000CDE90005CDE9024669461248FFF714F822
:101B0000CDF800800396CDE9015469460E48FFF7F1
:101B10000BF8CDF800A00397CDE9015469460B48B6
:101B2000FFF702F82802CDE9000969460296094844
:101B3000FEF7FAFF05B0BDE8F08F0000001002408C
:101B4000001801400008014000100140001401404D
:101B500000001110000C0140FEE7704770470000C4
:101B600081B007494FF4FA520968B1FBF2F14843DA
:101B7000009000BF0098411E0091FAD201B070475A
:101B8000B00000207047FFF7E9B830B58FB02821CA
:101B90006846FEF700FB14210AA8FEF7FCFA0121B3
:101BA0000804CDE900100024029402250491CDE937
:101BB00007504FF4E01009906846FFF795FA0F20A0
:101BC000CDE90A056802CDE90C4002210AA80E946D
:101BD000FFF770F90FB030BD0D48016841F0010109
:101BE000016041680B4A1140416001680A4A114096
:101BF0000160016821F480210160416821F4FE0147
:101C000041604FF41F0181600449C00308607047C0
:101C1000001002400000FFF8FFFFF6FE08ED00E0B4
:101C2000FEE701B5002004E00B21491EC9B2FCD239
:101C3000401C00998842F7D308BD2DE9F84380463F
:101C40000C460127684600F06FF8E0B3BDF80200CB
:101C5000FEF753FCD4E90223FEF75DFB05460E4672
:101C6000BDF80000FEF749FCD4E90023FEF753FB62
:101C70002A463346FEF7A8FAD4E90423FEF7A4FA6D
:101C8000FEF767FCA8F80000BDF80200FEF735FC7F
:101C9000D4E90823FEF73FFB05460E46BDF80000D9
:101CA000FEF72BFCD4E90623FEF735FB2A46334624
:101CB000FEF78AFAD4E90A23FEF786FAFEF749FC12
:101CC000A8F8020001E0FFE700273846BDE8F883E6
:101CD00070B500F0C7F8134E00252A46042130469F
:101CE000FFF72FF8012211463046FFF72AF80024AB
:101CF000002201213046FFF724F808213046FFF783
:101D000019F8C4F10B018840284385B2012211461D
:101D10003046FFF716F8641CE4B20C2CE8D32846D2
:101D200070BD0000001801402DE9F0418AB0054661
:101D3000002628216846FEF72EFADFF820816C463F
:101D40009020FFF7C5FF07460120FFF76AFFD0206C
:101D5000FFF7BEFF24F8167004EB4601761C88825C
:101D6000F6B210214046FEF7E5FF08B90A2EE7D388
:101D700010214046FEF7DEFF10B1394900200870FF
:101D80000A2E03D000200AB0BDE8F081BDF9001092
:101D9000BDF914008C4662460346012634F91670DC
:101DA0008F4201DA394602E0974200DD3A46761C5E
:101DB000F6B20A2EF2D3012604EB4607B7F91470E7
:101DC0009F4201DA3B4602E0874200DD3846761C3E
:101DD000F6B20A2EF0D3BDF90240BDF90460BDF998
:101DE000067064443E443444BDF908603444BDF98F
:101DF0000A603444BDF90C603444BDF90E603444CB
:101E0000BDF910603444BDF912603444611A891A76
:101E1000C9082980BDF91410BDF91620BDF91A4072
:101E20001144BDF9182022441144BDF91C2011446D
:101E3000BDF91E201144BDF920201144BDF9222016
:101E40001144BDF924201144BDF926201144C91ABA
:101E5000081AC0086880012095E7000000180140BA
:101E60007800002070B5174D064600220421284650
:101E7000FEF767FF002201212846FEF762FF0024DB
:101E8000C4F1070026FA00F0C00701D0012200E0EB
:101E9000002204212846FEF754FF0520FFF7C1FE6B
:101EA000012211462846FEF74CFF0520FFF7B9FE38
:101EB000002201212846FEF744FF641CE4B2082CEE
:101EC000DED370BD001801400FB4084B10B504A953
:101ED00002AA039800F0DEF8044602A9002000F0F0
:101EE00070FC204610BC5DF814FB0000C3270008FE
:101EF00002E008C8121F08C1002AFAD170477047D3
:101F0000002001E001C1121F002AFBD17047000030
:101F10002DE9FF5F82B00021DDE90430020DDDF81C
:101F200040B0034318D044F61050A2F2FF324243AF
:101F30001514119801281FD0A5EB0B00401C5FEA77
:101F4000000A4FF000064E4FDFF83891B046504679
:101F500015D5CAF1000413E0119801244AA3012801
:101F600001D16FEA0B010298119AC0E90031C0E972
:101F7000024206B0BDE8F09FCBF10000DFE7044667
:101F80000021404A491842EB0450CDE9001012E00C
:101F9000E00707D032463B4640464946FEF7BBF9CC
:101FA0008046894632463B4610461946FEF7B3F94D
:101FB00006460F466410002CEAD1DDE90401DDE994
:101FC0000023BAF1000F06DAFEF7A5F942464B46A8
:101FD000FEF7A1F905E0FEF710FA42464B46FEF780
:101FE0000CFA04460E460022284BFEF70FFC03D8DD
:101FF0004FF0FF30014607E00022254B20463146D6
:10200000FEF7E2F8FEF7E9FB102409E0002C0ADBFA
:102010000A220023FEF7FBFA039B30321A55641E96
:1020200050EA0102F2D1641C039AC4F11103144472
:10203000119A012A03D0012208430DD10AE0084376
:1020400004D000204FF0110B119072E7A3EB0B05A9
:102050006D1E0DE05B4504DD4FF0000205F101054A
:1020600004E003DA4FF00002A5F10105002AECD0EC
:1020700002981199C0E90231C0E9004579E70000F2
:10208000000014400000F03F300000000000F0436A
:102090000000E03F2DE9FF4F95B09B46894606467C
:1020A00000250FE2252877D100242746F84A012190
:1020B000059400E0044316F8013F203B01FA03F0C9
:1020C0001042F7D130782A2811D06FF02F033078E2
:1020D000A0F13002092A16D8059A44F0020402EB56
:1020E000820203EB42021044761C0590EFE759F898
:1020F000042B0592002A03DA504244F40054059060
:1021000044F00204761C30782E2816D116F8010F00
:1021100044F004042A280DD06FF02F023078A0F18B
:102120003003092B09D807EB870302EB4303C718D9
:10213000761CF3E759F8047B761C30786C280FD0B6
:1021400006DC4C2817D068280DD06A2814D104E08A
:10215000742810D07A280FD10DE044F400140AE05E
:1021600044F4801401E044F440147278824202D1B5
:1021700004F58014761C761C307866280BD013DCAE
:10218000582877D009DC002875D04528F6D0462895
:10219000F4D047281AD19DE118E0632835D064288F
:1021A00079D0652812D195E1702873D008DC6728B2
:1021B000F1D069286FD06E280DD06F2806D1B5E018
:1021C00073282CD0752875D0782874D05A46179962
:1021D00090476D1C75E1C4F30250022809D0032812
:1021E0000DD0D9F8001004280DD00D6009F10409B4
:1021F00067E1D9F80010EA17C1E90052F6E7D9F80B
:1022000000100D80F2E70D70F0E719F8041B8DF84F
:10221000001000208DF80100EA46012003E059F883
:1022200004AB4FF0FF3061074FF0000102D40DE026
:1022300008F101018846B9420FDA8045F8DB1AF847
:1022400008100029F4D108E008F101018846814214
:10225000FADB1AF808100029F6D105985B46A0EBC6
:10226000080721463846179A00F094FA284400EBF4
:10227000080507E04DE029E10DE01AF8010B5A4688
:1022800017999047B8F10108F7D25B4621463846C6
:10229000179A13E142E00A220092C4F302524FF06F
:1022A000000A022A08D059F804CB032A4FEAEC713D
:1022B0000AD00DE029E02AE009F1070121F0070228
:1022C000F2E802C1914609E00FFA8CFC4FEAEC718A
:1022D000042A03D14FFA8CFC4FEAEC71002907DA8B
:1022E0000A460021DCF1000C61EB02012D2202E024
:1022F000220504D52B228DF80420012203E0E207F9
:1023000001D02022F7E7904659E00A2102E010228E
:102310000DE010214FF0000A00910BE010224FF069
:10232000000A44F004040827009203E008224FF05A
:10233000000A0092C4F30252022A05D059F804CBD5
:102340000021032A08D009E009F1070121F0070262
:10235000F2E802C1914605E01FFA8CFC042A01D183
:102360000CF0FF0C4FF00008220728D5702806D08B
:10237000009B83F0100353EA0A0305D00EE04022CD
:102380008DF80420012208E05CEA010206D0302228
:102390008DF804208DF8050002229046009B83F002
:1023A000080353EA0A030AD15CEA010201D1620779
:1023B00005D530228DF804204FF001087F1E5828E3
:1023C00004D034A003900EA802900DE036A0F9E7E7
:1023D00053466046009AFEF71AF984460398825CD9
:1023E0000298401E029002705CEA0100F0D102984F
:1023F00006A9081A00F1200A600702D524F48034E7
:1024000000E00127574502DDA7EB0A0000E00020AD
:1024100000EB0A01009005984144401A0590E00342
:1024200006D45B462146179A059800F0B3F9054497
:10243000002706E001A85A46C05D179990476D1C19
:102440007F1C4745F6DBE0030CD55B462146179A17
:10245000059800F09FF9054404E030205A4617998A
:1024600090476D1C0099481E00900029F5DC08E09B
:10247000029802995A460078491C02911799904790
:102480006D1CBAF10001AAF1010AF1DC65E100005E
:10249000092801003031323334353637383961623A
:1024A00063646566000000003031323334353637FE
:1024B00038394142434445460000000000F058F9D5
:1024C0000544761C307800287FF4ECAD19B028461E
:1024D000BDE8F08F620700D4062709F1070222F059
:1024E000070CFCE80223E14603F000485FEA080C11
:1024F00002D00FF2702C0DE05FEA045C02D50FF2FF
:10250000682C07E05FEAC47C02D00FF2602C01E087
:10251000AFF2700C4FF0FF3823F00043CDF850C0FD
:1025200065280CD006DC452809D046281DD0472850
:102530003DD13DE0662818D067287ED138E00021E3
:10254000112F01DB112000E0781CCDE9000106A964
:102550000EA8FFF7DDFCDDE90F010E9A03910021C3
:10256000009207F1010A04914DE04FF000400097FE
:10257000CDE9011006A90EA8FFF7CAFCDDE90F029C
:1025800003920E9B11990022DDF80CA00093049297
:1025900011B9791C00EB010AB7EB0A0004D4C0F1B1
:1025A000FF3007F1010A0490AAEB0700019044E014
:1025B000012F00DA01270021112F01DD112000E099
:1025C0003846CDE9000106A90EA8FFF7A1FCDDE918
:1025D0000F010E9A0391002104910092BA4621073F
:1025E0000CD40399514500DA8A46BAF1010F05DD92
:1025F000009AAAF10101515C302908D0B84202DAF0
:1026000010F1040F06DA0121CDE9011015E0AAF15D
:102610000101E9E7002805DC049901440491AAEBD3
:10262000000102E0411C514500DD8A460499401A30
:10263000401C01904FF000400290200704D4019804
:10264000504501DBCDF8048000208DF84F00029842
:102650000DF14F07B0F1004F25D02B200E900298BE
:102660004FF0020800280CDA404202902D200E9014
:1026700007E00A210298FDF7B4FF3031029007F815
:10268000011DB8F10001A8F10108F2DC0298002850
:10269000EFD1791E0E980870307800F0200040F0DD
:1026A000450007F8020D12A8C01B00F10708149896
:1026B000007800B1012000EB0A01019801EBE07104
:1026C00005984144401A401E0590E00306D45B463D
:1026D0002146179A059800F05DF805441498007893
:1026E00018B15A46179990476D1CE00324D55B46F4
:1026F0002146179A059800F04DF805441CE004980F
:10270000002807DBDDE90301884203DD0098405C17
:10271000179901E0179930205A469047049805F11F
:102720000105401C04900198401E019004D12E2008
:102730005A46179990476D1CBAF10001AAF1010A97
:10274000DDDC05E017F8010B5A46179990476D1C20
:10275000B8F10001A8F10108F4DC5B462146179AA4
:102760000598ABE62D0000002B00000020000000C3
:102770002DE9F041044600251E461746880404D47E
:1027800005E039462020B0476D1C641EF9D5284667
:10279000BDE8F0812DE9F041044600251E46904633
:1027A000C80301D5302700E02027880404D505E0C0
:1027B00041463846B0476D1C641EF9D52846BDE831
:1027C000F0810A68531C0B601070704704498A68D6
:1027D000642A02D01044886070476420FBE7000040
:1027E0000000002030B58FB047A000F0A9F90246E4
:1027F0000B4648A101A8FFF767FB322148A2084613
:10280000FEF794FF4BA000902823642296213220EB
:10281000FEF751FF4AA0009028236422C8213220ED
:10282000FEF749FF49A24FF49671AA20FEF77EFFFA
:10283000642101AA0846FEF779FF464D4FF6FF7462
:1028400000F06AF90028FBD043490EA8FFF7F5F91C
:10285000BDF83A0001463238642833D8BDF8382034
:10286000822A13D3AA2A11D827A000F069F90022DE
:102870002B46FDF74AFD02460B4623A000F05AFB0B
:1028800021A000F05DF902460B4616E0642819D835
:10289000502A17D3782A15D81BA000F051F900222E
:1028A0002B46FDF791FC02460B4617A000F042FBB9
:1028B00015A000F045F90B46024628A101A8FFF734
:1028C00003FB0FE0B439462903D8BDF8380032289D
:1028D00018D925A264211420FEF728FF4FF47A703E
:1028E000FEF7CCF83223F02264210A200094FEF790
:1028F0004BFE642101AA0846FEF718FF6420FEF78C
:10290000BDF89DE70FB030BD746172676574486FA4
:102910007572000025302E316620686F75720000D8
:10292000496E7075742077696E64696E6720686F90
:10293000757200002D20312F3220686F75720000F3
:102940002B20312F3220686F757200004E6578742D
:10295000203E3E000000E03F1800002025302E31D0
:102960006609686F75720000506C6561736520734D
:10297000656C6563742076616C696420696E70753E
:10298000742E000030B58FB044A000F0D9F8FDF7E8
:10299000C1FD024646A101A8FFF796FA322145A2E1
:1029A0000846FEF7C3FE49A0962200902823114650
:1029B0003220FEF780FE49A0009028239622C821ED
:1029C0003220FEF778FE49A24FF49671AA20FEF756
:1029D000ADFE642101AA0846FEF7A8FE454D4FF65C
:1029E000FF7400BF00F098F80028FBD042490EA801
:1029F000FFF723F9BDF83A00A0F13202962A2AD84F
:102A0000BDF83810822909D3AA2907D823A000F0DD
:102A100097F800222B46FDF778FC0CE0962A1AD88E
:102A2000502918D3782916D81CA000F089F8002264
:102A30002B46FDF7C9FB02460B4618A000F07AFAB8
:102A400016A000F07DF8FDF765FD024618A101A86B
:102A5000FFF73AFA0FE0B438462803D8BDF838003B
:102A6000322818D925A264211420FEF75FFE4FF406
:102A70007A70FEF703F83223F02264210A200094D2
:102A8000FEF782FD642101AA0846FEF74FFE64208E
:102A9000FDF7F4FFA6E70FB030BD00007461726768
:102AA00065744E756D526F746174696F6E000000CD
:102AB00025640000496E70757420726F74617469CA
:102AC0006F6E206E756D6265720000002D203130D2
:102AD0003020726F746174696F6E00002B2031308A
:102AE0003020726F746174696F6E00004E65787487
:102AF000203E3E000000594018000020506C6561E7
:102B000073652073656C6563742076616C696420FD
:102B1000696E7075742E000070B5084D102128463E
:102B2000FEF708F938B10024012210212846FEF7EB
:102B300008F9204670BD0124F6E7000000180140A6
:102B400070B5054612A1FDF731FB164C88B116A1F0
:102B50002846FDF72BFB70B117A12846FDF726FB91
:102B600070B118A12846FDF721FB58B10020174984
:102B700070BDE06800E02069BDE87040FDF7ACBCC6
:102B8000606800E06069BDE87040FDF7FBBC0000D4
:102B90007461726765744E756D526F746174696F9C
:102BA0006E000000000000206375724E756D526F5C
:102BB000746174696F6E0000746172676574486F48
:102BC00075720000637572486F7572000000F0BF87
:102BD0001CB5FEF7CBF8FEF7D8FFFEF717FFFEF7A0
:102BE000DDFE002211460A20FEF71EF90A20FEF73C
:102BF0000FF9002211461720FEF716F91720FEF7ED
:102C000007F900224FF400514848FEF79AF8FEF702
:102C1000BBFD47A232211E20FEF788FD4AA000908E
:102C20003223462296211E20FEF745FD47A0009044
:102C30003223462296218220FEF73DFD4FF6FF7497
:102C40004FF4A075FFF768FF0028FBD0404901A8AA
:102C5000FEF7F3FFBDF80610A1F11E00462826D8A6
:102C6000BDF80400AA2822D8782820D33046FDF7E2
:102C700033FC02460B4637A000F05CF93046FDF706
:102C800081FC02460B4637A000F054F93046FDF7B0
:102C900023FC02460B4635A000F04CF93046FDF708
:102CA00071FC02460B4636A000F044F92AE0823956
:102CB0004629C7D8BDF80400AA28C3D87828C1D3AC
:102CC000FFF72AFF0028BDD000212B46F02208463E
:102CD0000094FEF759FC00F081F9E0B10128B1D170
:102CE00000212B46F02208460094FEF74DFCFFF72A
:102CF00049FE00212B46F02208460094FEF744FCD2
:102D0000FFF770FD00212B46F02208460094FEF7E5
:102D10003BFC00F0C3FA00212B46F0220846009449
:102D2000FEF732FC00F0D6F9ECE700000014014099
:102D3000436F6E74696E75652070726576696F7524
:102D400073207461736B3F00596573004E6F000010
:102D5000180000206375724E756D526F746174694E
:102D60006F6E0000637572486F75720074617267F0
:102D700065744E756D526F746174696F6E000000FA
:102D8000746172676574486F757200002DE9F047D1
:102D9000654D0024DFF89491DFF8948106464FF0EA
:102DA000020A6F150120FFF711FD16B1012E7DD12A
:102DB00055E0012220212846FDF7C3FF0022802193
:102DC0002846FDF7BEFF002240214846FDF7B9FF27
:102DD000002210214046FDF7B4FF5046FDF74EFE9D
:102DE000002220212846FDF7ACFF01228021284641
:102DF000FDF7A7FF002240214846FDF7A2FF002271
:102E000010214046FDF79DFF5046FDF737FE00229A
:102E100020212846FDF795FF002280212846FDF756
:102E200090FF012240214846FDF78BFF0022102130
:102E30004046FDF786FF5046FDF720FE0022202188
:102E40002846FDF77EFF002280212846FDF779FF06
:102E5000002240214846FDF774FF012256E000227F
:102E600020212846FDF76DFF002280212846FDF72E
:102E700068FF002240214846FDF763FF0122102130
:102E80004046FDF75EFF5046FDF7F8FD0022202189
:102E90002846FDF756FF002280212846FDF751FF06
:102EA000012240214846FDF74CFF00E035E00022BA
:102EB00010214046FDF745FF5046FDF7DFFD00229B
:102EC00020212846FDF73DFF012280212846FDF7FD
:102ED00038FF002240214846FDF733FF0022102131
:102EE0004046FDF72EFF5046FDF7C8FD0122202188
:102EF0002846FDF726FF002280212846FDF721FF06
:102F0000002240214846FDF71CFF002210214046C8
:102F1000FDF717FF5046FDF7B1FD641CBC42FFF6FC
:102F200041AFBDE8F08700000008014000180140F3
:102F3000001001402DE9F04114461D46074618A136
:102F4000FDF734F91B4E88B11BA13846FDF72EF969
:102F500090B11DA13846FDF729F998B11DA1384659
:102F6000FDF724F9A0B10020BDE8F08120462946F4
:102F7000FDF7D0FAF06010E020462946FDF7CAFAC6
:102F800030610AE020462946FDF70FFB706004E03F
:102F900020462946FDF709FB70610120E4E70000A7
:102FA0007461726765744E756D526F746174696F88
:102FB0006E000000000000206375724E756D526F48
:102FC000746174696F6E0000746172676574486F34
:102FD00075720000637572486F75720000B532211A
:102FE0008FB027A20846FEF7A1FB2AA096220090E8
:102FF000282311463220FEF75EFB2BA000902823E9
:103000009622C8213220FEF756FB4FF4967034E02A
:10301000FFF782FD0028FBD0274901A8FEF70DFE2F
:10302000BDF806100B463239962910D8BDF80400B9
:10303000822804D3AA2802D800200FB000BD962908
:1030400005D8502803D3782801D80120F5E7BDF82A
:1030500004201AA102A8FEF737FF4FF6FF703222B4
:103060000090C82311461046FEF78EFA02AA64218A
:103070003220FEF75BFB4FF4FA70FDF7FFFCC7E769
:1030800053656C65637420696E7075742074797013
:1030900065000000507265646566696E6564206D48
:1030A0006F64656C000000004D616E75616C206995
:1030B0006E7075740000000018000020496E766183
:1030C0006C696420783A2025642C20793A202564A4
:1030D00000000000F0B52D488FB02DA1C26801A8F6
:1030E000FEF7F2FE32212BA20846FEF71FFB274F08
:1030F000642528260024483704FB065157F824008D
:1031000000903346AA221E20FEF7D5FA641C052C37
:10311000F2DB00BFFFF700FD0028FBD01B490EA823
:103120001831FEF78AFDBDF83A001E38AA28F1D8FA
:10313000BDF838002821C0F5A070401B90FBF1F4C9
:103140004FF6FF7000904FF48773C82232210A2097
:10315000FEF71AFA322114A20846FEF7E7FA57F8EA
:10316000242064211E20FEF7E1FA08485C3050F864
:103170002400FDF7B1F902460B460FA0FFF7DAFE77
:103180004FF47A70FDF77AFC0FB0F0BD000000201C
:103190002564000053656C6563742077617463680F
:1031A000206D6F64656C00004D6F64656C20736505
:1031B0006C656374656400007461726765744E7554
:1031C0006D526F746174696F6E0000002DE9F843F1
:1031D0004FF6FF78C82332211A460846CDF8008002
:1031E000FEF7D2F9322120A20846FEF79FFA002509
:1031F00020A0FFF7A5FCFDF78DF9064600242DE081
:1032000047461423C82264213220CDF80080FEF7FF
:10321000BBF9B8461C4F0AE01423C82264213220AF
:10322000CDF80080FEF7B0F90120FFF7CFFA38782B
:103230000028F1D12846FFF7A9FD4FF47A70FDF779
:103240001DFC7DB100252046FDF746F902460B46E0
:103250000EA0FFF76FFE002802D0641CB442CFDB43
:10326000BDE8F8830125EEE7526F746174696E67FB
:103270002E2E2E007461726765744E756D526F74D8
:103280006174696F6E000000000000206375724E6B
:10329000756D526F746174696F6E00009CB026A0EA
:1032A000FFF74EFCFDF736F9024628A101A8FEF70C
:1032B0000BFE2CA0FFF744FC02460B462CA10EA8E7
:1032C000FEF702FE01AA32210A20FEF72FFA0EAA0B
:1032D00064210A20FEF72AFA2DA0009032236422EE
:1032E00096214620FEF7E7F92BA24FF496711420A1
:1032F000FEF71CFA4FF6FF744FF4A075FFF70CFCB5
:103300000028FBD026491BA8FEF797FCBDF86E00ED
:1033100032389628F2D8BDF86C008228EED3AA285D
:10332000ECD800212B46F02208460094FEF72CF939
:10333000FFF74CFFE2E700007461726765744E7539
:103340006D526F746174696F6E0000004E756D622E
:103350006572206F6620726F746174696F6E3A20B7
:1033600025640000746172676574486F75720000AF
:1033700057696E64696E67206475726174696F6EF7
:103380003A2025302E316620686F757200000000EB
:1033900053746172740000003C3C204261636B0016
:1033A00018000020000000000000000000000000E5
:1033B00000000000000000183C3C3C1818001818E1
:1033C00000000000000000666666000000000000CB
:1033D000000000000000006C6CFE6C6C6CFE6C6CFD
:1033E000000000000018183C66060C183060663CAF
:1033F0001818000000000E1B5B6E30180C76DAD82F
:10340000700000000000001C36361C06F66666DC04
:103410000000000000000018181800000000000064
:10342000000000000000003018180C0C0C0C0C18E8
:10343000183000000000000C181830303030301800
:10344000180C000000000000006C38FE386C000012
:1034500000000000000000000018187E181800008E
:1034600000000000000000000000000000003838EC
:1034700030180000000000000000007E0000000086
:1034800000000000000000000000000000003838CC
:10349000000000000000006060303018180C0C06BE
:1034A0000600000000000078CCECECCCDCDCCC7832
:1034B0000000000000000030383E30303030303046
:1034C000000000000000003C66666030180C067EBC
:1034D000000000000000003C666660386066663CE4
:1034E000000000000000000C0C6C6C6C66FE60605C
:1034F000000000000000007E0606063E6060301EF0
:103500000000000000000038180C3E666666663C4D
:10351000000000000000007E60303018180C0C0C19
:10352000000000000000003C66666E3C7666663C6B
:10353000000000000000003C666666667C30181CD7
:10354000000000000000000000383800000038389B
:10355000000000000000000000383800000038388B
:10356000301800000000006030180C060C183060A5
:10357000000000000000000000007E007E0000004F
:1035800000000000000000060C18306030180C0627
:10359000000000000000003C666630181800181893
:1035A000000000000000007EC3C3F3DBDBF303FE7A
:1035B00000000000000000183C6666667E666666D5
:1035C000000000000000003E6666663E6666663EDD
:1035D000000000000000003C666606060666663CC9
:1035E000000000000000001E366666666666361E35
:1035F000000000000000007E0606063E0606067E6D
:10360000000000000000007E0606063E06060606D4
:10361000000000000000003C666606067666667CD8
:1036200000000000000000666666667E66666666EC
:10363000000000000000003C181818181818183C6A
:103640000000000000000060606060606066663C32
:1036500000000000000000666636361E36366666DC
:103660000000000000000006060606060606067EAC
:1036700000000000000000C6C6EED6D6D6C6C6C6FC
:1036800000000000000000C6C6CEDEF6E6C6C6C6D4
:10369000000000000000003C666666666666663CE8
:1036A000000000000000003E6666663E0606060654
:1036B000000000000000003C666666666666663CC8
:1036C000306000000000003E6666663E3666666654
:1036D000000000000000003C66060C183060663CEC
:1036E000000000000000007E18181818181818189C
:1036F0000000000000000066666666666666663C5E
:1037000000000000000000666666666666663C189B
:1037100000000000000000C6C6C6D6D6D66C6C6C91
:103720000000000000000066662C1818346666660B
:1037300000000000000000666666663C1818181855
:10374000000000000000007E606030180C06067E5D
:10375000000000000000003C0C0C0C0C0C0C0C0CCD
:103760000C0C3C0000000006060C0C1818303060F1
:10377000600000000000003C30303030303030302D
:1037800030303C0000183C660000000000000000E3
:103790000000000000000000000000000000000029
:1037A0000000FF00001C18300000000000000000B6
:1037B0000000000000000000003C60607C66667C49
:1037C0000000000000000006063E66666666663E73
:1037D0000000000000000000003C66060606663C93
:1037E0000000000000000060607C66666666667C23
:1037F0000000000000000000003C66667E06063CFB
:1038000000000000000000780C0C0C7E0C0C0C0C6E
:103810000000000000000000007C66666666667CB2
:1038200060603E0000000006063E666666666666EC
:103830000000000000001818001E18181818187E44
:103840000000000000003030003C303030303030BC
:1038500030301E0000000006066666361E366666BC
:10386000000000000000001E181818181818187E14
:103870000000000000000000007ED6D6D6D6D6C6D6
:103880000000000000000000003E66666666666696
:103890000000000000000000003C66666666663CB2
:1038A0000000000000000000003E66666666663E9E
:1038B0000606060000000000007C66666666667C00
:1038C00060606000000000000066760E06060606D6
:1038D0000000000000000000007C06063C60603E26
:1038E000000000000000000C0C7E0C0C0C0C0C788E
:1038F0000000000000000000006666666666667CE8
:1039000000000000000000000066666666663C1865
:10391000000000000000000000C6D6D6D6D66C6CB1
:1039200000000000000000000066663C183C66666F
:103930000000000000000000006666666666663CE7
:1039400030180F0000000000007E6030180C067E6A
:1039500000000000000000301818180C060C1818A1
:103960001830000000000018181818181818181837
:10397000181818000000000C1818183060301818BB
:10398000180C00000000008EDB7100000000000039
:10399000000000000000000000000000010203041D
:1039A000060708094855424C4F542031393135003B
:1039B00043484F50415244204C554320313933370E
:1039C00000000000524F4C45582043656C6C696EF6
:1039D0006900000050494147455420416C746970AA
:1039E0006C616E6F00000000434152544945522003
:1039F00053616E746F730000183A000800000020D5
:103A0000C0000000F01E0008D83A0008C0000020E6
:103A100048040000001F0008000000000000000033
:103A20006400000000000000000000000000000032
:103A3000925ED4EE5701B63F2BA226FA7C9451BF7A
:103A40003CF54883DBEA13C079E9263108AC5CBF5A
:103A500008E8BE9CD9AEB03F1C5C3AE63CA32AC045
:103A6000E8390008B0390008A4390008D439000842
:103A7000C4390008BC020000200300008A020000D4
:103A80003C0500008A020000000000000000000069
:103A90000000000000000000925ED4EE5701B63F27
:103AA0002BA226FA7C9451BF3CF54883DBEA13C075
:103AB00079E9263108AC5CBF08E8BE9CD9AEB03FBE
:103AC0001C5C3AE63CA32AC000A24A0401000000A4
:083AD0001000000000000000DE
:0400000508000131BD
:00000001FF
